{
  "_format": "hh-sol-artifact-1",
  "contractName": "FractionalOwnershipMarketplace",
  "sourceName": "contracts/RWA_Marketplace_Fractional.sol",
  "abi": [
    {
      "inputs": [],
      "stateMutability": "nonpayable",
      "type": "constructor"
    },
    {
      "inputs": [],
      "name": "AccessControlBadConfirmation",
      "type": "error"
    },
    {
      "inputs": [
        {
          "internalType": "address",
          "name": "account",
          "type": "address"
        },
        {
          "internalType": "bytes32",
          "name": "neededRole",
          "type": "bytes32"
        }
      ],
      "name": "AccessControlUnauthorizedAccount",
      "type": "error"
    },
    {
      "inputs": [],
      "name": "EnforcedPause",
      "type": "error"
    },
    {
      "inputs": [],
      "name": "ExpectedPause",
      "type": "error"
    },
    {
      "inputs": [],
      "name": "InvalidInitialization",
      "type": "error"
    },
    {
      "inputs": [],
      "name": "NotInitializing",
      "type": "error"
    },
    {
      "inputs": [
        {
          "internalType": "address",
          "name": "owner",
          "type": "address"
        }
      ],
      "name": "OwnableInvalidOwner",
      "type": "error"
    },
    {
      "inputs": [
        {
          "internalType": "address",
          "name": "account",
          "type": "address"
        }
      ],
      "name": "OwnableUnauthorizedAccount",
      "type": "error"
    },
    {
      "anonymous": false,
      "inputs": [
        {
          "indexed": false,
          "internalType": "uint64",
          "name": "version",
          "type": "uint64"
        }
      ],
      "name": "Initialized",
      "type": "event"
    },
    {
      "anonymous": false,
      "inputs": [
        {
          "indexed": true,
          "internalType": "address",
          "name": "previousOwner",
          "type": "address"
        },
        {
          "indexed": true,
          "internalType": "address",
          "name": "newOwner",
          "type": "address"
        }
      ],
      "name": "OwnershipTransferred",
      "type": "event"
    },
    {
      "anonymous": false,
      "inputs": [
        {
          "indexed": false,
          "internalType": "address",
          "name": "account",
          "type": "address"
        }
      ],
      "name": "Paused",
      "type": "event"
    },
    {
      "anonymous": false,
      "inputs": [
        {
          "indexed": true,
          "internalType": "uint256",
          "name": "tokenId",
          "type": "uint256"
        },
        {
          "indexed": true,
          "internalType": "address",
          "name": "buyer",
          "type": "address"
        },
        {
          "indexed": false,
          "internalType": "uint256",
          "name": "sharesBought",
          "type": "uint256"
        }
      ],
      "name": "PropertyBought",
      "type": "event"
    },
    {
      "anonymous": false,
      "inputs": [
        {
          "indexed": true,
          "internalType": "address",
          "name": "lister",
          "type": "address"
        },
        {
          "indexed": false,
          "internalType": "uint256",
          "name": "tokenId",
          "type": "uint256"
        },
        {
          "indexed": false,
          "internalType": "uint256",
          "name": "price",
          "type": "uint256"
        },
        {
          "indexed": false,
          "internalType": "address",
          "name": "propertyToken",
          "type": "address"
        },
        {
          "indexed": false,
          "internalType": "uint256",
          "name": "pricePerShare",
          "type": "uint256"
        }
      ],
      "name": "PropertyListed",
      "type": "event"
    },
    {
      "anonymous": false,
      "inputs": [
        {
          "indexed": true,
          "internalType": "bytes32",
          "name": "role",
          "type": "bytes32"
        },
        {
          "indexed": true,
          "internalType": "bytes32",
          "name": "previousAdminRole",
          "type": "bytes32"
        },
        {
          "indexed": true,
          "internalType": "bytes32",
          "name": "newAdminRole",
          "type": "bytes32"
        }
      ],
      "name": "RoleAdminChanged",
      "type": "event"
    },
    {
      "anonymous": false,
      "inputs": [
        {
          "indexed": true,
          "internalType": "bytes32",
          "name": "role",
          "type": "bytes32"
        },
        {
          "indexed": true,
          "internalType": "address",
          "name": "account",
          "type": "address"
        },
        {
          "indexed": true,
          "internalType": "address",
          "name": "sender",
          "type": "address"
        }
      ],
      "name": "RoleGranted",
      "type": "event"
    },
    {
      "anonymous": false,
      "inputs": [
        {
          "indexed": true,
          "internalType": "bytes32",
          "name": "role",
          "type": "bytes32"
        },
        {
          "indexed": true,
          "internalType": "address",
          "name": "account",
          "type": "address"
        },
        {
          "indexed": true,
          "internalType": "address",
          "name": "sender",
          "type": "address"
        }
      ],
      "name": "RoleRevoked",
      "type": "event"
    },
    {
      "anonymous": false,
      "inputs": [
        {
          "indexed": false,
          "internalType": "address",
          "name": "account",
          "type": "address"
        }
      ],
      "name": "Unpaused",
      "type": "event"
    },
    {
      "inputs": [],
      "name": "BUSDtoken",
      "outputs": [
        {
          "internalType": "contract IERC20",
          "name": "",
          "type": "address"
        }
      ],
      "stateMutability": "view",
      "type": "function"
    },
    {
      "inputs": [],
      "name": "DEFAULT_ADMIN_ROLE",
      "outputs": [
        {
          "internalType": "bytes32",
          "name": "",
          "type": "bytes32"
        }
      ],
      "stateMutability": "view",
      "type": "function"
    },
    {
      "inputs": [],
      "name": "LISTER_ROLE",
      "outputs": [
        {
          "internalType": "bytes32",
          "name": "",
          "type": "bytes32"
        }
      ],
      "stateMutability": "view",
      "type": "function"
    },
    {
      "inputs": [
        {
          "internalType": "uint256",
          "name": "_tokenID",
          "type": "uint256"
        },
        {
          "internalType": "uint256",
          "name": "_shares",
          "type": "uint256"
        }
      ],
      "name": "buyPropertyShare",
      "outputs": [],
      "stateMutability": "nonpayable",
      "type": "function"
    },
    {
      "inputs": [
        {
          "internalType": "address",
          "name": "lister",
          "type": "address"
        },
        {
          "internalType": "uint256",
          "name": "_tokenId",
          "type": "uint256"
        },
        {
          "internalType": "uint256",
          "name": "_price",
          "type": "uint256"
        }
      ],
      "name": "createProperty",
      "outputs": [],
      "stateMutability": "nonpayable",
      "type": "function"
    },
    {
      "inputs": [
        {
          "internalType": "uint256[]",
          "name": "_tokenId",
          "type": "uint256[]"
        }
      ],
      "name": "getBatchMarketItem",
      "outputs": [
        {
          "components": [
            {
              "internalType": "address",
              "name": "seller",
              "type": "address"
            },
            {
              "internalType": "uint256",
              "name": "price",
              "type": "uint256"
            },
            {
              "internalType": "address",
              "name": "propertyToken",
              "type": "address"
            },
            {
              "internalType": "uint256",
              "name": "pricePerShare",
              "type": "uint256"
            },
            {
              "internalType": "uint256",
              "name": "sharesAvailable",
              "type": "uint256"
            },
            {
              "internalType": "uint256",
              "name": "timeListed",
              "type": "uint256"
            }
          ],
          "internalType": "struct FractionalOwnershipMarketplace.MarketItem[]",
          "name": "",
          "type": "tuple[]"
        }
      ],
      "stateMutability": "view",
      "type": "function"
    },
    {
      "inputs": [
        {
          "internalType": "uint256",
          "name": "_tokenId",
          "type": "uint256"
        }
      ],
      "name": "getMarketItem",
      "outputs": [
        {
          "components": [
            {
              "internalType": "address",
              "name": "seller",
              "type": "address"
            },
            {
              "internalType": "uint256",
              "name": "price",
              "type": "uint256"
            },
            {
              "internalType": "address",
              "name": "propertyToken",
              "type": "address"
            },
            {
              "internalType": "uint256",
              "name": "pricePerShare",
              "type": "uint256"
            },
            {
              "internalType": "uint256",
              "name": "sharesAvailable",
              "type": "uint256"
            },
            {
              "internalType": "uint256",
              "name": "timeListed",
              "type": "uint256"
            }
          ],
          "internalType": "struct FractionalOwnershipMarketplace.MarketItem",
          "name": "",
          "type": "tuple"
        }
      ],
      "stateMutability": "view",
      "type": "function"
    },
    {
      "inputs": [
        {
          "internalType": "bytes32",
          "name": "role",
          "type": "bytes32"
        }
      ],
      "name": "getRoleAdmin",
      "outputs": [
        {
          "internalType": "bytes32",
          "name": "",
          "type": "bytes32"
        }
      ],
      "stateMutability": "view",
      "type": "function"
    },
    {
      "inputs": [
        {
          "internalType": "uint256",
          "name": "_tokenID",
          "type": "uint256"
        }
      ],
      "name": "getSharePrice",
      "outputs": [
        {
          "internalType": "uint256",
          "name": "",
          "type": "uint256"
        }
      ],
      "stateMutability": "view",
      "type": "function"
    },
    {
      "inputs": [
        {
          "internalType": "address",
          "name": "_minter",
          "type": "address"
        }
      ],
      "name": "grantListerRole",
      "outputs": [],
      "stateMutability": "nonpayable",
      "type": "function"
    },
    {
      "inputs": [
        {
          "internalType": "bytes32",
          "name": "role",
          "type": "bytes32"
        },
        {
          "internalType": "address",
          "name": "account",
          "type": "address"
        }
      ],
      "name": "grantRole",
      "outputs": [],
      "stateMutability": "nonpayable",
      "type": "function"
    },
    {
      "inputs": [
        {
          "internalType": "bytes32",
          "name": "role",
          "type": "bytes32"
        },
        {
          "internalType": "address",
          "name": "account",
          "type": "address"
        }
      ],
      "name": "hasRole",
      "outputs": [
        {
          "internalType": "bool",
          "name": "",
          "type": "bool"
        }
      ],
      "stateMutability": "view",
      "type": "function"
    },
    {
      "inputs": [],
      "name": "initialize",
      "outputs": [],
      "stateMutability": "nonpayable",
      "type": "function"
    },
    {
      "inputs": [
        {
          "internalType": "uint256",
          "name": "",
          "type": "uint256"
        }
      ],
      "name": "items",
      "outputs": [
        {
          "internalType": "address",
          "name": "seller",
          "type": "address"
        },
        {
          "internalType": "uint256",
          "name": "price",
          "type": "uint256"
        },
        {
          "internalType": "address",
          "name": "propertyToken",
          "type": "address"
        },
        {
          "internalType": "uint256",
          "name": "pricePerShare",
          "type": "uint256"
        },
        {
          "internalType": "uint256",
          "name": "sharesAvailable",
          "type": "uint256"
        },
        {
          "internalType": "uint256",
          "name": "timeListed",
          "type": "uint256"
        }
      ],
      "stateMutability": "view",
      "type": "function"
    },
    {
      "inputs": [
        {
          "internalType": "address",
          "name": "operator",
          "type": "address"
        },
        {
          "internalType": "address",
          "name": "from",
          "type": "address"
        },
        {
          "internalType": "uint256",
          "name": "tokenId",
          "type": "uint256"
        },
        {
          "internalType": "bytes",
          "name": "data",
          "type": "bytes"
        }
      ],
      "name": "onERC721Received",
      "outputs": [
        {
          "internalType": "bytes4",
          "name": "",
          "type": "bytes4"
        }
      ],
      "stateMutability": "nonpayable",
      "type": "function"
    },
    {
      "inputs": [],
      "name": "owner",
      "outputs": [
        {
          "internalType": "address",
          "name": "",
          "type": "address"
        }
      ],
      "stateMutability": "view",
      "type": "function"
    },
    {
      "inputs": [],
      "name": "paused",
      "outputs": [
        {
          "internalType": "bool",
          "name": "",
          "type": "bool"
        }
      ],
      "stateMutability": "view",
      "type": "function"
    },
    {
      "inputs": [],
      "name": "propertyNFT",
      "outputs": [
        {
          "internalType": "contract IERC721",
          "name": "",
          "type": "address"
        }
      ],
      "stateMutability": "view",
      "type": "function"
    },
    {
      "inputs": [],
      "name": "renounceOwnership",
      "outputs": [],
      "stateMutability": "nonpayable",
      "type": "function"
    },
    {
      "inputs": [
        {
          "internalType": "bytes32",
          "name": "role",
          "type": "bytes32"
        },
        {
          "internalType": "address",
          "name": "callerConfirmation",
          "type": "address"
        }
      ],
      "name": "renounceRole",
      "outputs": [],
      "stateMutability": "nonpayable",
      "type": "function"
    },
    {
      "inputs": [
        {
          "internalType": "bytes32",
          "name": "role",
          "type": "bytes32"
        },
        {
          "internalType": "address",
          "name": "account",
          "type": "address"
        }
      ],
      "name": "revokeRole",
      "outputs": [],
      "stateMutability": "nonpayable",
      "type": "function"
    },
    {
      "inputs": [
        {
          "internalType": "contract IERC20",
          "name": "_token",
          "type": "address"
        }
      ],
      "name": "setBUSDToken",
      "outputs": [],
      "stateMutability": "nonpayable",
      "type": "function"
    },
    {
      "inputs": [
        {
          "internalType": "address",
          "name": "_nftAddress",
          "type": "address"
        }
      ],
      "name": "setPopertyNFT",
      "outputs": [],
      "stateMutability": "nonpayable",
      "type": "function"
    },
    {
      "inputs": [
        {
          "internalType": "uint256",
          "name": "_total",
          "type": "uint256"
        }
      ],
      "name": "setTotalShare",
      "outputs": [],
      "stateMutability": "nonpayable",
      "type": "function"
    },
    {
      "inputs": [
        {
          "internalType": "bytes4",
          "name": "interfaceId",
          "type": "bytes4"
        }
      ],
      "name": "supportsInterface",
      "outputs": [
        {
          "internalType": "bool",
          "name": "",
          "type": "bool"
        }
      ],
      "stateMutability": "view",
      "type": "function"
    },
    {
      "inputs": [],
      "name": "totalShare",
      "outputs": [
        {
          "internalType": "uint256",
          "name": "",
          "type": "uint256"
        }
      ],
      "stateMutability": "view",
      "type": "function"
    },
    {
      "inputs": [
        {
          "internalType": "address",
          "name": "newOwner",
          "type": "address"
        }
      ],
      "name": "transferOwnership",
      "outputs": [],
      "stateMutability": "nonpayable",
      "type": "function"
    },
    {
      "inputs": [
        {
          "internalType": "address",
          "name": "to",
          "type": "address"
        },
        {
          "internalType": "uint256",
          "name": "amount",
          "type": "uint256"
        }
      ],
      "name": "withdrawBUSD",
      "outputs": [],
      "stateMutability": "nonpayable",
      "type": "function"
    },
    {
      "inputs": [
        {
          "internalType": "address",
          "name": "to",
          "type": "address"
        },
        {
          "internalType": "uint256",
          "name": "_tokenId",
          "type": "uint256"
        }
      ],
      "name": "withdrawNFT",
      "outputs": [],
      "stateMutability": "nonpayable",
      "type": "function"
    },
    {
      "inputs": [
        {
          "internalType": "address",
          "name": "token",
          "type": "address"
        },
        {
          "internalType": "address",
          "name": "to",
          "type": "address"
        },
        {
          "internalType": "uint256",
          "name": "amount",
          "type": "uint256"
        }
      ],
      "name": "withdrawToken",
      "outputs": [],
      "stateMutability": "nonpayable",
      "type": "function"
    }
  ],
  "bytecode": "0x6080604052348015600f57600080fd5b503380603557604051631e4fbdf760e01b81526000600482015260240160405180910390fd5b603c81604e565b506000805460ff60a01b19169055609e565b600080546001600160a01b038381166001600160a01b0319831681178455604051919092169283917f8be0079c531659141344cd1fd0a4f28419497f9722a3daafe3b4186f6b6457e09190a35050565b61266a806100ad6000396000f3fe608060405234801561001057600080fd5b50600436106101da5760003560e01c8063621719c011610104578063bca7d4e1116100a2578063deb26b9411610071578063deb26b94146104b7578063e89b81ce146104cc578063f2241738146104df578063f2fde38b146104f257600080fd5b8063bca7d4e1146103d3578063bfb231d2146103f6578063c7be7a4914610484578063d547741f146104a457600080fd5b80638da5cb5b116100de5780638da5cb5b1461039457806391d14854146103a5578063a217fddf146103b8578063b42c7f5c146103c057600080fd5b8063621719c014610371578063715018a6146103845780638129fc1c1461038c57600080fd5b8063248a9ca31161017c57806337f768381161014b57806337f768381461030157806352f1a42e1461032c5780635c975abb1461034c5780636088e93a1461035e57600080fd5b8063248a9ca3146102a45780632e75f432146102c85780632f2ff15d146102db57806336568abe146102ee57600080fd5b806302ce32ce116101b857806302ce32ce14610233578063150b7a021461024657806318c9323e1461027e5780631f29b9d51461029157600080fd5b806301e33667146101df57806301ffc9a7146101f4578063026c42071461021c575b600080fd5b6101f26101ed36600461151e565b610505565b005b61020761020236600461155f565b610586565b60405190151581526020015b60405180910390f35b61022560025481565b604051908152602001610213565b6101f2610241366004611590565b6105bd565b6102656102543660046115ad565b630a85bd0160e11b95945050505050565b6040516001600160e01b03199091168152602001610213565b6101f261028c366004611590565b6105e7565b6101f261029f366004611590565b610611565b6102256102b236600461164e565b6000908152600160208190526040909120015490565b6101f26102d6366004611667565b610635565b6101f26102e936600461169c565b61088e565b6101f26102fc36600461169c565b6108b4565b600354610314906001600160a01b031681565b6040516001600160a01b039091168152602001610213565b61033f61033a3660046116e2565b6108ec565b60405161021391906117f4565b600054600160a01b900460ff16610207565b6101f261036c366004611842565b610a02565b6101f261037f36600461164e565b610a7a565b6101f2610a87565b6101f2610a9b565b6000546001600160a01b0316610314565b6102076103b336600461169c565b610c18565b610225600081565b600454610314906001600160a01b031681565b6102256103e136600461164e565b60009081526005602052604090206001015490565b61044661040436600461164e565b60056020819052600091825260409091208054600182015460028301546003840154600485015494909501546001600160a01b03938416959294919093169286565b604080516001600160a01b039788168152602081019690965293909516928401929092526060830152608082015260a081019190915260c001610213565b61049761049236600461164e565b610c43565b604051610213919061186e565b6101f26104b236600461169c565b610caf565b61022560008051602061261583398151915281565b6101f26104da36600461187c565b610cd5565b6101f26104ed366004611842565b6110b9565b6101f2610500366004611590565b61113a565b61050d611178565b60405163a9059cbb60e01b81526001600160a01b0383811660048301526024820183905284169063a9059cbb906044016020604051808303816000875af115801561055c573d6000803e3d6000fd5b505050506040513d601f19601f82011682018060405250810190610580919061189e565b50505050565b60006001600160e01b03198216637965db0b60e01b14806105b757506301ffc9a760e01b6001600160e01b03198316145b92915050565b6105c5611178565b600480546001600160a01b0319166001600160a01b0392909216919091179055565b6105ef611178565b600380546001600160a01b0319166001600160a01b0392909216919091179055565b610619611178565b610631600080516020612615833981519152826111a5565b5050565b61063d61121e565b61065560008051602061261583398151915233610c18565b6106bd5760405162461bcd60e51b815260206004820152602e60248201527f63726561746550726f70657274793a2043616c6c657220646f206e6f7420686160448201526d7665206c697374657220726f6c6560901b60648201526084015b60405180910390fd5b60006106c883611249565b6040516020016106d891906118e4565b6040516020818303038152906040526106f084611249565b6040516020016107009190611929565b604051602081830303815290604052600254670de0b6b3a7640000610725919061196d565b30604051610732906114b4565b61073f94939291906119b0565b604051809103906000f08015801561075b573d6000803e3d6000fd5b5090506040518060c00160405280856001600160a01b03168152602001838152602001826001600160a01b031681526020016002548461079b91906119f7565b815260028054602080840191909152426040938401526000878152600580835290849020855181546001600160a01b03199081166001600160a01b0392831617835593870151600183015594860151818501805490941690861617909255606085015160038301556080850151600483015560a0909401519301929092559054908516907ffe86316f66c33514e2ebf279ba0cd726fe55b054d81367b3473bce5146031cd09085908590859061085190836119f7565b604051610880949392919093845260208401929092526001600160a01b03166040830152606082015260800190565b60405180910390a250505050565b600082815260016020819052604090912001546108aa816112dc565b61058083836111a5565b6001600160a01b03811633146108dd5760405163334bd91960e11b815260040160405180910390fd5b6108e782826112e6565b505050565b60606000825167ffffffffffffffff81111561090a5761090a6116cc565b60405190808252806020026020018201604052801561094357816020015b6109306114c1565b8152602001906001900390816109285790505b50905060005b83518110156109fb576005600085838151811061096857610968611a19565b6020908102919091018101518252818101929092526040908101600020815160c08101835281546001600160a01b03908116825260018301549482019490945260028201549093169183019190915260038101546060830152600481015460808301526005015460a082015282518390839081106109e8576109e8611a19565b6020908102919091010152600101610949565b5092915050565b610a0a611178565b6003546040516323b872dd60e01b81523060048201526001600160a01b03848116602483015260448201849052909116906323b872dd90606401600060405180830381600087803b158015610a5e57600080fd5b505af1158015610a72573d6000803e3d6000fd5b505050505050565b610a82611178565b600255565b610a8f611178565b610a996000611353565b565b7ff0c57e16840df040f15088dc2f81fe391c3923bec73e23a9662efc9c229c6a008054600160401b810460ff16159067ffffffffffffffff16600081158015610ae15750825b905060008267ffffffffffffffff166001148015610afe5750303b155b905081158015610b0c575080155b15610b2a5760405163f92ee8a960e01b815260040160405180910390fd5b845467ffffffffffffffff191660011785558315610b5457845460ff60401b1916600160401b1785555b610b5d33611353565b6103e8600255600480546001600160a01b031916732ad4992e2bfa5440e9ce7c8d4a53bf7c2eb62a93179055610ba56000610ba06000546001600160a01b031690565b6111a5565b50610bca600080516020612615833981519152610ba06000546001600160a01b031690565b508315610c1157845460ff60401b19168555604051600181527fc7f505b2f371ae2175ee4913f4499e1f2633a7b5936321eed1cdaeb6115181d29060200160405180910390a15b5050505050565b60009182526001602090815260408084206001600160a01b0393909316845291905290205460ff1690565b610c4b6114c1565b50600090815260056020818152604092839020835160c08101855281546001600160a01b039081168252600183015493820193909352600282015490921693820193909352600383015460608201526004830154608082015291015460a082015290565b60008281526001602081905260409091200154610ccb816112dc565b61058083836112e6565b600082815260056020526040902080546001600160a01b0316610d525760405162461bcd60e51b815260206004820152602f60248201527f62757950726f70657274793a204974656d206e6f74206c6973746564206f6e2060448201526e746865206d61726b6574706c61636560881b60648201526084016106b4565b8054336001600160a01b0390911603610dc85760405162461bcd60e51b815260206004820152603260248201527f62757950726f70657274793a20596f752063616e6e6f74206275792061206974604482015271195b481d1a185d081e5bdd481b1a5cdd195960721b60648201526084016106b4565b8181600401541015610e1c5760405162461bcd60e51b815260206004820152601b60248201527f4e6f7420656e6f7567682073686172657320617661696c61626c65000000000060448201526064016106b4565b6001810154600480546040516370a0823160e01b815233928101929092526001600160a01b0316906370a0823190602401602060405180830381865afa158015610e6a573d6000803e3d6000fd5b505050506040513d601f19601f82011682018060405250810190610e8e9190611a2f565b1015610eee5760405162461bcd60e51b815260206004820152602960248201527f62757950726f70657274793a2020425553442062616c616e636520697320696e6044820152681cdd59999a58d95b9d60ba1b60648201526084016106b4565b6000828260030154610f00919061196d565b600480546040516323b872dd60e01b81523392810192909252306024830152604482018390529192506001600160a01b03909116906323b872dd906064016020604051808303816000875af1158015610f5d573d6000803e3d6000fd5b505050506040513d601f19601f82011682018060405250810190610f81919061189e565b610fcd5760405162461bcd60e51b815260206004820152601860248201527f496e636f7272656374207061796d656e7420616d6f756e74000000000000000060448201526064016106b4565b60028201546001600160a01b031663a9059cbb33610ff386670de0b6b3a764000061196d565b6040516001600160e01b031960e085901b1681526001600160a01b03909216600483015260248201526044016020604051808303816000875af115801561103e573d6000803e3d6000fd5b505050506040513d601f19601f82011682018060405250810190611062919061189e565b50828260040160008282546110779190611a48565b9091555050604051838152339085907f290f2083cde0be163feaae46ca85fea0ffc5f20ab98f90fcc19040a6f9a192559060200160405180910390a350505050565b6110c1611178565b6004805460405163a9059cbb60e01b81526001600160a01b03858116938201939093526024810184905291169063a9059cbb906044016020604051808303816000875af1158015611116573d6000803e3d6000fd5b505050506040513d601f19601f820116820180604052508101906108e7919061189e565b611142611178565b6001600160a01b03811661116c57604051631e4fbdf760e01b8152600060048201526024016106b4565b61117581611353565b50565b6000546001600160a01b03163314610a995760405163118cdaa760e01b81523360048201526024016106b4565b60006111b18383610c18565b6112165760008381526001602081815260408084206001600160a01b0387168086529252808420805460ff19169093179092559051339286917f2f8788117e7eff1d82e926ec794901d17c78024a50270940304540a733656f0d9190a45060016105b7565b5060006105b7565b600054600160a01b900460ff1615610a995760405163d93c066560e01b815260040160405180910390fd5b60606000611256836113a3565b600101905060008167ffffffffffffffff811115611276576112766116cc565b6040519080825280601f01601f1916602001820160405280156112a0576020820181803683370190505b5090508181016020015b600019016f181899199a1a9b1b9c1cb0b131b232b360811b600a86061a8153600a85049450846112aa57509392505050565b611175813361147b565b60006112f28383610c18565b156112165760008381526001602090815260408083206001600160a01b0386168085529252808320805460ff1916905551339286917ff6391f5c32d9c69d2a47ea670b442974b53935d1edc7fd64eb21e047a839171b9190a45060016105b7565b600080546001600160a01b038381166001600160a01b0319831681178455604051919092169283917f8be0079c531659141344cd1fd0a4f28419497f9722a3daafe3b4186f6b6457e09190a35050565b60008072184f03e93ff9f4daa797ed6e38ed64bf6a1f0160401b83106113e25772184f03e93ff9f4daa797ed6e38ed64bf6a1f0160401b830492506040015b6d04ee2d6d415b85acef8100000000831061140e576d04ee2d6d415b85acef8100000000830492506020015b662386f26fc10000831061142c57662386f26fc10000830492506010015b6305f5e1008310611444576305f5e100830492506008015b612710831061145857612710830492506004015b6064831061146a576064830492506002015b600a83106105b75760010192915050565b6114858282610c18565b6106315760405163e2517d3f60e01b81526001600160a01b0382166004820152602481018390526044016106b4565b610bb980611a5c83390190565b6040518060c0016040528060006001600160a01b031681526020016000815260200160006001600160a01b031681526020016000815260200160008152602001600081525090565b6001600160a01b038116811461117557600080fd5b60008060006060848603121561153357600080fd5b833561153e81611509565b9250602084013561154e81611509565b929592945050506040919091013590565b60006020828403121561157157600080fd5b81356001600160e01b03198116811461158957600080fd5b9392505050565b6000602082840312156115a257600080fd5b813561158981611509565b6000806000806000608086880312156115c557600080fd5b85356115d081611509565b945060208601356115e081611509565b935060408601359250606086013567ffffffffffffffff81111561160357600080fd5b8601601f8101881361161457600080fd5b803567ffffffffffffffff81111561162b57600080fd5b88602082840101111561163d57600080fd5b959894975092955050506020019190565b60006020828403121561166057600080fd5b5035919050565b60008060006060848603121561167c57600080fd5b833561168781611509565b95602085013595506040909401359392505050565b600080604083850312156116af57600080fd5b8235915060208301356116c181611509565b809150509250929050565b634e487b7160e01b600052604160045260246000fd5b6000602082840312156116f457600080fd5b813567ffffffffffffffff81111561170b57600080fd5b8201601f8101841361171c57600080fd5b803567ffffffffffffffff811115611736576117366116cc565b8060051b604051601f19603f830116810181811067ffffffffffffffff82111715611763576117636116cc565b60405291825260208184018101929081018784111561178157600080fd5b6020850194505b838510156117a457843580825260209586019590935001611788565b509695505050505050565b80516001600160a01b0390811683526020808301519084015260408083015190911690830152606080820151908301526080808201519083015260a090810151910152565b602080825282518282018190526000918401906040840190835b81811015611837576118218385516117af565b6020939093019260c0929092019160010161180e565b509095945050505050565b6000806040838503121561185557600080fd5b823561186081611509565b946020939093013593505050565b60c081016105b782846117af565b6000806040838503121561188f57600080fd5b50508035926020909101359150565b6000602082840312156118b057600080fd5b8151801515811461158957600080fd5b60005b838110156118db5781810151838201526020016118c3565b50506000910152565b7f5265616c74794875622070726f7065727479536861726520000000000000000081526000825161191c8160188501602087016118c0565b9190910160180192915050565b6550534841524560d01b81526000825161194a8160068501602087016118c0565b9190910160060192915050565b634e487b7160e01b600052601160045260246000fd5b80820281158282048414176105b7576105b7611957565b6000815180845261199c8160208601602086016118c0565b601f01601f19169290920160200192915050565b6080815260006119c36080830187611984565b82810360208401526119d58187611984565b604084019590955250506001600160a01b039190911660609091015292915050565b600082611a1457634e487b7160e01b600052601260045260246000fd5b500490565b634e487b7160e01b600052603260045260246000fd5b600060208284031215611a4157600080fd5b5051919050565b818103818111156105b7576105b761195756fe608060405234801561001057600080fd5b50604051610bb9380380610bb983398101604081905261002f91610288565b8383600361003d83826103a4565b50600461004a82826103a4565b50505061005d818361006660201b60201c565b50505050610489565b6001600160a01b0382166100955760405163ec442f0560e01b8152600060048201526024015b60405180910390fd5b6100a1600083836100a5565b5050565b6001600160a01b0383166100d05780600260008282546100c59190610462565b909155506101429050565b6001600160a01b038316600090815260208190526040902054818110156101235760405163391434e360e21b81526001600160a01b0385166004820152602481018290526044810183905260640161008c565b6001600160a01b03841660009081526020819052604090209082900390555b6001600160a01b03821661015e5760028054829003905561017d565b6001600160a01b03821660009081526020819052604090208054820190555b816001600160a01b0316836001600160a01b03167fddf252ad1be2c89b69c2b068fc378daa952ba7f163c4a11628f55a4df523b3ef836040516101c291815260200190565b60405180910390a3505050565b634e487b7160e01b600052604160045260246000fd5b600082601f8301126101f657600080fd5b81516001600160401b0381111561020f5761020f6101cf565b604051601f8201601f19908116603f011681016001600160401b038111828210171561023d5761023d6101cf565b60405281815283820160200185101561025557600080fd5b60005b8281101561027457602081860181015183830182015201610258565b506000918101602001919091529392505050565b6000806000806080858703121561029e57600080fd5b84516001600160401b038111156102b457600080fd5b6102c0878288016101e5565b602087015190955090506001600160401b038111156102de57600080fd5b6102ea878288016101e5565b60408701516060880151919550935090506001600160a01b038116811461031057600080fd5b939692955090935050565b600181811c9082168061032f57607f821691505b60208210810361034f57634e487b7160e01b600052602260045260246000fd5b50919050565b601f82111561039f57806000526020600020601f840160051c8101602085101561037c5750805b601f840160051c820191505b8181101561039c5760008155600101610388565b50505b505050565b81516001600160401b038111156103bd576103bd6101cf565b6103d1816103cb845461031b565b84610355565b6020601f82116001811461040557600083156103ed5750848201515b600019600385901b1c1916600184901b17845561039c565b600084815260208120601f198516915b828110156104355787850151825560209485019460019092019101610415565b50848210156104535786840151600019600387901b60f8161c191681555b50505050600190811b01905550565b8082018082111561048357634e487b7160e01b600052601160045260246000fd5b92915050565b610721806104986000396000f3fe608060405234801561001057600080fd5b50600436106100935760003560e01c8063313ce56711610066578063313ce567146100fe57806370a082311461010d57806395d89b4114610136578063a9059cbb1461013e578063dd62ed3e1461015157600080fd5b806306fdde0314610098578063095ea7b3146100b657806318160ddd146100d957806323b872dd146100eb575b600080fd5b6100a061018a565b6040516100ad919061056a565b60405180910390f35b6100c96100c43660046105d4565b61021c565b60405190151581526020016100ad565b6002545b6040519081526020016100ad565b6100c96100f93660046105fe565b610236565b604051601281526020016100ad565b6100dd61011b36600461063b565b6001600160a01b031660009081526020819052604090205490565b6100a061025a565b6100c961014c3660046105d4565b610269565b6100dd61015f36600461065d565b6001600160a01b03918216600090815260016020908152604080832093909416825291909152205490565b60606003805461019990610690565b80601f01602080910402602001604051908101604052809291908181526020018280546101c590610690565b80156102125780601f106101e757610100808354040283529160200191610212565b820191906000526020600020905b8154815290600101906020018083116101f557829003601f168201915b5050505050905090565b60003361022a818585610277565b60019150505b92915050565b600033610244858285610289565b61024f85858561030c565b506001949350505050565b60606004805461019990610690565b60003361022a81858561030c565b610284838383600161036b565b505050565b6001600160a01b03838116600090815260016020908152604080832093861683529290522054600019811461030657818110156102f757604051637dc7a0d960e11b81526001600160a01b038416600482015260248101829052604481018390526064015b60405180910390fd5b6103068484848403600061036b565b50505050565b6001600160a01b03831661033657604051634b637e8f60e11b8152600060048201526024016102ee565b6001600160a01b0382166103605760405163ec442f0560e01b8152600060048201526024016102ee565b610284838383610440565b6001600160a01b0384166103955760405163e602df0560e01b8152600060048201526024016102ee565b6001600160a01b0383166103bf57604051634a1406b160e11b8152600060048201526024016102ee565b6001600160a01b038085166000908152600160209081526040808320938716835292905220829055801561030657826001600160a01b0316846001600160a01b03167f8c5be1e5ebec7d5bd14f71427d1e84f3dd0314c0f7b2291e5b200ac8c7c3b9258460405161043291815260200190565b60405180910390a350505050565b6001600160a01b03831661046b57806002600082825461046091906106ca565b909155506104dd9050565b6001600160a01b038316600090815260208190526040902054818110156104be5760405163391434e360e21b81526001600160a01b038516600482015260248101829052604481018390526064016102ee565b6001600160a01b03841660009081526020819052604090209082900390555b6001600160a01b0382166104f957600280548290039055610518565b6001600160a01b03821660009081526020819052604090208054820190555b816001600160a01b0316836001600160a01b03167fddf252ad1be2c89b69c2b068fc378daa952ba7f163c4a11628f55a4df523b3ef8360405161055d91815260200190565b60405180910390a3505050565b602081526000825180602084015260005b81811015610598576020818601810151604086840101520161057b565b506000604082850101526040601f19601f83011684010191505092915050565b80356001600160a01b03811681146105cf57600080fd5b919050565b600080604083850312156105e757600080fd5b6105f0836105b8565b946020939093013593505050565b60008060006060848603121561061357600080fd5b61061c846105b8565b925061062a602085016105b8565b929592945050506040919091013590565b60006020828403121561064d57600080fd5b610656826105b8565b9392505050565b6000806040838503121561067057600080fd5b610679836105b8565b9150610687602084016105b8565b90509250929050565b600181811c908216806106a457607f821691505b6020821081036106c457634e487b7160e01b600052602260045260246000fd5b50919050565b8082018082111561023057634e487b7160e01b600052601160045260246000fdfea2646970667358221220868d96d1b38eacc8fd01385811a6d485fdca66d3eb8606f1b66ea452f9850f0864736f6c634300081c0033f94103142c1baabe9ac2b5d1487bf783de9e69cfeea9a72f5c9c94afd7877b8ca264697066735822122061711642106a2970ae31a2e8339e1038a104833ef94c8e02f7c949cd6203cd9064736f6c634300081c0033",
  "linkReferences": {},
  "deployedLinkReferences": {}
}