{
  "_format": "hh-sol-artifact-1",
  "contractName": "FractionalOwnershipMarketplace",
  "sourceName": "contracts/RWA_Marketplace_Fractional.sol",
  "abi": [
    {
      "inputs": [],
      "stateMutability": "nonpayable",
      "type": "constructor"
    },
    {
      "inputs": [],
      "name": "AccessControlBadConfirmation",
      "type": "error"
    },
    {
      "inputs": [
        {
          "internalType": "address",
          "name": "account",
          "type": "address"
        },
        {
          "internalType": "bytes32",
          "name": "neededRole",
          "type": "bytes32"
        }
      ],
      "name": "AccessControlUnauthorizedAccount",
      "type": "error"
    },
    {
      "inputs": [],
      "name": "EnforcedPause",
      "type": "error"
    },
    {
      "inputs": [],
      "name": "ExpectedPause",
      "type": "error"
    },
    {
      "inputs": [],
      "name": "InvalidInitialization",
      "type": "error"
    },
    {
      "inputs": [],
      "name": "NotInitializing",
      "type": "error"
    },
    {
      "inputs": [
        {
          "internalType": "address",
          "name": "owner",
          "type": "address"
        }
      ],
      "name": "OwnableInvalidOwner",
      "type": "error"
    },
    {
      "inputs": [
        {
          "internalType": "address",
          "name": "account",
          "type": "address"
        }
      ],
      "name": "OwnableUnauthorizedAccount",
      "type": "error"
    },
    {
      "anonymous": false,
      "inputs": [
        {
          "indexed": false,
          "internalType": "uint64",
          "name": "version",
          "type": "uint64"
        }
      ],
      "name": "Initialized",
      "type": "event"
    },
    {
      "anonymous": false,
      "inputs": [
        {
          "indexed": true,
          "internalType": "address",
          "name": "previousOwner",
          "type": "address"
        },
        {
          "indexed": true,
          "internalType": "address",
          "name": "newOwner",
          "type": "address"
        }
      ],
      "name": "OwnershipTransferred",
      "type": "event"
    },
    {
      "anonymous": false,
      "inputs": [
        {
          "indexed": false,
          "internalType": "address",
          "name": "account",
          "type": "address"
        }
      ],
      "name": "Paused",
      "type": "event"
    },
    {
      "anonymous": false,
      "inputs": [
        {
          "indexed": true,
          "internalType": "uint256",
          "name": "tokenId",
          "type": "uint256"
        },
        {
          "indexed": true,
          "internalType": "address",
          "name": "buyer",
          "type": "address"
        },
        {
          "indexed": false,
          "internalType": "uint256",
          "name": "sharesBought",
          "type": "uint256"
        }
      ],
      "name": "PropertyBought",
      "type": "event"
    },
    {
      "anonymous": false,
      "inputs": [
        {
          "indexed": true,
          "internalType": "address",
          "name": "lister",
          "type": "address"
        },
        {
          "indexed": false,
          "internalType": "uint256",
          "name": "tokenId",
          "type": "uint256"
        },
        {
          "indexed": false,
          "internalType": "uint256",
          "name": "price",
          "type": "uint256"
        },
        {
          "indexed": false,
          "internalType": "address",
          "name": "propertyToken",
          "type": "address"
        },
        {
          "indexed": false,
          "internalType": "uint256",
          "name": "pricePerShare",
          "type": "uint256"
        }
      ],
      "name": "PropertyListed",
      "type": "event"
    },
    {
      "anonymous": false,
      "inputs": [
        {
          "indexed": true,
          "internalType": "bytes32",
          "name": "role",
          "type": "bytes32"
        },
        {
          "indexed": true,
          "internalType": "bytes32",
          "name": "previousAdminRole",
          "type": "bytes32"
        },
        {
          "indexed": true,
          "internalType": "bytes32",
          "name": "newAdminRole",
          "type": "bytes32"
        }
      ],
      "name": "RoleAdminChanged",
      "type": "event"
    },
    {
      "anonymous": false,
      "inputs": [
        {
          "indexed": true,
          "internalType": "bytes32",
          "name": "role",
          "type": "bytes32"
        },
        {
          "indexed": true,
          "internalType": "address",
          "name": "account",
          "type": "address"
        },
        {
          "indexed": true,
          "internalType": "address",
          "name": "sender",
          "type": "address"
        }
      ],
      "name": "RoleGranted",
      "type": "event"
    },
    {
      "anonymous": false,
      "inputs": [
        {
          "indexed": true,
          "internalType": "bytes32",
          "name": "role",
          "type": "bytes32"
        },
        {
          "indexed": true,
          "internalType": "address",
          "name": "account",
          "type": "address"
        },
        {
          "indexed": true,
          "internalType": "address",
          "name": "sender",
          "type": "address"
        }
      ],
      "name": "RoleRevoked",
      "type": "event"
    },
    {
      "anonymous": false,
      "inputs": [
        {
          "indexed": false,
          "internalType": "address",
          "name": "account",
          "type": "address"
        }
      ],
      "name": "Unpaused",
      "type": "event"
    },
    {
      "inputs": [],
      "name": "BUSDtoken",
      "outputs": [
        {
          "internalType": "contract IERC20",
          "name": "",
          "type": "address"
        }
      ],
      "stateMutability": "view",
      "type": "function"
    },
    {
      "inputs": [],
      "name": "DEFAULT_ADMIN_ROLE",
      "outputs": [
        {
          "internalType": "bytes32",
          "name": "",
          "type": "bytes32"
        }
      ],
      "stateMutability": "view",
      "type": "function"
    },
    {
      "inputs": [],
      "name": "LISTER_ROLE",
      "outputs": [
        {
          "internalType": "bytes32",
          "name": "",
          "type": "bytes32"
        }
      ],
      "stateMutability": "view",
      "type": "function"
    },
    {
      "inputs": [
        {
          "internalType": "uint256",
          "name": "_tokenID",
          "type": "uint256"
        },
        {
          "internalType": "uint256",
          "name": "_shares",
          "type": "uint256"
        }
      ],
      "name": "buyPropertyShare",
      "outputs": [],
      "stateMutability": "nonpayable",
      "type": "function"
    },
    {
      "inputs": [
        {
          "internalType": "address",
          "name": "lister",
          "type": "address"
        },
        {
          "internalType": "uint256",
          "name": "_tokenId",
          "type": "uint256"
        },
        {
          "internalType": "uint256",
          "name": "_price",
          "type": "uint256"
        }
      ],
      "name": "createProperty",
      "outputs": [],
      "stateMutability": "nonpayable",
      "type": "function"
    },
    {
      "inputs": [
        {
          "internalType": "bytes32",
          "name": "role",
          "type": "bytes32"
        }
      ],
      "name": "getRoleAdmin",
      "outputs": [
        {
          "internalType": "bytes32",
          "name": "",
          "type": "bytes32"
        }
      ],
      "stateMutability": "view",
      "type": "function"
    },
    {
      "inputs": [
        {
          "internalType": "uint256",
          "name": "_tokenID",
          "type": "uint256"
        }
      ],
      "name": "getSharePrice",
      "outputs": [
        {
          "internalType": "uint256",
          "name": "",
          "type": "uint256"
        }
      ],
      "stateMutability": "view",
      "type": "function"
    },
    {
      "inputs": [
        {
          "internalType": "address",
          "name": "_minter",
          "type": "address"
        }
      ],
      "name": "grantListerRole",
      "outputs": [],
      "stateMutability": "nonpayable",
      "type": "function"
    },
    {
      "inputs": [
        {
          "internalType": "bytes32",
          "name": "role",
          "type": "bytes32"
        },
        {
          "internalType": "address",
          "name": "account",
          "type": "address"
        }
      ],
      "name": "grantRole",
      "outputs": [],
      "stateMutability": "nonpayable",
      "type": "function"
    },
    {
      "inputs": [
        {
          "internalType": "bytes32",
          "name": "role",
          "type": "bytes32"
        },
        {
          "internalType": "address",
          "name": "account",
          "type": "address"
        }
      ],
      "name": "hasRole",
      "outputs": [
        {
          "internalType": "bool",
          "name": "",
          "type": "bool"
        }
      ],
      "stateMutability": "view",
      "type": "function"
    },
    {
      "inputs": [],
      "name": "initialize",
      "outputs": [],
      "stateMutability": "nonpayable",
      "type": "function"
    },
    {
      "inputs": [
        {
          "internalType": "uint256",
          "name": "",
          "type": "uint256"
        }
      ],
      "name": "items",
      "outputs": [
        {
          "internalType": "address",
          "name": "seller",
          "type": "address"
        },
        {
          "internalType": "uint256",
          "name": "price",
          "type": "uint256"
        },
        {
          "internalType": "address",
          "name": "propertyToken",
          "type": "address"
        },
        {
          "internalType": "uint256",
          "name": "pricePerShare",
          "type": "uint256"
        },
        {
          "internalType": "uint256",
          "name": "sharesAvailable",
          "type": "uint256"
        },
        {
          "internalType": "uint256",
          "name": "timeListed",
          "type": "uint256"
        }
      ],
      "stateMutability": "view",
      "type": "function"
    },
    {
      "inputs": [
        {
          "internalType": "address",
          "name": "operator",
          "type": "address"
        },
        {
          "internalType": "address",
          "name": "from",
          "type": "address"
        },
        {
          "internalType": "uint256",
          "name": "tokenId",
          "type": "uint256"
        },
        {
          "internalType": "bytes",
          "name": "data",
          "type": "bytes"
        }
      ],
      "name": "onERC721Received",
      "outputs": [
        {
          "internalType": "bytes4",
          "name": "",
          "type": "bytes4"
        }
      ],
      "stateMutability": "nonpayable",
      "type": "function"
    },
    {
      "inputs": [],
      "name": "owner",
      "outputs": [
        {
          "internalType": "address",
          "name": "",
          "type": "address"
        }
      ],
      "stateMutability": "view",
      "type": "function"
    },
    {
      "inputs": [],
      "name": "paused",
      "outputs": [
        {
          "internalType": "bool",
          "name": "",
          "type": "bool"
        }
      ],
      "stateMutability": "view",
      "type": "function"
    },
    {
      "inputs": [],
      "name": "propertyNFT",
      "outputs": [
        {
          "internalType": "contract IERC721",
          "name": "",
          "type": "address"
        }
      ],
      "stateMutability": "view",
      "type": "function"
    },
    {
      "inputs": [],
      "name": "renounceOwnership",
      "outputs": [],
      "stateMutability": "nonpayable",
      "type": "function"
    },
    {
      "inputs": [
        {
          "internalType": "bytes32",
          "name": "role",
          "type": "bytes32"
        },
        {
          "internalType": "address",
          "name": "callerConfirmation",
          "type": "address"
        }
      ],
      "name": "renounceRole",
      "outputs": [],
      "stateMutability": "nonpayable",
      "type": "function"
    },
    {
      "inputs": [
        {
          "internalType": "bytes32",
          "name": "role",
          "type": "bytes32"
        },
        {
          "internalType": "address",
          "name": "account",
          "type": "address"
        }
      ],
      "name": "revokeRole",
      "outputs": [],
      "stateMutability": "nonpayable",
      "type": "function"
    },
    {
      "inputs": [
        {
          "internalType": "contract IERC20",
          "name": "_token",
          "type": "address"
        }
      ],
      "name": "setBUSDToken",
      "outputs": [],
      "stateMutability": "nonpayable",
      "type": "function"
    },
    {
      "inputs": [
        {
          "internalType": "address",
          "name": "_nftAddress",
          "type": "address"
        }
      ],
      "name": "setPopertyNFT",
      "outputs": [],
      "stateMutability": "nonpayable",
      "type": "function"
    },
    {
      "inputs": [
        {
          "internalType": "uint256",
          "name": "_total",
          "type": "uint256"
        }
      ],
      "name": "setTotalShare",
      "outputs": [],
      "stateMutability": "nonpayable",
      "type": "function"
    },
    {
      "inputs": [
        {
          "internalType": "bytes4",
          "name": "interfaceId",
          "type": "bytes4"
        }
      ],
      "name": "supportsInterface",
      "outputs": [
        {
          "internalType": "bool",
          "name": "",
          "type": "bool"
        }
      ],
      "stateMutability": "view",
      "type": "function"
    },
    {
      "inputs": [],
      "name": "totalShare",
      "outputs": [
        {
          "internalType": "uint256",
          "name": "",
          "type": "uint256"
        }
      ],
      "stateMutability": "view",
      "type": "function"
    },
    {
      "inputs": [
        {
          "internalType": "address",
          "name": "newOwner",
          "type": "address"
        }
      ],
      "name": "transferOwnership",
      "outputs": [],
      "stateMutability": "nonpayable",
      "type": "function"
    },
    {
      "inputs": [
        {
          "internalType": "address",
          "name": "to",
          "type": "address"
        },
        {
          "internalType": "uint256",
          "name": "amount",
          "type": "uint256"
        }
      ],
      "name": "withdrawBUSD",
      "outputs": [],
      "stateMutability": "nonpayable",
      "type": "function"
    },
    {
      "inputs": [
        {
          "internalType": "address",
          "name": "to",
          "type": "address"
        },
        {
          "internalType": "uint256",
          "name": "_tokenId",
          "type": "uint256"
        }
      ],
      "name": "withdrawNFT",
      "outputs": [],
      "stateMutability": "nonpayable",
      "type": "function"
    },
    {
      "inputs": [
        {
          "internalType": "address",
          "name": "token",
          "type": "address"
        },
        {
          "internalType": "address",
          "name": "to",
          "type": "address"
        },
        {
          "internalType": "uint256",
          "name": "amount",
          "type": "uint256"
        }
      ],
      "name": "withdrawToken",
      "outputs": [],
      "stateMutability": "nonpayable",
      "type": "function"
    }
  ],
  "bytecode": "0x6080604052348015600f57600080fd5b503380603557604051631e4fbdf760e01b81526000600482015260240160405180910390fd5b603c81604e565b506000805460ff60a01b19169055609e565b600080546001600160a01b038381166001600160a01b0319831681178455604051919092169283917f8be0079c531659141344cd1fd0a4f28419497f9722a3daafe3b4186f6b6457e09190a35050565b6122a8806100ad6000396000f3fe608060405234801561001057600080fd5b50600436106101c45760003560e01c8063621719c0116100f9578063bca7d4e111610097578063deb26b9411610071578063deb26b9414610461578063e89b81ce14610476578063f224173814610489578063f2fde38b1461049c57600080fd5b8063bca7d4e11461039d578063bfb231d2146103c0578063d547741f1461044e57600080fd5b80638da5cb5b116100d35780638da5cb5b1461035e57806391d148541461036f578063a217fddf14610382578063b42c7f5c1461038a57600080fd5b8063621719c01461033b578063715018a61461034e5780638129fc1c1461035657600080fd5b8063248a9ca31161016657806336568abe1161014057806336568abe146102d857806337f76838146102eb5780635c975abb146103165780636088e93a1461032857600080fd5b8063248a9ca31461028e5780632e75f432146102b25780632f2ff15d146102c557600080fd5b806302ce32ce116101a257806302ce32ce1461021d578063150b7a021461023057806318c9323e146102685780631f29b9d51461027b57600080fd5b806301e33667146101c957806301ffc9a7146101de578063026c420714610206575b600080fd5b6101dc6101d73660046112e0565b6104af565b005b6101f16101ec366004611321565b610530565b60405190151581526020015b60405180910390f35b61020f60025481565b6040519081526020016101fd565b6101dc61022b366004611352565b610567565b61024f61023e36600461136f565b630a85bd0160e11b95945050505050565b6040516001600160e01b031990911681526020016101fd565b6101dc610276366004611352565b610591565b6101dc610289366004611352565b6105bb565b61020f61029c366004611410565b6000908152600160208190526040909120015490565b6101dc6102c0366004611429565b6105df565b6101dc6102d336600461145e565b610838565b6101dc6102e636600461145e565b61085e565b6003546102fe906001600160a01b031681565b6040516001600160a01b0390911681526020016101fd565b600054600160a01b900460ff166101f1565b6101dc61033636600461148e565b610896565b6101dc610349366004611410565b61090e565b6101dc61091b565b6101dc61092f565b6000546001600160a01b03166102fe565b6101f161037d36600461145e565b610aac565b61020f600081565b6004546102fe906001600160a01b031681565b61020f6103ab366004611410565b60009081526005602052604090206001015490565b6104106103ce366004611410565b60056020819052600091825260409091208054600182015460028301546003840154600485015494909501546001600160a01b03938416959294919093169286565b604080516001600160a01b039788168152602081019690965293909516928401929092526060830152608082015260a081019190915260c0016101fd565b6101dc61045c36600461145e565b610ad7565b61020f60008051602061225383398151915281565b6101dc6104843660046114ba565b610afd565b6101dc61049736600461148e565b610ec3565b6101dc6104aa366004611352565b610f44565b6104b7610f82565b60405163a9059cbb60e01b81526001600160a01b0383811660048301526024820183905284169063a9059cbb906044016020604051808303816000875af1158015610506573d6000803e3d6000fd5b505050506040513d601f19601f8201168201806040525081019061052a91906114dc565b50505050565b60006001600160e01b03198216637965db0b60e01b148061056157506301ffc9a760e01b6001600160e01b03198316145b92915050565b61056f610f82565b600480546001600160a01b0319166001600160a01b0392909216919091179055565b610599610f82565b600380546001600160a01b0319166001600160a01b0392909216919091179055565b6105c3610f82565b6105db60008051602061225383398151915282610faf565b5050565b6105e7611028565b6105ff60008051602061225383398151915233610aac565b6106675760405162461bcd60e51b815260206004820152602e60248201527f63726561746550726f70657274793a2043616c6c657220646f206e6f7420686160448201526d7665206c697374657220726f6c6560901b60648201526084015b60405180910390fd5b600061067283611053565b6040516020016106829190611522565b60405160208183030381529060405261069a84611053565b6040516020016106aa9190611567565b604051602081830303815290604052600254670de0b6b3a76400006106cf91906115ab565b306040516106dc906112be565b6106e994939291906115ee565b604051809103906000f080158015610705573d6000803e3d6000fd5b5090506040518060c00160405280856001600160a01b03168152602001838152602001826001600160a01b03168152602001600254846107459190611635565b815260028054602080840191909152426040938401526000878152600580835290849020855181546001600160a01b03199081166001600160a01b0392831617835593870151600183015594860151818501805490941690861617909255606085015160038301556080850151600483015560a0909401519301929092559054908516907ffe86316f66c33514e2ebf279ba0cd726fe55b054d81367b3473bce5146031cd0908590859085906107fb9083611635565b60405161082a949392919093845260208401929092526001600160a01b03166040830152606082015260800190565b60405180910390a250505050565b60008281526001602081905260409091200154610854816110e6565b61052a8383610faf565b6001600160a01b03811633146108875760405163334bd91960e11b815260040160405180910390fd5b61089182826110f0565b505050565b61089e610f82565b6003546040516323b872dd60e01b81523060048201526001600160a01b03848116602483015260448201849052909116906323b872dd90606401600060405180830381600087803b1580156108f257600080fd5b505af1158015610906573d6000803e3d6000fd5b505050505050565b610916610f82565b600255565b610923610f82565b61092d600061115d565b565b7ff0c57e16840df040f15088dc2f81fe391c3923bec73e23a9662efc9c229c6a008054600160401b810460ff16159067ffffffffffffffff166000811580156109755750825b905060008267ffffffffffffffff1660011480156109925750303b155b9050811580156109a0575080155b156109be5760405163f92ee8a960e01b815260040160405180910390fd5b845467ffffffffffffffff1916600117855583156109e857845460ff60401b1916600160401b1785555b6109f13361115d565b6103e8600255600480546001600160a01b031916732ad4992e2bfa5440e9ce7c8d4a53bf7c2eb62a93179055610a396000610a346000546001600160a01b031690565b610faf565b50610a5e600080516020612253833981519152610a346000546001600160a01b031690565b508315610aa557845460ff60401b19168555604051600181527fc7f505b2f371ae2175ee4913f4499e1f2633a7b5936321eed1cdaeb6115181d29060200160405180910390a15b5050505050565b60009182526001602090815260408084206001600160a01b0393909316845291905290205460ff1690565b60008281526001602081905260409091200154610af3816110e6565b61052a83836110f0565b600082815260056020526040902080546001600160a01b0316610b7a5760405162461bcd60e51b815260206004820152602f60248201527f62757950726f70657274793a204974656d206e6f74206c6973746564206f6e2060448201526e746865206d61726b6574706c61636560881b606482015260840161065e565b8054336001600160a01b0390911603610bf05760405162461bcd60e51b815260206004820152603260248201527f62757950726f70657274793a20596f752063616e6e6f74206275792061206974604482015271195b481d1a185d081e5bdd481b1a5cdd195960721b606482015260840161065e565b8181600401541015610c445760405162461bcd60e51b815260206004820152601b60248201527f4e6f7420656e6f7567682073686172657320617661696c61626c650000000000604482015260640161065e565b6001810154600480546040516370a0823160e01b815233928101929092526001600160a01b0316906370a0823190602401602060405180830381865afa158015610c92573d6000803e3d6000fd5b505050506040513d601f19601f82011682018060405250810190610cb69190611657565b1015610d165760405162461bcd60e51b815260206004820152602960248201527f62757950726f70657274793a2020425553442062616c616e636520697320696e6044820152681cdd59999a58d95b9d60ba1b606482015260840161065e565b6000828260030154610d2891906115ab565b600480546040516323b872dd60e01b81523392810192909252306024830152604482018390529192506001600160a01b03909116906323b872dd906064016020604051808303816000875af1158015610d85573d6000803e3d6000fd5b505050506040513d601f19601f82011682018060405250810190610da991906114dc565b610df55760405162461bcd60e51b815260206004820152601860248201527f496e636f7272656374207061796d656e7420616d6f756e740000000000000000604482015260640161065e565b600282015460405163a9059cbb60e01b8152336004820152602481018590526001600160a01b039091169063a9059cbb906044016020604051808303816000875af1158015610e48573d6000803e3d6000fd5b505050506040513d601f19601f82011682018060405250810190610e6c91906114dc565b5082826004016000828254610e819190611670565b9091555050604051838152339085907f290f2083cde0be163feaae46ca85fea0ffc5f20ab98f90fcc19040a6f9a192559060200160405180910390a350505050565b610ecb610f82565b6004805460405163a9059cbb60e01b81526001600160a01b03858116938201939093526024810184905291169063a9059cbb906044016020604051808303816000875af1158015610f20573d6000803e3d6000fd5b505050506040513d601f19601f8201168201806040525081019061089191906114dc565b610f4c610f82565b6001600160a01b038116610f7657604051631e4fbdf760e01b81526000600482015260240161065e565b610f7f8161115d565b50565b6000546001600160a01b0316331461092d5760405163118cdaa760e01b815233600482015260240161065e565b6000610fbb8383610aac565b6110205760008381526001602081815260408084206001600160a01b0387168086529252808420805460ff19169093179092559051339286917f2f8788117e7eff1d82e926ec794901d17c78024a50270940304540a733656f0d9190a4506001610561565b506000610561565b600054600160a01b900460ff161561092d5760405163d93c066560e01b815260040160405180910390fd5b60606000611060836111ad565b600101905060008167ffffffffffffffff81111561108057611080611683565b6040519080825280601f01601f1916602001820160405280156110aa576020820181803683370190505b5090508181016020015b600019016f181899199a1a9b1b9c1cb0b131b232b360811b600a86061a8153600a85049450846110b457509392505050565b610f7f8133611285565b60006110fc8383610aac565b156110205760008381526001602090815260408083206001600160a01b0386168085529252808320805460ff1916905551339286917ff6391f5c32d9c69d2a47ea670b442974b53935d1edc7fd64eb21e047a839171b9190a4506001610561565b600080546001600160a01b038381166001600160a01b0319831681178455604051919092169283917f8be0079c531659141344cd1fd0a4f28419497f9722a3daafe3b4186f6b6457e09190a35050565b60008072184f03e93ff9f4daa797ed6e38ed64bf6a1f0160401b83106111ec5772184f03e93ff9f4daa797ed6e38ed64bf6a1f0160401b830492506040015b6d04ee2d6d415b85acef81000000008310611218576d04ee2d6d415b85acef8100000000830492506020015b662386f26fc10000831061123657662386f26fc10000830492506010015b6305f5e100831061124e576305f5e100830492506008015b612710831061126257612710830492506004015b60648310611274576064830492506002015b600a83106105615760010192915050565b61128f8282610aac565b6105db5760405163e2517d3f60e01b81526001600160a01b03821660048201526024810183905260440161065e565b610bb98061169a83390190565b6001600160a01b0381168114610f7f57600080fd5b6000806000606084860312156112f557600080fd5b8335611300816112cb565b92506020840135611310816112cb565b929592945050506040919091013590565b60006020828403121561133357600080fd5b81356001600160e01b03198116811461134b57600080fd5b9392505050565b60006020828403121561136457600080fd5b813561134b816112cb565b60008060008060006080868803121561138757600080fd5b8535611392816112cb565b945060208601356113a2816112cb565b935060408601359250606086013567ffffffffffffffff8111156113c557600080fd5b8601601f810188136113d657600080fd5b803567ffffffffffffffff8111156113ed57600080fd5b8860208284010111156113ff57600080fd5b959894975092955050506020019190565b60006020828403121561142257600080fd5b5035919050565b60008060006060848603121561143e57600080fd5b8335611449816112cb565b95602085013595506040909401359392505050565b6000806040838503121561147157600080fd5b823591506020830135611483816112cb565b809150509250929050565b600080604083850312156114a157600080fd5b82356114ac816112cb565b946020939093013593505050565b600080604083850312156114cd57600080fd5b50508035926020909101359150565b6000602082840312156114ee57600080fd5b8151801515811461134b57600080fd5b60005b83811015611519578181015183820152602001611501565b50506000910152565b7f5265616c74794875622070726f7065727479536861726520000000000000000081526000825161155a8160188501602087016114fe565b9190910160180192915050565b6550534841524560d01b8152600082516115888160068501602087016114fe565b9190910160060192915050565b634e487b7160e01b600052601160045260246000fd5b808202811582820484141761056157610561611595565b600081518084526115da8160208601602086016114fe565b601f01601f19169290920160200192915050565b60808152600061160160808301876115c2565b828103602084015261161381876115c2565b604084019590955250506001600160a01b039190911660609091015292915050565b60008261165257634e487b7160e01b600052601260045260246000fd5b500490565b60006020828403121561166957600080fd5b5051919050565b8181038181111561056157610561611595565b634e487b7160e01b600052604160045260246000fdfe608060405234801561001057600080fd5b50604051610bb9380380610bb983398101604081905261002f91610288565b8383600361003d83826103a4565b50600461004a82826103a4565b50505061005d818361006660201b60201c565b50505050610489565b6001600160a01b0382166100955760405163ec442f0560e01b8152600060048201526024015b60405180910390fd5b6100a1600083836100a5565b5050565b6001600160a01b0383166100d05780600260008282546100c59190610462565b909155506101429050565b6001600160a01b038316600090815260208190526040902054818110156101235760405163391434e360e21b81526001600160a01b0385166004820152602481018290526044810183905260640161008c565b6001600160a01b03841660009081526020819052604090209082900390555b6001600160a01b03821661015e5760028054829003905561017d565b6001600160a01b03821660009081526020819052604090208054820190555b816001600160a01b0316836001600160a01b03167fddf252ad1be2c89b69c2b068fc378daa952ba7f163c4a11628f55a4df523b3ef836040516101c291815260200190565b60405180910390a3505050565b634e487b7160e01b600052604160045260246000fd5b600082601f8301126101f657600080fd5b81516001600160401b0381111561020f5761020f6101cf565b604051601f8201601f19908116603f011681016001600160401b038111828210171561023d5761023d6101cf565b60405281815283820160200185101561025557600080fd5b60005b8281101561027457602081860181015183830182015201610258565b506000918101602001919091529392505050565b6000806000806080858703121561029e57600080fd5b84516001600160401b038111156102b457600080fd5b6102c0878288016101e5565b602087015190955090506001600160401b038111156102de57600080fd5b6102ea878288016101e5565b60408701516060880151919550935090506001600160a01b038116811461031057600080fd5b939692955090935050565b600181811c9082168061032f57607f821691505b60208210810361034f57634e487b7160e01b600052602260045260246000fd5b50919050565b601f82111561039f57806000526020600020601f840160051c8101602085101561037c5750805b601f840160051c820191505b8181101561039c5760008155600101610388565b50505b505050565b81516001600160401b038111156103bd576103bd6101cf565b6103d1816103cb845461031b565b84610355565b6020601f82116001811461040557600083156103ed5750848201515b600019600385901b1c1916600184901b17845561039c565b600084815260208120601f198516915b828110156104355787850151825560209485019460019092019101610415565b50848210156104535786840151600019600387901b60f8161c191681555b50505050600190811b01905550565b8082018082111561048357634e487b7160e01b600052601160045260246000fd5b92915050565b610721806104986000396000f3fe608060405234801561001057600080fd5b50600436106100935760003560e01c8063313ce56711610066578063313ce567146100fe57806370a082311461010d57806395d89b4114610136578063a9059cbb1461013e578063dd62ed3e1461015157600080fd5b806306fdde0314610098578063095ea7b3146100b657806318160ddd146100d957806323b872dd146100eb575b600080fd5b6100a061018a565b6040516100ad919061056a565b60405180910390f35b6100c96100c43660046105d4565b61021c565b60405190151581526020016100ad565b6002545b6040519081526020016100ad565b6100c96100f93660046105fe565b610236565b604051601281526020016100ad565b6100dd61011b36600461063b565b6001600160a01b031660009081526020819052604090205490565b6100a061025a565b6100c961014c3660046105d4565b610269565b6100dd61015f36600461065d565b6001600160a01b03918216600090815260016020908152604080832093909416825291909152205490565b60606003805461019990610690565b80601f01602080910402602001604051908101604052809291908181526020018280546101c590610690565b80156102125780601f106101e757610100808354040283529160200191610212565b820191906000526020600020905b8154815290600101906020018083116101f557829003601f168201915b5050505050905090565b60003361022a818585610277565b60019150505b92915050565b600033610244858285610289565b61024f85858561030c565b506001949350505050565b60606004805461019990610690565b60003361022a81858561030c565b610284838383600161036b565b505050565b6001600160a01b03838116600090815260016020908152604080832093861683529290522054600019811461030657818110156102f757604051637dc7a0d960e11b81526001600160a01b038416600482015260248101829052604481018390526064015b60405180910390fd5b6103068484848403600061036b565b50505050565b6001600160a01b03831661033657604051634b637e8f60e11b8152600060048201526024016102ee565b6001600160a01b0382166103605760405163ec442f0560e01b8152600060048201526024016102ee565b610284838383610440565b6001600160a01b0384166103955760405163e602df0560e01b8152600060048201526024016102ee565b6001600160a01b0383166103bf57604051634a1406b160e11b8152600060048201526024016102ee565b6001600160a01b038085166000908152600160209081526040808320938716835292905220829055801561030657826001600160a01b0316846001600160a01b03167f8c5be1e5ebec7d5bd14f71427d1e84f3dd0314c0f7b2291e5b200ac8c7c3b9258460405161043291815260200190565b60405180910390a350505050565b6001600160a01b03831661046b57806002600082825461046091906106ca565b909155506104dd9050565b6001600160a01b038316600090815260208190526040902054818110156104be5760405163391434e360e21b81526001600160a01b038516600482015260248101829052604481018390526064016102ee565b6001600160a01b03841660009081526020819052604090209082900390555b6001600160a01b0382166104f957600280548290039055610518565b6001600160a01b03821660009081526020819052604090208054820190555b816001600160a01b0316836001600160a01b03167fddf252ad1be2c89b69c2b068fc378daa952ba7f163c4a11628f55a4df523b3ef8360405161055d91815260200190565b60405180910390a3505050565b602081526000825180602084015260005b81811015610598576020818601810151604086840101520161057b565b506000604082850101526040601f19601f83011684010191505092915050565b80356001600160a01b03811681146105cf57600080fd5b919050565b600080604083850312156105e757600080fd5b6105f0836105b8565b946020939093013593505050565b60008060006060848603121561061357600080fd5b61061c846105b8565b925061062a602085016105b8565b929592945050506040919091013590565b60006020828403121561064d57600080fd5b610656826105b8565b9392505050565b6000806040838503121561067057600080fd5b610679836105b8565b9150610687602084016105b8565b90509250929050565b600181811c908216806106a457607f821691505b6020821081036106c457634e487b7160e01b600052602260045260246000fd5b50919050565b8082018082111561023057634e487b7160e01b600052601160045260246000fdfea26469706673582212200a501d81fc523e0143c697a02cbd112097f4591a0e47940997d016519fe67f2f64736f6c634300081c0033f94103142c1baabe9ac2b5d1487bf783de9e69cfeea9a72f5c9c94afd7877b8ca26469706673582212208ac1313b5eaa4f1808b286eeac3d2f794684dd0aae62f1e038711c50a71c3bf864736f6c634300081c0033",
  "linkReferences": {},
  "deployedLinkReferences": {}
}