{
  "_format": "hh-sol-artifact-1",
  "contractName": "Marketplace_RealEstate",
  "sourceName": "contracts/Marketplace.sol",
  "abi": [
    {
      "inputs": [],
      "stateMutability": "nonpayable",
      "type": "constructor"
    },
    {
      "inputs": [],
      "name": "AccessControlBadConfirmation",
      "type": "error"
    },
    {
      "inputs": [
        {
          "internalType": "address",
          "name": "account",
          "type": "address"
        },
        {
          "internalType": "bytes32",
          "name": "neededRole",
          "type": "bytes32"
        }
      ],
      "name": "AccessControlUnauthorizedAccount",
      "type": "error"
    },
    {
      "inputs": [],
      "name": "EnforcedPause",
      "type": "error"
    },
    {
      "inputs": [],
      "name": "ExpectedPause",
      "type": "error"
    },
    {
      "inputs": [],
      "name": "InvalidInitialization",
      "type": "error"
    },
    {
      "inputs": [],
      "name": "NotInitializing",
      "type": "error"
    },
    {
      "inputs": [
        {
          "internalType": "address",
          "name": "owner",
          "type": "address"
        }
      ],
      "name": "OwnableInvalidOwner",
      "type": "error"
    },
    {
      "inputs": [
        {
          "internalType": "address",
          "name": "account",
          "type": "address"
        }
      ],
      "name": "OwnableUnauthorizedAccount",
      "type": "error"
    },
    {
      "inputs": [],
      "name": "ReentrancyGuardReentrantCall",
      "type": "error"
    },
    {
      "anonymous": false,
      "inputs": [
        {
          "indexed": false,
          "internalType": "uint256",
          "name": "tokenId",
          "type": "uint256"
        },
        {
          "indexed": true,
          "internalType": "address",
          "name": "seller",
          "type": "address"
        },
        {
          "indexed": true,
          "internalType": "address",
          "name": "bidder",
          "type": "address"
        },
        {
          "indexed": false,
          "internalType": "uint256",
          "name": "amount",
          "type": "uint256"
        }
      ],
      "name": "BidAccepted",
      "type": "event"
    },
    {
      "anonymous": false,
      "inputs": [
        {
          "indexed": false,
          "internalType": "uint256",
          "name": "tokenId",
          "type": "uint256"
        },
        {
          "indexed": true,
          "internalType": "address",
          "name": "bidder",
          "type": "address"
        },
        {
          "indexed": false,
          "internalType": "uint256",
          "name": "amount",
          "type": "uint256"
        }
      ],
      "name": "BidPlaced",
      "type": "event"
    },
    {
      "anonymous": false,
      "inputs": [
        {
          "indexed": false,
          "internalType": "uint256",
          "name": "tokenId",
          "type": "uint256"
        },
        {
          "indexed": true,
          "internalType": "address",
          "name": "seller",
          "type": "address"
        },
        {
          "indexed": true,
          "internalType": "address",
          "name": "bidder",
          "type": "address"
        },
        {
          "indexed": false,
          "internalType": "uint256",
          "name": "amount",
          "type": "uint256"
        }
      ],
      "name": "BidRejected",
      "type": "event"
    },
    {
      "anonymous": false,
      "inputs": [
        {
          "indexed": false,
          "internalType": "uint256",
          "name": "tokenId",
          "type": "uint256"
        },
        {
          "indexed": true,
          "internalType": "address",
          "name": "bidder",
          "type": "address"
        },
        {
          "indexed": false,
          "internalType": "uint256",
          "name": "amount",
          "type": "uint256"
        }
      ],
      "name": "BidWithdrawn",
      "type": "event"
    },
    {
      "anonymous": false,
      "inputs": [
        {
          "indexed": true,
          "internalType": "address",
          "name": "buyer",
          "type": "address"
        },
        {
          "indexed": false,
          "internalType": "uint256",
          "name": "tokenId",
          "type": "uint256"
        },
        {
          "indexed": false,
          "internalType": "uint256",
          "name": "price",
          "type": "uint256"
        }
      ],
      "name": "BuyProperty",
      "type": "event"
    },
    {
      "anonymous": false,
      "inputs": [
        {
          "indexed": true,
          "internalType": "address",
          "name": "seller",
          "type": "address"
        },
        {
          "indexed": false,
          "internalType": "uint256",
          "name": "tokenId",
          "type": "uint256"
        }
      ],
      "name": "CancelSelling",
      "type": "event"
    },
    {
      "anonymous": false,
      "inputs": [
        {
          "indexed": false,
          "internalType": "uint64",
          "name": "version",
          "type": "uint64"
        }
      ],
      "name": "Initialized",
      "type": "event"
    },
    {
      "anonymous": false,
      "inputs": [
        {
          "indexed": true,
          "internalType": "address",
          "name": "previousOwner",
          "type": "address"
        },
        {
          "indexed": true,
          "internalType": "address",
          "name": "newOwner",
          "type": "address"
        }
      ],
      "name": "OwnershipTransferred",
      "type": "event"
    },
    {
      "anonymous": false,
      "inputs": [
        {
          "indexed": false,
          "internalType": "address",
          "name": "account",
          "type": "address"
        }
      ],
      "name": "Paused",
      "type": "event"
    },
    {
      "anonymous": false,
      "inputs": [
        {
          "indexed": true,
          "internalType": "address",
          "name": "buyer",
          "type": "address"
        },
        {
          "indexed": false,
          "internalType": "uint256",
          "name": "tokenId",
          "type": "uint256"
        },
        {
          "indexed": false,
          "internalType": "uint256",
          "name": "_montlyAmount",
          "type": "uint256"
        },
        {
          "indexed": false,
          "internalType": "uint256",
          "name": "_remainingAmount",
          "type": "uint256"
        }
      ],
      "name": "PaymentMade",
      "type": "event"
    },
    {
      "anonymous": false,
      "inputs": [
        {
          "indexed": true,
          "internalType": "address",
          "name": "seller",
          "type": "address"
        },
        {
          "indexed": false,
          "internalType": "uint256",
          "name": "tokenId",
          "type": "uint256"
        },
        {
          "indexed": false,
          "internalType": "uint256",
          "name": "price",
          "type": "uint256"
        }
      ],
      "name": "PriceUpdated",
      "type": "event"
    },
    {
      "anonymous": false,
      "inputs": [
        {
          "indexed": true,
          "internalType": "address",
          "name": "seller",
          "type": "address"
        },
        {
          "indexed": false,
          "internalType": "uint256",
          "name": "tokenId",
          "type": "uint256"
        },
        {
          "indexed": false,
          "internalType": "uint256",
          "name": "price",
          "type": "uint256"
        },
        {
          "indexed": false,
          "internalType": "bool",
          "name": "canBid",
          "type": "bool"
        }
      ],
      "name": "PropertyListed",
      "type": "event"
    },
    {
      "anonymous": false,
      "inputs": [
        {
          "indexed": true,
          "internalType": "bytes32",
          "name": "role",
          "type": "bytes32"
        },
        {
          "indexed": true,
          "internalType": "bytes32",
          "name": "previousAdminRole",
          "type": "bytes32"
        },
        {
          "indexed": true,
          "internalType": "bytes32",
          "name": "newAdminRole",
          "type": "bytes32"
        }
      ],
      "name": "RoleAdminChanged",
      "type": "event"
    },
    {
      "anonymous": false,
      "inputs": [
        {
          "indexed": true,
          "internalType": "bytes32",
          "name": "role",
          "type": "bytes32"
        },
        {
          "indexed": true,
          "internalType": "address",
          "name": "account",
          "type": "address"
        },
        {
          "indexed": true,
          "internalType": "address",
          "name": "sender",
          "type": "address"
        }
      ],
      "name": "RoleGranted",
      "type": "event"
    },
    {
      "anonymous": false,
      "inputs": [
        {
          "indexed": true,
          "internalType": "bytes32",
          "name": "role",
          "type": "bytes32"
        },
        {
          "indexed": true,
          "internalType": "address",
          "name": "account",
          "type": "address"
        },
        {
          "indexed": true,
          "internalType": "address",
          "name": "sender",
          "type": "address"
        }
      ],
      "name": "RoleRevoked",
      "type": "event"
    },
    {
      "anonymous": false,
      "inputs": [
        {
          "indexed": false,
          "internalType": "address",
          "name": "account",
          "type": "address"
        }
      ],
      "name": "Unpaused",
      "type": "event"
    },
    {
      "inputs": [],
      "name": "BUSDtoken",
      "outputs": [
        {
          "internalType": "contract IERC20",
          "name": "",
          "type": "address"
        }
      ],
      "stateMutability": "view",
      "type": "function"
    },
    {
      "inputs": [],
      "name": "DEFAULT_ADMIN_ROLE",
      "outputs": [
        {
          "internalType": "bytes32",
          "name": "",
          "type": "bytes32"
        }
      ],
      "stateMutability": "view",
      "type": "function"
    },
    {
      "inputs": [],
      "name": "LISTER_ROLE",
      "outputs": [
        {
          "internalType": "bytes32",
          "name": "",
          "type": "bytes32"
        }
      ],
      "stateMutability": "view",
      "type": "function"
    },
    {
      "inputs": [
        {
          "internalType": "uint256",
          "name": "_tokenId",
          "type": "uint256"
        }
      ],
      "name": "acceptBid",
      "outputs": [],
      "stateMutability": "nonpayable",
      "type": "function"
    },
    {
      "inputs": [
        {
          "internalType": "uint256",
          "name": "_tokenId",
          "type": "uint256"
        },
        {
          "internalType": "uint256",
          "name": "_price",
          "type": "uint256"
        }
      ],
      "name": "buyProperty",
      "outputs": [],
      "stateMutability": "nonpayable",
      "type": "function"
    },
    {
      "inputs": [
        {
          "internalType": "uint256",
          "name": "_tokenId",
          "type": "uint256"
        },
        {
          "internalType": "uint256",
          "name": "_price",
          "type": "uint256"
        }
      ],
      "name": "buyWithInstallment",
      "outputs": [],
      "stateMutability": "nonpayable",
      "type": "function"
    },
    {
      "inputs": [
        {
          "internalType": "uint256",
          "name": "_tokenId",
          "type": "uint256"
        }
      ],
      "name": "cancelSelling",
      "outputs": [],
      "stateMutability": "nonpayable",
      "type": "function"
    },
    {
      "inputs": [
        {
          "internalType": "address",
          "name": "lister",
          "type": "address"
        },
        {
          "internalType": "uint256",
          "name": "_tokenId",
          "type": "uint256"
        },
        {
          "internalType": "uint256",
          "name": "_price",
          "type": "uint256"
        },
        {
          "internalType": "bool",
          "name": "_canBid",
          "type": "bool"
        }
      ],
      "name": "createProperty",
      "outputs": [],
      "stateMutability": "nonpayable",
      "type": "function"
    },
    {
      "inputs": [
        {
          "internalType": "uint256[]",
          "name": "_tokenId",
          "type": "uint256[]"
        }
      ],
      "name": "getBatchMarketItem",
      "outputs": [
        {
          "components": [
            {
              "internalType": "address",
              "name": "seller",
              "type": "address"
            },
            {
              "internalType": "address",
              "name": "buyer",
              "type": "address"
            },
            {
              "internalType": "uint256",
              "name": "price",
              "type": "uint256"
            },
            {
              "internalType": "uint256",
              "name": "timeListed",
              "type": "uint256"
            },
            {
              "internalType": "bool",
              "name": "canBid",
              "type": "bool"
            },
            {
              "internalType": "address",
              "name": "highestBidder",
              "type": "address"
            },
            {
              "internalType": "uint256",
              "name": "highestBid",
              "type": "uint256"
            }
          ],
          "internalType": "struct Marketplace_RealEstate.MarketItem[]",
          "name": "",
          "type": "tuple[]"
        }
      ],
      "stateMutability": "view",
      "type": "function"
    },
    {
      "inputs": [
        {
          "internalType": "uint256",
          "name": "_tokenId",
          "type": "uint256"
        }
      ],
      "name": "getDownPayment",
      "outputs": [
        {
          "internalType": "uint256",
          "name": "",
          "type": "uint256"
        }
      ],
      "stateMutability": "view",
      "type": "function"
    },
    {
      "inputs": [
        {
          "internalType": "uint256",
          "name": "_tokenId",
          "type": "uint256"
        }
      ],
      "name": "getMarketItem",
      "outputs": [
        {
          "components": [
            {
              "internalType": "address",
              "name": "seller",
              "type": "address"
            },
            {
              "internalType": "address",
              "name": "buyer",
              "type": "address"
            },
            {
              "internalType": "uint256",
              "name": "price",
              "type": "uint256"
            },
            {
              "internalType": "uint256",
              "name": "timeListed",
              "type": "uint256"
            },
            {
              "internalType": "bool",
              "name": "canBid",
              "type": "bool"
            },
            {
              "internalType": "address",
              "name": "highestBidder",
              "type": "address"
            },
            {
              "internalType": "uint256",
              "name": "highestBid",
              "type": "uint256"
            }
          ],
          "internalType": "struct Marketplace_RealEstate.MarketItem",
          "name": "",
          "type": "tuple"
        }
      ],
      "stateMutability": "view",
      "type": "function"
    },
    {
      "inputs": [
        {
          "internalType": "uint256",
          "name": "_tokenId",
          "type": "uint256"
        }
      ],
      "name": "getMonthlyPayment",
      "outputs": [
        {
          "internalType": "uint256",
          "name": "",
          "type": "uint256"
        }
      ],
      "stateMutability": "view",
      "type": "function"
    },
    {
      "inputs": [
        {
          "internalType": "bytes32",
          "name": "role",
          "type": "bytes32"
        }
      ],
      "name": "getRoleAdmin",
      "outputs": [
        {
          "internalType": "bytes32",
          "name": "",
          "type": "bytes32"
        }
      ],
      "stateMutability": "view",
      "type": "function"
    },
    {
      "inputs": [
        {
          "internalType": "address",
          "name": "_minter",
          "type": "address"
        }
      ],
      "name": "grantListerRole",
      "outputs": [],
      "stateMutability": "nonpayable",
      "type": "function"
    },
    {
      "inputs": [
        {
          "internalType": "bytes32",
          "name": "role",
          "type": "bytes32"
        },
        {
          "internalType": "address",
          "name": "account",
          "type": "address"
        }
      ],
      "name": "grantRole",
      "outputs": [],
      "stateMutability": "nonpayable",
      "type": "function"
    },
    {
      "inputs": [
        {
          "internalType": "bytes32",
          "name": "role",
          "type": "bytes32"
        },
        {
          "internalType": "address",
          "name": "account",
          "type": "address"
        }
      ],
      "name": "hasRole",
      "outputs": [
        {
          "internalType": "bool",
          "name": "",
          "type": "bool"
        }
      ],
      "stateMutability": "view",
      "type": "function"
    },
    {
      "inputs": [],
      "name": "initialize",
      "outputs": [],
      "stateMutability": "nonpayable",
      "type": "function"
    },
    {
      "inputs": [
        {
          "internalType": "uint256",
          "name": "",
          "type": "uint256"
        }
      ],
      "name": "installment",
      "outputs": [
        {
          "internalType": "uint256",
          "name": "downPayment",
          "type": "uint256"
        },
        {
          "internalType": "uint256",
          "name": "monthlyAmount",
          "type": "uint256"
        },
        {
          "internalType": "uint256",
          "name": "remainingAmount",
          "type": "uint256"
        },
        {
          "internalType": "uint256",
          "name": "paidAmount",
          "type": "uint256"
        },
        {
          "internalType": "uint256",
          "name": "paymentDeadline",
          "type": "uint256"
        }
      ],
      "stateMutability": "view",
      "type": "function"
    },
    {
      "inputs": [],
      "name": "isTax",
      "outputs": [
        {
          "internalType": "bool",
          "name": "",
          "type": "bool"
        }
      ],
      "stateMutability": "view",
      "type": "function"
    },
    {
      "inputs": [
        {
          "internalType": "uint256",
          "name": "",
          "type": "uint256"
        }
      ],
      "name": "items",
      "outputs": [
        {
          "internalType": "address",
          "name": "seller",
          "type": "address"
        },
        {
          "internalType": "address",
          "name": "buyer",
          "type": "address"
        },
        {
          "internalType": "uint256",
          "name": "price",
          "type": "uint256"
        },
        {
          "internalType": "uint256",
          "name": "timeListed",
          "type": "uint256"
        },
        {
          "internalType": "bool",
          "name": "canBid",
          "type": "bool"
        },
        {
          "internalType": "address",
          "name": "highestBidder",
          "type": "address"
        },
        {
          "internalType": "uint256",
          "name": "highestBid",
          "type": "uint256"
        }
      ],
      "stateMutability": "view",
      "type": "function"
    },
    {
      "inputs": [
        {
          "internalType": "uint256",
          "name": "_tokenId",
          "type": "uint256"
        },
        {
          "internalType": "uint256",
          "name": "_price",
          "type": "uint256"
        },
        {
          "internalType": "bool",
          "name": "_canBid",
          "type": "bool"
        }
      ],
      "name": "listProperty",
      "outputs": [],
      "stateMutability": "nonpayable",
      "type": "function"
    },
    {
      "inputs": [
        {
          "internalType": "uint256",
          "name": "_tokenId",
          "type": "uint256"
        }
      ],
      "name": "makePayment",
      "outputs": [],
      "stateMutability": "nonpayable",
      "type": "function"
    },
    {
      "inputs": [
        {
          "internalType": "address",
          "name": "operator",
          "type": "address"
        },
        {
          "internalType": "address",
          "name": "from",
          "type": "address"
        },
        {
          "internalType": "uint256",
          "name": "tokenId",
          "type": "uint256"
        },
        {
          "internalType": "bytes",
          "name": "data",
          "type": "bytes"
        }
      ],
      "name": "onERC721Received",
      "outputs": [
        {
          "internalType": "bytes4",
          "name": "",
          "type": "bytes4"
        }
      ],
      "stateMutability": "nonpayable",
      "type": "function"
    },
    {
      "inputs": [],
      "name": "owner",
      "outputs": [
        {
          "internalType": "address",
          "name": "",
          "type": "address"
        }
      ],
      "stateMutability": "view",
      "type": "function"
    },
    {
      "inputs": [],
      "name": "paused",
      "outputs": [
        {
          "internalType": "bool",
          "name": "",
          "type": "bool"
        }
      ],
      "stateMutability": "view",
      "type": "function"
    },
    {
      "inputs": [],
      "name": "percentage_downPayment",
      "outputs": [
        {
          "internalType": "uint256",
          "name": "",
          "type": "uint256"
        }
      ],
      "stateMutability": "view",
      "type": "function"
    },
    {
      "inputs": [],
      "name": "periodInMonth",
      "outputs": [
        {
          "internalType": "uint256",
          "name": "",
          "type": "uint256"
        }
      ],
      "stateMutability": "view",
      "type": "function"
    },
    {
      "inputs": [
        {
          "internalType": "uint256",
          "name": "_tokenId",
          "type": "uint256"
        },
        {
          "internalType": "uint256",
          "name": "bidAmount",
          "type": "uint256"
        }
      ],
      "name": "placeBid",
      "outputs": [],
      "stateMutability": "nonpayable",
      "type": "function"
    },
    {
      "inputs": [],
      "name": "propertyNFT",
      "outputs": [
        {
          "internalType": "contract IERC721",
          "name": "",
          "type": "address"
        }
      ],
      "stateMutability": "view",
      "type": "function"
    },
    {
      "inputs": [
        {
          "internalType": "uint256",
          "name": "_tokenId",
          "type": "uint256"
        }
      ],
      "name": "rejectBid",
      "outputs": [],
      "stateMutability": "nonpayable",
      "type": "function"
    },
    {
      "inputs": [],
      "name": "renounceOwnership",
      "outputs": [],
      "stateMutability": "nonpayable",
      "type": "function"
    },
    {
      "inputs": [
        {
          "internalType": "bytes32",
          "name": "role",
          "type": "bytes32"
        },
        {
          "internalType": "address",
          "name": "callerConfirmation",
          "type": "address"
        }
      ],
      "name": "renounceRole",
      "outputs": [],
      "stateMutability": "nonpayable",
      "type": "function"
    },
    {
      "inputs": [
        {
          "internalType": "bytes32",
          "name": "role",
          "type": "bytes32"
        },
        {
          "internalType": "address",
          "name": "account",
          "type": "address"
        }
      ],
      "name": "revokeRole",
      "outputs": [],
      "stateMutability": "nonpayable",
      "type": "function"
    },
    {
      "inputs": [
        {
          "internalType": "contract IERC20",
          "name": "_token",
          "type": "address"
        }
      ],
      "name": "setBUSDToken",
      "outputs": [],
      "stateMutability": "nonpayable",
      "type": "function"
    },
    {
      "inputs": [
        {
          "internalType": "bool",
          "name": "_on",
          "type": "bool"
        }
      ],
      "name": "setIsTax",
      "outputs": [],
      "stateMutability": "nonpayable",
      "type": "function"
    },
    {
      "inputs": [
        {
          "internalType": "uint256",
          "name": "_percent",
          "type": "uint256"
        }
      ],
      "name": "setPercentage_downPayment",
      "outputs": [],
      "stateMutability": "nonpayable",
      "type": "function"
    },
    {
      "inputs": [
        {
          "internalType": "uint256",
          "name": "_months",
          "type": "uint256"
        }
      ],
      "name": "setPeriodInMonth",
      "outputs": [],
      "stateMutability": "nonpayable",
      "type": "function"
    },
    {
      "inputs": [
        {
          "internalType": "address",
          "name": "_nftAddress",
          "type": "address"
        }
      ],
      "name": "setPopertyNFT",
      "outputs": [],
      "stateMutability": "nonpayable",
      "type": "function"
    },
    {
      "inputs": [
        {
          "internalType": "uint256",
          "name": "_taxFees",
          "type": "uint256"
        }
      ],
      "name": "setTaxFees",
      "outputs": [],
      "stateMutability": "nonpayable",
      "type": "function"
    },
    {
      "inputs": [
        {
          "internalType": "address",
          "name": "_taxReceiver",
          "type": "address"
        }
      ],
      "name": "setTaxReceiver",
      "outputs": [],
      "stateMutability": "nonpayable",
      "type": "function"
    },
    {
      "inputs": [
        {
          "internalType": "bytes4",
          "name": "interfaceId",
          "type": "bytes4"
        }
      ],
      "name": "supportsInterface",
      "outputs": [
        {
          "internalType": "bool",
          "name": "",
          "type": "bool"
        }
      ],
      "stateMutability": "view",
      "type": "function"
    },
    {
      "inputs": [],
      "name": "taxFees",
      "outputs": [
        {
          "internalType": "uint256",
          "name": "",
          "type": "uint256"
        }
      ],
      "stateMutability": "view",
      "type": "function"
    },
    {
      "inputs": [],
      "name": "taxReceiver",
      "outputs": [
        {
          "internalType": "address",
          "name": "",
          "type": "address"
        }
      ],
      "stateMutability": "view",
      "type": "function"
    },
    {
      "inputs": [
        {
          "internalType": "address",
          "name": "newOwner",
          "type": "address"
        }
      ],
      "name": "transferOwnership",
      "outputs": [],
      "stateMutability": "nonpayable",
      "type": "function"
    },
    {
      "inputs": [
        {
          "internalType": "uint256",
          "name": "_tokenId",
          "type": "uint256"
        },
        {
          "internalType": "uint256",
          "name": "_price",
          "type": "uint256"
        }
      ],
      "name": "updatePrice",
      "outputs": [],
      "stateMutability": "nonpayable",
      "type": "function"
    },
    {
      "inputs": [
        {
          "internalType": "address",
          "name": "to",
          "type": "address"
        },
        {
          "internalType": "uint256",
          "name": "amount",
          "type": "uint256"
        }
      ],
      "name": "withdrawBUSD",
      "outputs": [],
      "stateMutability": "nonpayable",
      "type": "function"
    },
    {
      "inputs": [
        {
          "internalType": "uint256",
          "name": "_tokenId",
          "type": "uint256"
        }
      ],
      "name": "withdrawBid",
      "outputs": [],
      "stateMutability": "nonpayable",
      "type": "function"
    },
    {
      "inputs": [
        {
          "internalType": "address",
          "name": "to",
          "type": "address"
        },
        {
          "internalType": "uint256",
          "name": "_tokenId",
          "type": "uint256"
        }
      ],
      "name": "withdrawNFT",
      "outputs": [],
      "stateMutability": "nonpayable",
      "type": "function"
    }
  ],
  "bytecode": "0x6080604052348015600f57600080fd5b503380603557604051631e4fbdf760e01b81526000600482015260240160405180910390fd5b603c81604f565b50600180556002805460ff19169055609f565b600080546001600160a01b038381166001600160a01b0319831681178455604051919092169283917f8be0079c531659141344cd1fd0a4f28419497f9722a3daafe3b4186f6b6457e09190a35050565b613c54806100ae6000396000f3fe608060405234801561001057600080fd5b50600436106102a05760003560e01c80636e3341b311610167578063b42c7f5c116100ce578063deb26b9411610087578063deb26b941461078b578063e2f23d99146107a0578063e6ef73d6146107b3578063e8ef4234146107c6578063f2241738146107d9578063f2fde38b146107ec57600080fd5b8063b42c7f5c146105d3578063bfb231d2146105e6578063c1e5492014610687578063c7be7a491461069a578063cd8de42c14610765578063d547741f1461077857600080fd5b806382367b2d1161012057806382367b2d1461056e5780638d5a29c5146105815780638da5cb5b1461059457806391d14854146105a5578063a217fddf146105b8578063a772c927146105c057600080fd5b80636e3341b3146104ca578063715018a6146104dd578063781ec44d146104e55780637865405c146104ee5780637a26d230146105535780638129fc1c1461056657600080fd5b806336568abe1161020b57806352f1a42e116101c457806352f1a42e1461045357806357c90de5146104735780635c975abb146104865780636088e93a1461049157806368aa21ac146104a45780636c20f3b1146104b757600080fd5b806336568abe146103d357806337f76838146103e65780633f598eaa1461041157806343886f3d1461041a5780634766aed01461042d5780635114cb521461044057600080fd5b80631de70ebd1161025d5780631de70ebd146103575780631f29b9d514610364578063248a9ca3146103775780632b1fd58a1461039a5780632f2ff15d146103ad5780632f33df60146103c057600080fd5b806301ffc9a7146102a557806302ce32ce146102cd5780630ddc0976146102e25780630eaaf4c8146102f9578063150b7a021461030c57806318c9323e14610344575b600080fd5b6102b86102b3366004613708565b6107ff565b60405190151581526020015b60405180910390f35b6102e06102db36600461374e565b610836565b005b6102eb60075481565b6040519081526020016102c4565b6102e061030736600461376b565b610860565b61032b61031a366004613784565b630a85bd0160e11b95945050505050565b6040516001600160e01b031990911681526020016102c4565b6102e061035236600461374e565b610aae565b6008546102b89060ff1681565b6102e061037236600461374e565b610ad8565b6102eb61038536600461376b565b60009081526003602052604090206001015490565b6102e06103a836600461376b565b610afc565b6102e06103bb366004613825565b610f12565b6102e06103ce36600461376b565b610f3d565b6102e06103e1366004613825565b6111b8565b6004546103f9906001600160a01b031681565b6040516001600160a01b0390911681526020016102c4565b6102eb600a5481565b6102e0610428366004613855565b6111f0565b6102e061043b366004613885565b6117f7565b6102e061044e36600461376b565b611b49565b6104666104613660046138d4565b611f44565b6040516102c491906139f4565b6102e0610481366004613855565b61209c565b60025460ff166102b8565b6102e061049f366004613a42565b6123cb565b6102eb6104b236600461376b565b61243c565b6102e06104c536600461376b565b6124d0565b6102e06104d836600461376b565b6124dd565b6102e061279e565b6102eb60095481565b61052b6104fc36600461376b565b600c60205260009081526040902080546001820154600283015460038401546004909401549293919290919085565b604080519586526020860194909452928401919091526060830152608082015260a0016102c4565b6102e061056136600461376b565b6127b2565b6102e06127bf565b6102e061057c366004613855565b61295c565b6102e061058f366004613a6e565b612b88565b6000546001600160a01b03166103f9565b6102b86105b3366004613825565b612d1e565b6102eb600081565b6102e06105ce366004613855565b612d49565b6006546103f9906001600160a01b031681565b6106416105f436600461376b565b600b602052600090815260409020805460018201546002830154600384015460048501546005909501546001600160a01b0394851695938516949293919260ff8316926101009004169087565b604080516001600160a01b039889168152968816602088015286019490945260608501929092521515608084015290921660a082015260c081019190915260e0016102c4565b6102e061069536600461376b565b613322565b6107586106a836600461376b565b6040805160e081018252600080825260208201819052918101829052606081018290526080810182905260a0810182905260c0810191909152506000908152600b6020908152604091829020825160e08101845281546001600160a01b039081168252600183015481169382019390935260028201549381019390935260038101546060840152600481015460ff811615156080850152610100900490911660a08301526005015460c082015290565b6040516102c49190613ab8565b6102e061077336600461374e565b61332f565b6102e0610786366004613825565b613359565b6102eb600080516020613bff83398151915281565b6102e06107ae366004613ac6565b61337e565b6005546103f9906001600160a01b031681565b6102eb6107d436600461376b565b613399565b6102e06107e7366004613a42565b61344f565b6102e06107fa36600461374e565b6134cc565b60006001600160e01b03198216637965db0b60e01b148061083057506301ffc9a760e01b6001600160e01b03198316145b92915050565b61083e613507565b600680546001600160a01b0319166001600160a01b0392909216919091179055565b610868613534565b6000818152600b6020526040902060018101546001600160a01b0316156108e25760405162461bcd60e51b8152602060048201526024808201527f77697468647261774269643a2050726f706572747920616c726561647920626f6044820152631d59da1d60e21b60648201526084015b60405180910390fd5b600481015460ff166109485760405162461bcd60e51b815260206004820152602960248201527f77697468647261774269643a20596f752063616e6e6f7420626964206f6e20746044820152683434b9903a37b5b2b760b91b60648201526084016108d9565b600481015461010090046001600160a01b031633146109bd5760405162461bcd60e51b815260206004820152602b60248201527f77697468647261774269643a20596f7520617265206e6f74207468652068696760448201526a3432b9ba103134b23232b960a91b60648201526084016108d9565b600654600480830154600584015460405163a9059cbb60e01b81526001600160a01b039485169463a9059cbb946109fe946101009004909116929101613ae3565b6020604051808303816000875af1158015610a1d573d6000803e3d6000fd5b505050506040513d601f19601f82011682018060405250810190610a419190613afc565b506000828152600b60209081526040808320600481018054610100600160a81b03191690556005908101939093559183015482518581529182015233917f8f8619524e8d462cead34604bd2247ede24175801481e4d0b8059ac8aa41c30191015b60405180910390a25050565b610ab6613507565b600480546001600160a01b0319166001600160a01b0392909216919091179055565b610ae0613507565b610af8600080516020613bff83398151915282613558565b5050565b610b04613534565b6000818152600b6020526040902060018101546001600160a01b031615610b785760405162461bcd60e51b815260206004820152602260248201527f6163636570744269643a2050726f706572747920616c726561647920626f75676044820152611a1d60f21b60648201526084016108d9565b600481015460ff16610bdc5760405162461bcd60e51b815260206004820152602760248201527f6163636570744269643a20596f752063616e6e6f7420626964206f6e2074686960448201526639903a37b5b2b760c91b60648201526084016108d9565b600481015461010090046001600160a01b0316610c3b5760405162461bcd60e51b815260206004820152601c60248201527f6163636570744269643a204e6f206269647320746f206163636570740000000060448201526064016108d9565b80546001600160a01b03163314610cbc576040805162461bcd60e51b81526020600482015260248101919091527f6163636570744269643a20596f752061667265206e6f7420746865206f776e6560448201527f72206f662074686973204e4654206f6e20746865206d61726b6574706c61636560648201526084016108d9565b60048054828201546040516323b872dd60e01b81526001600160a01b03928316936323b872dd93610cfb93309361010090910490911691889101613b19565b600060405180830381600087803b158015610d1557600080fd5b505af1158015610d29573d6000803e3d6000fd5b50506008805460ff191660011790555050600060646007548360050154610d509190613b53565b610d5a9190613b6a565b90506000818360050154610d6e9190613b8c565b60065460055460405163a9059cbb60e01b81529293506001600160a01b039182169263a9059cbb92610da69216908690600401613ae3565b6020604051808303816000875af1158015610dc5573d6000803e3d6000fd5b505050506040513d601f19601f82011682018060405250810190610de99190613afc565b5060065460405163a9059cbb60e01b81526001600160a01b039091169063a9059cbb90610e1c9033908590600401613ae3565b6020604051808303816000875af1158015610e3b573d6000803e3d6000fd5b505050506040513d601f19601f82011682018060405250810190610e5f9190613afc565b5050506000828152600b602052604080822080546001600160a01b0319908116825560018201805490911690556002810183905560038101839055600480820180546001600160a81b0319169055600591820193909355918301549183015490516101009092046001600160a01b03169133917fe6d56779a392535d3a591e92b65ba36f2ecc424bbf5220d0176a7da29385b50491610f0691878252602082015260400190565b60405180910390a35050565b600082815260036020526040902060010154610f2d816135ec565b610f378383613558565b50505050565b610f45613534565b6000818152600b6020526040902080546001600160a01b03163314610fc85760405162461bcd60e51b815260206004820152603360248201527f63616e63656c53656c6c696e673a20596f7520646f6e2774206f776e207468696044820152721cc81b999d081a5b881d1a194813585c9ad95d606a1b60648201526084016108d9565b60018101546001600160a01b0316156110325760405162461bcd60e51b815260206004820152602660248201527f63616e63656c53656c6c696e673a2050726f706572747920616c726561647920604482015265189bdd59da1d60d21b60648201526084016108d9565b600481015461010090046001600160a01b0316156110d057600654600480830154600584015460405163a9059cbb60e01b81526001600160a01b039485169463a9059cbb9461108b946101009004909116929101613ae3565b6020604051808303816000875af11580156110aa573d6000803e3d6000fd5b505050506040513d601f19601f820116820180604052508101906110ce9190613afc565b505b600480546040516323b872dd60e01b81526001600160a01b03909116916323b872dd916111039130913391889101613b19565b600060405180830381600087803b15801561111d57600080fd5b505af1158015611131573d6000803e3d6000fd5b5050506000838152600b602052604080822080546001600160a01b03199081168255600182018054909116905560028101839055600381018390556004810180546001600160a81b031916905560050191909155513391507ff2c2a87e9062cbb4cd7d542f259d5eb39fdc7bdf9789a20d96e24249d83197e090610aa29085815260200190565b6001600160a01b03811633146111e15760405163334bd91960e11b815260040160405180910390fd5b6111eb82826135f6565b505050565b6111f8613534565b6000828152600b60205260408120600a54600282015491929160649161121d91613b53565b6112279190613b6a565b60018301549091506001600160a01b0316156112995760405162461bcd60e51b815260206004820152602b60248201527f62757957697468496e7374616c6c6d656e743a2050726f706572747920616c7260448201526a1958591e48189bdd59da1d60aa1b60648201526084016108d9565b828260020154146112ec5760405162461bcd60e51b815260206004820152601f60248201527f62757957697468496e7374616c6c6d656e743a2057726f6e672070726963650060448201526064016108d9565b81546001600160a01b03166113625760405162461bcd60e51b815260206004820152603660248201527f62757957697468496e7374616c6c6d656e743a204974656d206e6f74206c6973604482015275746564206f6e20746865206d61726b6574706c61636560501b60648201526084016108d9565b8154336001600160a01b03909116036113e35760405162461bcd60e51b815260206004820152603960248201527f62757957697468496e7374616c6c6d656e743a20596f752063616e6e6f74206260448201527f75792061206974656d207468617420796f75206c69737465640000000000000060648201526084016108d9565b6006546040516370a0823160e01b815233600482015282916001600160a01b0316906370a0823190602401602060405180830381865afa15801561142b573d6000803e3d6000fd5b505050506040513d601f19601f8201168201806040525081019061144f9190613b9f565b10156114b45760405162461bcd60e51b815260206004820152602e60248201527f6d616b655061796d656e743a20596f75722074425553442062616c616e63652060448201526d1a5cc81a5b9cdd59999a58d95b9d60921b60648201526084016108d9565b60085460ff16156115eb5760006064600754836114d19190613b53565b6114db9190613b6a565b905060006114e98284613b8c565b6006546005546040516323b872dd60e01b81529293506001600160a01b03918216926323b872dd926115249233929116908790600401613b19565b6020604051808303816000875af1158015611543573d6000803e3d6000fd5b505050506040513d601f19601f820116820180604052508101906115679190613afc565b5060065484546040516323b872dd60e01b81526001600160a01b03928316926323b872dd926115a0923392909116908690600401613b19565b6020604051808303816000875af11580156115bf573d6000803e3d6000fd5b505050506040513d601f19601f820116820180604052508101906115e39190613afc565b505050611668565b60065482546040516323b872dd60e01b81526001600160a01b03928316926323b872dd92611623923392909116908690600401613b19565b6020604051808303816000875af1158015611642573d6000803e3d6000fd5b505050506040513d601f19601f820116820180604052508101906116669190613afc565b505b600482015461010090046001600160a01b03161561170657600654600480840154600585015460405163a9059cbb60e01b81526001600160a01b039485169463a9059cbb946116c1946101009004909116929101613ae3565b6020604051808303816000875af11580156116e0573d6000803e3d6000fd5b505050506040513d601f19601f820116820180604052508101906117049190613afc565b505b6000848152600b6020908152604080832060010180546001600160a01b03191633179055600c9091529020818155600301819055600282015461174a908290613b8c565b6000858152600c6020526040902060029081019190915560095490830154611773908390613b8c565b61177d9190613b6a565b6000858152600c602052604090206001015561179c426234bc00613bb8565b6000858152600c602090815260409182902060040192909255600284015481518781529283015233917f75decf89a96d485b07819128c69cca58057a61ec52a8ec4b406b16e9e0c701a491015b60405180910390a250505050565b6117ff613534565b600660009054906101000a90046001600160a01b03166001600160a01b03166318160ddd6040518163ffffffff1660e01b8152600401602060405180830381865afa158015611852573d6000803e3d6000fd5b505050506040513d601f19601f820116820180604052508101906118769190613b9f565b82106118ea5760405162461bcd60e51b815260206004820152603760248201527f6c69737450726f70657274793a205468652070726963652063616e6e6f74206560448201527f7863656564204255534420746f74616c20737570706c7900000000000000000060648201526084016108d9565b600480546040516331a9108f60e11b815291820185905233916001600160a01b0390911690636352211e90602401602060405180830381865afa158015611935573d6000803e3d6000fd5b505050506040513d601f19601f820116820180604052508101906119599190613bcb565b6001600160a01b0316146119c55760405162461bcd60e51b815260206004820152602d60248201527f6c69737450726f70657274793a20596f7520646f6e2774206f776e207468697360448201526c204e46542070726f706572747960981b60648201526084016108d9565b600480546040516323b872dd60e01b81526001600160a01b03909116916323b872dd916119f89133913091899101613b19565b600060405180830381600087803b158015611a1257600080fd5b505af1158015611a26573d6000803e3d6000fd5b50506040805160e08101825233808252600060208084018281528486018a815242606087019081528a15156080880190815260a0880186815260c089018781528f8852600b90965295899020975188546001600160a01b039182166001600160a01b0319918216178a55945160018a01805491831691909616179094559151600288015551600387015551600486018054945190921661010002610100600160a81b0319911515919091166001600160a81b031990941693909317929092179091555160059092019190915590519092507fe26548fdade34bdea4845eabc1ce353ae8487b41fb41e06f86a94a00583ea6959150611b3c9086908690869092835260208301919091521515604082015260600190565b60405180910390a2505050565b611b51613534565b611b59613663565b6000818152600b60209081526040808320600c90925290912060018201546001600160a01b03163314611bdd5760405162461bcd60e51b815260206004820152602660248201527f6d616b655061796d656e743a205468697320706f7065727479206973206e6f7460448201526520796f75727360d01b60648201526084016108d9565b60018101546006546040516370a0823160e01b81523360048201526001600160a01b03909116906370a0823190602401602060405180830381865afa158015611c2a573d6000803e3d6000fd5b505050506040513d601f19601f82011682018060405250810190611c4e9190613b9f565b1015611cae5760405162461bcd60e51b815260206004820152602960248201527f6d616b655061796d656e743a20596f75722062616c616e636520697320696e736044820152681d59999a58da595b9d60ba1b60648201526084016108d9565b4281600401541015611d025760405162461bcd60e51b815260206004820181905260248201527f6d616b655061796d656e743a20446561646c696e65206861732070617373656460448201526064016108d9565b600654825460018301546040516323b872dd60e01b81526001600160a01b03938416936323b872dd93611d3e9333939290911691600401613b19565b6020604051808303816000875af1158015611d5d573d6000803e3d6000fd5b505050506040513d601f19601f82011682018060405250810190611d819190613afc565b5060018101546000848152600c602052604081206003018054909190611da8908490613bb8565b909155505060018101546000848152600c602052604081206002018054909190611dd3908490613b8c565b90915550506000838152600c60205260408120600401805462278d009290611dfc908490613bb8565b90915550506002810154600003611eeb57600480546040516323b872dd60e01b81526001600160a01b03909116916323b872dd91611e409130913391899101613b19565b600060405180830381600087803b158015611e5a57600080fd5b505af1158015611e6e573d6000803e3d6000fd5b5050506000848152600b6020908152604080832080546001600160a01b031990811682556001808301805490921690915560028083018690556003808401879055600480850180546001600160a81b03191690556005909401879055600c9095529285208581559081018590559182018490559181018390550155505b6001810154600282015460408051868152602081019390935282015233907f8e4aa0897527f9d5629d6daf3255e753bfdd9862c1b9803c200a8bd12d5b86259060600160405180910390a25050611f4160018055565b50565b60606000825167ffffffffffffffff811115611f6257611f626138be565b604051908082528060200260200182016040528015611fc957816020015b6040805160e08101825260008082526020808301829052928201819052606082018190526080820181905260a0820181905260c08201528252600019909201910181611f805790505b50905060005b835181101561209557600b6000858381518110611fee57611fee613be8565b6020908102919091018101518252818101929092526040908101600020815160e08101835281546001600160a01b039081168252600183015481169482019490945260028201549281019290925260038101546060830152600481015460ff811615156080840152610100900490921660a082015260059091015460c0820152825183908390811061208257612082613be8565b6020908102919091010152600101611fcf565b5092915050565b6120a4613534565b6000828152600b6020526040902060018101546001600160a01b0316156121175760405162461bcd60e51b815260206004820152602160248201527f706c6163654269643a2050726f706572747920616c726561647920626f7567686044820152601d60fa1b60648201526084016108d9565b600481015460ff1661217a5760405162461bcd60e51b815260206004820152602660248201527f706c6163654269643a20596f752063616e6e6f7420626964206f6e2074686973604482015265103a37b5b2b760d11b60648201526084016108d9565b806005015482116121d95760405162461bcd60e51b815260206004820152602360248201527f706c6163654269643a2042696420616d6f756e74206d757374206265206869676044820152623432b960e91b60648201526084016108d9565b8054336001600160a01b03909116036122495760405162461bcd60e51b815260206004820152602c60248201527f706c6163654269643a20596f752063616e6e6f7420626964206f6e20796f757260448201526b206f776e206c697374696e6760a01b60648201526084016108d9565b600481015461010090046001600160a01b0316156122e757600654600480830154600584015460405163a9059cbb60e01b81526001600160a01b039485169463a9059cbb946122a2946101009004909116929101613ae3565b6020604051808303816000875af11580156122c1573d6000803e3d6000fd5b505050506040513d601f19601f820116820180604052508101906122e59190613afc565b505b6006546040516323b872dd60e01b81526001600160a01b03909116906323b872dd9061231b90339030908790600401613b19565b6020604051808303816000875af115801561233a573d6000803e3d6000fd5b505050506040513d601f19601f8201168201806040525081019061235e9190613afc565b506000838152600b6020908152604091829020600481018054610100600160a81b0319163361010081029190911790915560059091018590558251868152918201859052917f0e54eff26401bf69b81b26f60bd85ef47f5d85275c1d268d84f68d6897431c479101611b3c565b6123d3613507565b600480546040516323b872dd60e01b81526001600160a01b03909116916323b872dd916124069130918791879101613b19565b600060405180830381600087803b15801561242057600080fd5b505af1158015612434573d6000803e3d6000fd5b505050505050565b6000818152600b60209081526040808320815160e08101835281546001600160a01b0390811682526001830154811694820194909452600282015492810183905260038201546060820152600482015460ff811615156080830152610100900490931660a08401526005015460c0830152600a5483916064916124be91613b53565b6124c89190613b6a565b949350505050565b6124d8613507565b600a55565b6124e5613534565b6000818152600b6020526040902060018101546001600160a01b0316156125595760405162461bcd60e51b815260206004820152602260248201527f72656a6563744269643a2050726f706572747920616c726561647920626f75676044820152611a1d60f21b60648201526084016108d9565b600481015460ff166125bd5760405162461bcd60e51b815260206004820152602760248201527f72656a6563744269643a20596f752063616e6e6f7420626964206f6e2074686960448201526639903a37b5b2b760c91b60648201526084016108d9565b600481015461010090046001600160a01b031661261c5760405162461bcd60e51b815260206004820152601c60248201527f72656a6563744269643a204e6f206269647320746f2072656a6563740000000060448201526064016108d9565b80546001600160a01b0316331461269d576040805162461bcd60e51b81526020600482015260248101919091527f72656a6563744269643a20596f752061667265206e6f7420746865206f776e6560448201527f72206f662074686973204e4654206f6e20746865206d61726b6574706c61636560648201526084016108d9565b600654600480830154600584015460405163a9059cbb60e01b81526001600160a01b039485169463a9059cbb946126de946101009004909116929101613ae3565b6020604051808303816000875af11580156126fd573d6000803e3d6000fd5b505050506040513d601f19601f820116820180604052508101906127219190613afc565b506000828152600b6020908152604080832060048082018054610100600160a81b0319169055600591820194909455928401548454938501548251878152938401526001600160a01b0361010090910481169316917f6d699e170cc72516120ba19fe48e744504798d1afc2ffb65ff1154a6f4fa4d159101610f06565b6127a6613507565b6127b0600061368d565b565b6127ba613507565b600755565b7ff0c57e16840df040f15088dc2f81fe391c3923bec73e23a9662efc9c229c6a008054600160401b810460ff16159067ffffffffffffffff166000811580156128055750825b905060008267ffffffffffffffff1660011480156128225750303b155b905081158015612830575080155b1561284e5760405163f92ee8a960e01b815260040160405180910390fd5b845467ffffffffffffffff19166001178555831561287857845460ff60401b1916600160401b1785555b6128813361368d565b6003600755603c6009556008805460ff19166001179055600580546001600160a01b0319908116732f9fce639eff5a9f707489431da6f48440d246d81790915560068054909116732ad4992e2bfa5440e9ce7c8d4a53bf7c2eb62a931790556014600a5561290e600080516020613bff8339815191526129096000546001600160a01b031690565b613558565b50831561295557845460ff60401b19168555604051600181527fc7f505b2f371ae2175ee4913f4499e1f2633a7b5936321eed1cdaeb6115181d29060200160405180910390a15b5050505050565b612964613534565b6000828152600b602090815260409182902060065483516318160ddd60e01b8152935191936001600160a01b03909116926318160ddd926004808401938290030181865afa1580156129ba573d6000803e3d6000fd5b505050506040513d601f19601f820116820180604052508101906129de9190613b9f565b8210612a485760405162461bcd60e51b815260206004820152603360248201527f75706461746550726963653a2050726963652063616e206e6f7420657863656560448201527264204255534420746f74616c20737570706c7960681b60648201526084016108d9565b6000838152600b60205260409020546001600160a01b03163314612ad45760405162461bcd60e51b815260206004820152603a60248201527f75706461746550726963653a20596f7520646f6e2774206f776e20746869732060448201527f70726f7065727479204e465420696e20746865204d61726b657400000000000060648201526084016108d9565b60018101546001600160a01b031615612b3b5760405162461bcd60e51b8152602060048201526024808201527f75706461746550726963653a2050726f706572747920616c726561647920626f6044820152631d59da1d60e21b60648201526084016108d9565b6000838152600b6020908152604091829020600201849055815185815290810184905233917fb556fac599c3c70efb9ab1fa725ecace6c81cc48d1455f886607def065f3e0c09101611b3c565b612b90613534565b612ba8600080516020613bff83398151915233612d1e565b612c0b5760405162461bcd60e51b815260206004820152602e60248201527f63726561746550726f70657274793a2043616c6c657220646f206e6f7420686160448201526d7665206c697374657220726f6c6560901b60648201526084016108d9565b6040805160e0810182526001600160a01b038087168083526000602080850182815285870189815242606088019081528915156080890190815260a0890186815260c08a018781528e8852600b909652958a9020985189549089166001600160a01b0319918216178a55935160018a018054918a1691909516179093559051600288015551600387015551600486018054935190951661010002610100600160a81b0319911515919091166001600160a81b03199093169290921791909117909255905160059092019190915590517fe26548fdade34bdea4845eabc1ce353ae8487b41fb41e06f86a94a00583ea695906117e99086908690869092835260208301919091521515604082015260600190565b60009182526003602090815260408084206001600160a01b0393909316845291905290205460ff1690565b612d51613534565b6000828152600b6020526040902060018101546001600160a01b031615612dc65760405162461bcd60e51b8152602060048201526024808201527f62757950726f70657274793a2050726f706572747920616c726561647920626f6044820152631d59da1d60e21b60648201526084016108d9565b81816002015414612e195760405162461bcd60e51b815260206004820152601860248201527f62757950726f70657274793a2057726f6e67207072696365000000000000000060448201526064016108d9565b80546001600160a01b0316612e885760405162461bcd60e51b815260206004820152602f60248201527f62757950726f70657274793a204974656d206e6f74206c6973746564206f6e2060448201526e746865206d61726b6574706c61636560881b60648201526084016108d9565b8054336001600160a01b0390911603612efe5760405162461bcd60e51b815260206004820152603260248201527f62757950726f70657274793a20596f752063616e6e6f74206275792061206974604482015271195b481d1a185d081e5bdd481b1a5cdd195960721b60648201526084016108d9565b60028101546006546040516370a0823160e01b81523360048201526001600160a01b03909116906370a0823190602401602060405180830381865afa158015612f4b573d6000803e3d6000fd5b505050506040513d601f19601f82011682018060405250810190612f6f9190613b9f565b1015612fcf5760405162461bcd60e51b815260206004820152602960248201527f62757950726f70657274793a2020425553442062616c616e636520697320696e6044820152681cdd59999a58d95b9d60ba1b60648201526084016108d9565b60085460ff161561311057600060646007548360020154612ff09190613b53565b612ffa9190613b6a565b9050600081836002015461300e9190613b8c565b6006546005546040516323b872dd60e01b81529293506001600160a01b03918216926323b872dd926130499233929116908790600401613b19565b6020604051808303816000875af1158015613068573d6000803e3d6000fd5b505050506040513d601f19601f8201168201806040525081019061308c9190613afc565b5060065483546040516323b872dd60e01b81526001600160a01b03928316926323b872dd926130c5923392909116908690600401613b19565b6020604051808303816000875af11580156130e4573d6000803e3d6000fd5b505050506040513d601f19601f820116820180604052508101906131089190613afc565b505050613192565b60065460055460028301546040516323b872dd60e01b81526001600160a01b03938416936323b872dd9361314d9333939290911691600401613b19565b6020604051808303816000875af115801561316c573d6000803e3d6000fd5b505050506040513d601f19601f820116820180604052508101906131909190613afc565b505b600481015461010090046001600160a01b03161561323057600654600480830154600584015460405163a9059cbb60e01b81526001600160a01b039485169463a9059cbb946131eb946101009004909116929101613ae3565b6020604051808303816000875af115801561320a573d6000803e3d6000fd5b505050506040513d601f19601f8201168201806040525081019061322e9190613afc565b505b600480546040516323b872dd60e01b81526001600160a01b03909116916323b872dd916132639130913391899101613b19565b600060405180830381600087803b15801561327d57600080fd5b505af1158015613291573d6000803e3d6000fd5b5050506000848152600b6020908152604080832080546001600160a01b0319908116825560018201805490911690556002808201859055600382018590556004820180546001600160a81b0319169055600590910193909355918401548251878152918201523392507f75decf89a96d485b07819128c69cca58057a61ec52a8ec4b406b16e9e0c701a49101611b3c565b61332a613507565b600955565b613337613507565b600580546001600160a01b0319166001600160a01b0392909216919091179055565b600082815260036020526040902060010154613374816135ec565b610f3783836135f6565b613386613507565b6008805460ff1916911515919091179055565b6000818152600b60209081526040808320815160e08101835281546001600160a01b0390811682526001830154811694820194909452600282015492810183905260038201546060820152600482015460ff811615156080830152610100900490931660a08401526005015460c0830152600a54839160649161341b91613b53565b6134259190613b6a565b9050600060095482846040015161343c9190613b8c565b6134469190613b6a565b95945050505050565b613457613507565b60065460405163a9059cbb60e01b81526001600160a01b039091169063a9059cbb906134899085908590600401613ae3565b6020604051808303816000875af11580156134a8573d6000803e3d6000fd5b505050506040513d601f19601f820116820180604052508101906111eb9190613afc565b6134d4613507565b6001600160a01b0381166134fe57604051631e4fbdf760e01b8152600060048201526024016108d9565b611f418161368d565b6000546001600160a01b031633146127b05760405163118cdaa760e01b81523360048201526024016108d9565b60025460ff16156127b05760405163d93c066560e01b815260040160405180910390fd5b60006135648383612d1e565b6135e45760008381526003602090815260408083206001600160a01b03861684529091529020805460ff1916600117905561359c3390565b6001600160a01b0316826001600160a01b0316847f2f8788117e7eff1d82e926ec794901d17c78024a50270940304540a733656f0d60405160405180910390a4506001610830565b506000610830565b611f4181336136dd565b60006136028383612d1e565b156135e45760008381526003602090815260408083206001600160a01b0386168085529252808320805460ff1916905551339286917ff6391f5c32d9c69d2a47ea670b442974b53935d1edc7fd64eb21e047a839171b9190a4506001610830565b60026001540361368657604051633ee5aeb560e01b815260040160405180910390fd5b6002600155565b600080546001600160a01b038381166001600160a01b0319831681178455604051919092169283917f8be0079c531659141344cd1fd0a4f28419497f9722a3daafe3b4186f6b6457e09190a35050565b6136e78282612d1e565b610af857808260405163e2517d3f60e01b81526004016108d9929190613ae3565b60006020828403121561371a57600080fd5b81356001600160e01b03198116811461373257600080fd5b9392505050565b6001600160a01b0381168114611f4157600080fd5b60006020828403121561376057600080fd5b813561373281613739565b60006020828403121561377d57600080fd5b5035919050565b60008060008060006080868803121561379c57600080fd5b85356137a781613739565b945060208601356137b781613739565b935060408601359250606086013567ffffffffffffffff8111156137da57600080fd5b8601601f810188136137eb57600080fd5b803567ffffffffffffffff81111561380257600080fd5b88602082840101111561381457600080fd5b959894975092955050506020019190565b6000806040838503121561383857600080fd5b82359150602083013561384a81613739565b809150509250929050565b6000806040838503121561386857600080fd5b50508035926020909101359150565b8015158114611f4157600080fd5b60008060006060848603121561389a57600080fd5b833592506020840135915060408401356138b381613877565b809150509250925092565b634e487b7160e01b600052604160045260246000fd5b6000602082840312156138e657600080fd5b813567ffffffffffffffff8111156138fd57600080fd5b8201601f8101841361390e57600080fd5b803567ffffffffffffffff811115613928576139286138be565b8060051b604051601f19603f830116810181811067ffffffffffffffff82111715613955576139556138be565b60405291825260208184018101929081018784111561397357600080fd5b6020850194505b838510156139965784358082526020958601959093500161397a565b509695505050505050565b80516001600160a01b039081168352602080830151821690840152604080830151908401526060808301519084015260808083015115159084015260a0828101519091169083015260c090810151910152565b602080825282518282018190526000918401906040840190835b81811015613a3757613a218385516139a1565b6020939093019260e09290920191600101613a0e565b509095945050505050565b60008060408385031215613a5557600080fd5b8235613a6081613739565b946020939093013593505050565b60008060008060808587031215613a8457600080fd5b8435613a8f81613739565b935060208501359250604085013591506060850135613aad81613877565b939692955090935050565b60e0810161083082846139a1565b600060208284031215613ad857600080fd5b813561373281613877565b6001600160a01b03929092168252602082015260400190565b600060208284031215613b0e57600080fd5b815161373281613877565b6001600160a01b039384168152919092166020820152604081019190915260600190565b634e487b7160e01b600052601160045260246000fd5b808202811582820484141761083057610830613b3d565b600082613b8757634e487b7160e01b600052601260045260246000fd5b500490565b8181038181111561083057610830613b3d565b600060208284031215613bb157600080fd5b5051919050565b8082018082111561083057610830613b3d565b600060208284031215613bdd57600080fd5b815161373281613739565b634e487b7160e01b600052603260045260246000fdfef94103142c1baabe9ac2b5d1487bf783de9e69cfeea9a72f5c9c94afd7877b8ca26469706673582212200cdb9bd8362f55d67e142be518190ee7a25e3b89a767ad60b02b1ac3a4f5559664736f6c634300081c0033",
  "linkReferences": {},
  "deployedLinkReferences": {}
}