{
  "_format": "hh-sol-artifact-1",
  "contractName": "Property_NFT",
  "sourceName": "contracts/Property_NFT.sol",
  "abi": [
    {
      "inputs": [],
      "name": "AccessControlBadConfirmation",
      "type": "error"
    },
    {
      "inputs": [
        {
          "internalType": "address",
          "name": "account",
          "type": "address"
        },
        {
          "internalType": "bytes32",
          "name": "neededRole",
          "type": "bytes32"
        }
      ],
      "name": "AccessControlUnauthorizedAccount",
      "type": "error"
    },
    {
      "inputs": [],
      "name": "ERC721EnumerableForbiddenBatchMint",
      "type": "error"
    },
    {
      "inputs": [
        {
          "internalType": "address",
          "name": "sender",
          "type": "address"
        },
        {
          "internalType": "uint256",
          "name": "tokenId",
          "type": "uint256"
        },
        {
          "internalType": "address",
          "name": "owner",
          "type": "address"
        }
      ],
      "name": "ERC721IncorrectOwner",
      "type": "error"
    },
    {
      "inputs": [
        {
          "internalType": "address",
          "name": "operator",
          "type": "address"
        },
        {
          "internalType": "uint256",
          "name": "tokenId",
          "type": "uint256"
        }
      ],
      "name": "ERC721InsufficientApproval",
      "type": "error"
    },
    {
      "inputs": [
        {
          "internalType": "address",
          "name": "approver",
          "type": "address"
        }
      ],
      "name": "ERC721InvalidApprover",
      "type": "error"
    },
    {
      "inputs": [
        {
          "internalType": "address",
          "name": "operator",
          "type": "address"
        }
      ],
      "name": "ERC721InvalidOperator",
      "type": "error"
    },
    {
      "inputs": [
        {
          "internalType": "address",
          "name": "owner",
          "type": "address"
        }
      ],
      "name": "ERC721InvalidOwner",
      "type": "error"
    },
    {
      "inputs": [
        {
          "internalType": "address",
          "name": "receiver",
          "type": "address"
        }
      ],
      "name": "ERC721InvalidReceiver",
      "type": "error"
    },
    {
      "inputs": [
        {
          "internalType": "address",
          "name": "sender",
          "type": "address"
        }
      ],
      "name": "ERC721InvalidSender",
      "type": "error"
    },
    {
      "inputs": [
        {
          "internalType": "uint256",
          "name": "tokenId",
          "type": "uint256"
        }
      ],
      "name": "ERC721NonexistentToken",
      "type": "error"
    },
    {
      "inputs": [
        {
          "internalType": "address",
          "name": "owner",
          "type": "address"
        },
        {
          "internalType": "uint256",
          "name": "index",
          "type": "uint256"
        }
      ],
      "name": "ERC721OutOfBoundsIndex",
      "type": "error"
    },
    {
      "inputs": [],
      "name": "EnforcedPause",
      "type": "error"
    },
    {
      "inputs": [],
      "name": "ExpectedPause",
      "type": "error"
    },
    {
      "inputs": [],
      "name": "InvalidInitialization",
      "type": "error"
    },
    {
      "inputs": [],
      "name": "NotInitializing",
      "type": "error"
    },
    {
      "inputs": [
        {
          "internalType": "address",
          "name": "owner",
          "type": "address"
        }
      ],
      "name": "OwnableInvalidOwner",
      "type": "error"
    },
    {
      "inputs": [
        {
          "internalType": "address",
          "name": "account",
          "type": "address"
        }
      ],
      "name": "OwnableUnauthorizedAccount",
      "type": "error"
    },
    {
      "anonymous": false,
      "inputs": [
        {
          "indexed": true,
          "internalType": "address",
          "name": "owner",
          "type": "address"
        },
        {
          "indexed": true,
          "internalType": "address",
          "name": "approved",
          "type": "address"
        },
        {
          "indexed": true,
          "internalType": "uint256",
          "name": "tokenId",
          "type": "uint256"
        }
      ],
      "name": "Approval",
      "type": "event"
    },
    {
      "anonymous": false,
      "inputs": [
        {
          "indexed": true,
          "internalType": "address",
          "name": "owner",
          "type": "address"
        },
        {
          "indexed": true,
          "internalType": "address",
          "name": "operator",
          "type": "address"
        },
        {
          "indexed": false,
          "internalType": "bool",
          "name": "approved",
          "type": "bool"
        }
      ],
      "name": "ApprovalForAll",
      "type": "event"
    },
    {
      "anonymous": false,
      "inputs": [
        {
          "indexed": false,
          "internalType": "uint256[]",
          "name": "tokenId",
          "type": "uint256[]"
        }
      ],
      "name": "BatchBurned",
      "type": "event"
    },
    {
      "anonymous": false,
      "inputs": [
        {
          "indexed": false,
          "internalType": "uint256",
          "name": "_fromTokenId",
          "type": "uint256"
        },
        {
          "indexed": false,
          "internalType": "uint256",
          "name": "_toTokenId",
          "type": "uint256"
        }
      ],
      "name": "BatchMetadataUpdate",
      "type": "event"
    },
    {
      "anonymous": false,
      "inputs": [
        {
          "indexed": false,
          "internalType": "address",
          "name": "to",
          "type": "address"
        },
        {
          "indexed": false,
          "internalType": "uint256[]",
          "name": "tokenId",
          "type": "uint256[]"
        }
      ],
      "name": "BatchMinted",
      "type": "event"
    },
    {
      "anonymous": false,
      "inputs": [
        {
          "indexed": false,
          "internalType": "address",
          "name": "user",
          "type": "address"
        },
        {
          "indexed": false,
          "internalType": "uint256",
          "name": "tokenId",
          "type": "uint256"
        }
      ],
      "name": "Burned",
      "type": "event"
    },
    {
      "anonymous": false,
      "inputs": [
        {
          "indexed": false,
          "internalType": "uint64",
          "name": "version",
          "type": "uint64"
        }
      ],
      "name": "Initialized",
      "type": "event"
    },
    {
      "anonymous": false,
      "inputs": [
        {
          "indexed": false,
          "internalType": "uint256",
          "name": "_tokenId",
          "type": "uint256"
        }
      ],
      "name": "MetadataUpdate",
      "type": "event"
    },
    {
      "anonymous": false,
      "inputs": [
        {
          "indexed": false,
          "internalType": "address",
          "name": "to",
          "type": "address"
        },
        {
          "indexed": false,
          "internalType": "uint256",
          "name": "tokenId",
          "type": "uint256"
        }
      ],
      "name": "Minted",
      "type": "event"
    },
    {
      "anonymous": false,
      "inputs": [
        {
          "indexed": true,
          "internalType": "address",
          "name": "previousOwner",
          "type": "address"
        },
        {
          "indexed": true,
          "internalType": "address",
          "name": "newOwner",
          "type": "address"
        }
      ],
      "name": "OwnershipTransferred",
      "type": "event"
    },
    {
      "anonymous": false,
      "inputs": [
        {
          "indexed": false,
          "internalType": "address",
          "name": "account",
          "type": "address"
        }
      ],
      "name": "Paused",
      "type": "event"
    },
    {
      "anonymous": false,
      "inputs": [
        {
          "indexed": true,
          "internalType": "bytes32",
          "name": "role",
          "type": "bytes32"
        },
        {
          "indexed": true,
          "internalType": "bytes32",
          "name": "previousAdminRole",
          "type": "bytes32"
        },
        {
          "indexed": true,
          "internalType": "bytes32",
          "name": "newAdminRole",
          "type": "bytes32"
        }
      ],
      "name": "RoleAdminChanged",
      "type": "event"
    },
    {
      "anonymous": false,
      "inputs": [
        {
          "indexed": true,
          "internalType": "bytes32",
          "name": "role",
          "type": "bytes32"
        },
        {
          "indexed": true,
          "internalType": "address",
          "name": "account",
          "type": "address"
        },
        {
          "indexed": true,
          "internalType": "address",
          "name": "sender",
          "type": "address"
        }
      ],
      "name": "RoleGranted",
      "type": "event"
    },
    {
      "anonymous": false,
      "inputs": [
        {
          "indexed": true,
          "internalType": "bytes32",
          "name": "role",
          "type": "bytes32"
        },
        {
          "indexed": true,
          "internalType": "address",
          "name": "account",
          "type": "address"
        },
        {
          "indexed": true,
          "internalType": "address",
          "name": "sender",
          "type": "address"
        }
      ],
      "name": "RoleRevoked",
      "type": "event"
    },
    {
      "anonymous": false,
      "inputs": [
        {
          "indexed": true,
          "internalType": "address",
          "name": "from",
          "type": "address"
        },
        {
          "indexed": true,
          "internalType": "address",
          "name": "to",
          "type": "address"
        },
        {
          "indexed": true,
          "internalType": "uint256",
          "name": "tokenId",
          "type": "uint256"
        }
      ],
      "name": "Transfer",
      "type": "event"
    },
    {
      "anonymous": false,
      "inputs": [
        {
          "indexed": false,
          "internalType": "address",
          "name": "account",
          "type": "address"
        }
      ],
      "name": "Unpaused",
      "type": "event"
    },
    {
      "inputs": [],
      "name": "DEFAULT_ADMIN_ROLE",
      "outputs": [
        {
          "internalType": "bytes32",
          "name": "",
          "type": "bytes32"
        }
      ],
      "stateMutability": "view",
      "type": "function"
    },
    {
      "inputs": [],
      "name": "MINTER_ROLE",
      "outputs": [
        {
          "internalType": "bytes32",
          "name": "",
          "type": "bytes32"
        }
      ],
      "stateMutability": "view",
      "type": "function"
    },
    {
      "inputs": [
        {
          "internalType": "address",
          "name": "_account",
          "type": "address"
        }
      ],
      "name": "addToBlacklist",
      "outputs": [],
      "stateMutability": "nonpayable",
      "type": "function"
    },
    {
      "inputs": [
        {
          "internalType": "address",
          "name": "to",
          "type": "address"
        },
        {
          "internalType": "uint256",
          "name": "tokenId",
          "type": "uint256"
        }
      ],
      "name": "approve",
      "outputs": [],
      "stateMutability": "nonpayable",
      "type": "function"
    },
    {
      "inputs": [
        {
          "internalType": "address",
          "name": "owner",
          "type": "address"
        }
      ],
      "name": "balanceOf",
      "outputs": [
        {
          "internalType": "uint256",
          "name": "",
          "type": "uint256"
        }
      ],
      "stateMutability": "view",
      "type": "function"
    },
    {
      "inputs": [
        {
          "internalType": "uint256",
          "name": "tokenId",
          "type": "uint256"
        }
      ],
      "name": "burn",
      "outputs": [],
      "stateMutability": "nonpayable",
      "type": "function"
    },
    {
      "inputs": [
        {
          "internalType": "uint256[]",
          "name": "tokenIds",
          "type": "uint256[]"
        }
      ],
      "name": "burnBatch",
      "outputs": [],
      "stateMutability": "nonpayable",
      "type": "function"
    },
    {
      "inputs": [
        {
          "internalType": "uint256",
          "name": "price",
          "type": "uint256"
        },
        {
          "internalType": "bool",
          "name": "canBid",
          "type": "bool"
        },
        {
          "internalType": "uint256",
          "name": "propertyType",
          "type": "uint256"
        },
        {
          "internalType": "string",
          "name": "physicalAddress",
          "type": "string"
        },
        {
          "internalType": "uint256",
          "name": "rooms",
          "type": "uint256"
        },
        {
          "internalType": "uint256",
          "name": "bathrooms",
          "type": "uint256"
        },
        {
          "internalType": "uint256",
          "name": "area",
          "type": "uint256"
        }
      ],
      "name": "createProperty",
      "outputs": [],
      "stateMutability": "nonpayable",
      "type": "function"
    },
    {
      "inputs": [
        {
          "internalType": "uint256",
          "name": "price",
          "type": "uint256"
        },
        {
          "internalType": "uint256",
          "name": "propertyType",
          "type": "uint256"
        },
        {
          "internalType": "string",
          "name": "physicalAddress",
          "type": "string"
        },
        {
          "internalType": "uint256",
          "name": "rooms",
          "type": "uint256"
        },
        {
          "internalType": "uint256",
          "name": "bathrooms",
          "type": "uint256"
        },
        {
          "internalType": "uint256",
          "name": "area",
          "type": "uint256"
        }
      ],
      "name": "createPropertyShared",
      "outputs": [],
      "stateMutability": "nonpayable",
      "type": "function"
    },
    {
      "inputs": [],
      "name": "fractionalMarketplace",
      "outputs": [
        {
          "internalType": "contract Imarketplace",
          "name": "",
          "type": "address"
        }
      ],
      "stateMutability": "view",
      "type": "function"
    },
    {
      "inputs": [
        {
          "internalType": "uint256",
          "name": "tokenId",
          "type": "uint256"
        }
      ],
      "name": "getApproved",
      "outputs": [
        {
          "internalType": "address",
          "name": "",
          "type": "address"
        }
      ],
      "stateMutability": "view",
      "type": "function"
    },
    {
      "inputs": [],
      "name": "getNextTokenId",
      "outputs": [
        {
          "internalType": "uint256",
          "name": "",
          "type": "uint256"
        }
      ],
      "stateMutability": "view",
      "type": "function"
    },
    {
      "inputs": [
        {
          "internalType": "bytes32",
          "name": "role",
          "type": "bytes32"
        }
      ],
      "name": "getRoleAdmin",
      "outputs": [
        {
          "internalType": "bytes32",
          "name": "",
          "type": "bytes32"
        }
      ],
      "stateMutability": "view",
      "type": "function"
    },
    {
      "inputs": [
        {
          "internalType": "address",
          "name": "_minter",
          "type": "address"
        }
      ],
      "name": "grantMinterRole",
      "outputs": [],
      "stateMutability": "nonpayable",
      "type": "function"
    },
    {
      "inputs": [
        {
          "internalType": "bytes32",
          "name": "role",
          "type": "bytes32"
        },
        {
          "internalType": "address",
          "name": "account",
          "type": "address"
        }
      ],
      "name": "grantRole",
      "outputs": [],
      "stateMutability": "nonpayable",
      "type": "function"
    },
    {
      "inputs": [
        {
          "internalType": "bytes32",
          "name": "role",
          "type": "bytes32"
        },
        {
          "internalType": "address",
          "name": "account",
          "type": "address"
        }
      ],
      "name": "hasRole",
      "outputs": [
        {
          "internalType": "bool",
          "name": "",
          "type": "bool"
        }
      ],
      "stateMutability": "view",
      "type": "function"
    },
    {
      "inputs": [],
      "name": "initialize",
      "outputs": [],
      "stateMutability": "nonpayable",
      "type": "function"
    },
    {
      "inputs": [
        {
          "internalType": "address",
          "name": "owner",
          "type": "address"
        },
        {
          "internalType": "address",
          "name": "operator",
          "type": "address"
        }
      ],
      "name": "isApprovedForAll",
      "outputs": [
        {
          "internalType": "bool",
          "name": "",
          "type": "bool"
        }
      ],
      "stateMutability": "view",
      "type": "function"
    },
    {
      "inputs": [
        {
          "internalType": "address",
          "name": "_account",
          "type": "address"
        }
      ],
      "name": "isBlackListed",
      "outputs": [
        {
          "internalType": "bool",
          "name": "",
          "type": "bool"
        }
      ],
      "stateMutability": "view",
      "type": "function"
    },
    {
      "inputs": [],
      "name": "marketplace",
      "outputs": [
        {
          "internalType": "contract Imarketplace",
          "name": "",
          "type": "address"
        }
      ],
      "stateMutability": "view",
      "type": "function"
    },
    {
      "inputs": [],
      "name": "name",
      "outputs": [
        {
          "internalType": "string",
          "name": "",
          "type": "string"
        }
      ],
      "stateMutability": "view",
      "type": "function"
    },
    {
      "inputs": [],
      "name": "owner",
      "outputs": [
        {
          "internalType": "address",
          "name": "",
          "type": "address"
        }
      ],
      "stateMutability": "view",
      "type": "function"
    },
    {
      "inputs": [
        {
          "internalType": "uint256",
          "name": "tokenId",
          "type": "uint256"
        }
      ],
      "name": "ownerOf",
      "outputs": [
        {
          "internalType": "address",
          "name": "",
          "type": "address"
        }
      ],
      "stateMutability": "view",
      "type": "function"
    },
    {
      "inputs": [],
      "name": "pause",
      "outputs": [],
      "stateMutability": "nonpayable",
      "type": "function"
    },
    {
      "inputs": [],
      "name": "paused",
      "outputs": [
        {
          "internalType": "bool",
          "name": "",
          "type": "bool"
        }
      ],
      "stateMutability": "view",
      "type": "function"
    },
    {
      "inputs": [
        {
          "internalType": "uint256",
          "name": "",
          "type": "uint256"
        }
      ],
      "name": "propertyFeature",
      "outputs": [
        {
          "internalType": "uint256",
          "name": "propertyType",
          "type": "uint256"
        },
        {
          "internalType": "string",
          "name": "physicalAddress",
          "type": "string"
        },
        {
          "internalType": "uint256",
          "name": "rooms",
          "type": "uint256"
        },
        {
          "internalType": "uint256",
          "name": "bathrooms",
          "type": "uint256"
        },
        {
          "internalType": "uint256",
          "name": "area",
          "type": "uint256"
        }
      ],
      "stateMutability": "view",
      "type": "function"
    },
    {
      "inputs": [
        {
          "internalType": "address",
          "name": "_account",
          "type": "address"
        }
      ],
      "name": "removeFromBlacklist",
      "outputs": [],
      "stateMutability": "nonpayable",
      "type": "function"
    },
    {
      "inputs": [],
      "name": "renounceOwnership",
      "outputs": [],
      "stateMutability": "nonpayable",
      "type": "function"
    },
    {
      "inputs": [
        {
          "internalType": "bytes32",
          "name": "role",
          "type": "bytes32"
        },
        {
          "internalType": "address",
          "name": "callerConfirmation",
          "type": "address"
        }
      ],
      "name": "renounceRole",
      "outputs": [],
      "stateMutability": "nonpayable",
      "type": "function"
    },
    {
      "inputs": [
        {
          "internalType": "bytes32",
          "name": "role",
          "type": "bytes32"
        },
        {
          "internalType": "address",
          "name": "account",
          "type": "address"
        }
      ],
      "name": "revokeRole",
      "outputs": [],
      "stateMutability": "nonpayable",
      "type": "function"
    },
    {
      "inputs": [
        {
          "internalType": "address",
          "name": "from",
          "type": "address"
        },
        {
          "internalType": "address",
          "name": "to",
          "type": "address"
        },
        {
          "internalType": "uint256",
          "name": "tokenId",
          "type": "uint256"
        }
      ],
      "name": "safeTransferFrom",
      "outputs": [],
      "stateMutability": "nonpayable",
      "type": "function"
    },
    {
      "inputs": [
        {
          "internalType": "address",
          "name": "from",
          "type": "address"
        },
        {
          "internalType": "address",
          "name": "to",
          "type": "address"
        },
        {
          "internalType": "uint256",
          "name": "tokenId",
          "type": "uint256"
        },
        {
          "internalType": "bytes",
          "name": "data",
          "type": "bytes"
        }
      ],
      "name": "safeTransferFrom",
      "outputs": [],
      "stateMutability": "nonpayable",
      "type": "function"
    },
    {
      "inputs": [
        {
          "internalType": "address",
          "name": "operator",
          "type": "address"
        },
        {
          "internalType": "bool",
          "name": "approved",
          "type": "bool"
        }
      ],
      "name": "setApprovalForAll",
      "outputs": [],
      "stateMutability": "nonpayable",
      "type": "function"
    },
    {
      "inputs": [
        {
          "internalType": "address",
          "name": "_marketAddress",
          "type": "address"
        }
      ],
      "name": "setFractionalMarketplace",
      "outputs": [],
      "stateMutability": "nonpayable",
      "type": "function"
    },
    {
      "inputs": [
        {
          "internalType": "address",
          "name": "_marketAddress",
          "type": "address"
        }
      ],
      "name": "setMarketplaceAddress",
      "outputs": [],
      "stateMutability": "nonpayable",
      "type": "function"
    },
    {
      "inputs": [
        {
          "internalType": "uint256",
          "name": "tokenId",
          "type": "uint256"
        },
        {
          "internalType": "string",
          "name": "_tokenURI",
          "type": "string"
        }
      ],
      "name": "setTokenURI",
      "outputs": [],
      "stateMutability": "nonpayable",
      "type": "function"
    },
    {
      "inputs": [
        {
          "internalType": "bytes4",
          "name": "interfaceId",
          "type": "bytes4"
        }
      ],
      "name": "supportsInterface",
      "outputs": [
        {
          "internalType": "bool",
          "name": "",
          "type": "bool"
        }
      ],
      "stateMutability": "view",
      "type": "function"
    },
    {
      "inputs": [],
      "name": "symbol",
      "outputs": [
        {
          "internalType": "string",
          "name": "",
          "type": "string"
        }
      ],
      "stateMutability": "view",
      "type": "function"
    },
    {
      "inputs": [
        {
          "internalType": "uint256",
          "name": "index",
          "type": "uint256"
        }
      ],
      "name": "tokenByIndex",
      "outputs": [
        {
          "internalType": "uint256",
          "name": "",
          "type": "uint256"
        }
      ],
      "stateMutability": "view",
      "type": "function"
    },
    {
      "inputs": [
        {
          "internalType": "address",
          "name": "owner",
          "type": "address"
        },
        {
          "internalType": "uint256",
          "name": "index",
          "type": "uint256"
        }
      ],
      "name": "tokenOfOwnerByIndex",
      "outputs": [
        {
          "internalType": "uint256",
          "name": "",
          "type": "uint256"
        }
      ],
      "stateMutability": "view",
      "type": "function"
    },
    {
      "inputs": [
        {
          "internalType": "uint256",
          "name": "tokenId",
          "type": "uint256"
        }
      ],
      "name": "tokenURI",
      "outputs": [
        {
          "internalType": "string",
          "name": "",
          "type": "string"
        }
      ],
      "stateMutability": "view",
      "type": "function"
    },
    {
      "inputs": [
        {
          "internalType": "address",
          "name": "_account",
          "type": "address"
        }
      ],
      "name": "tokensByAddress",
      "outputs": [
        {
          "internalType": "uint256[]",
          "name": "",
          "type": "uint256[]"
        }
      ],
      "stateMutability": "view",
      "type": "function"
    },
    {
      "inputs": [],
      "name": "totalSupply",
      "outputs": [
        {
          "internalType": "uint256",
          "name": "",
          "type": "uint256"
        }
      ],
      "stateMutability": "view",
      "type": "function"
    },
    {
      "inputs": [
        {
          "internalType": "address",
          "name": "from",
          "type": "address"
        },
        {
          "internalType": "address",
          "name": "to",
          "type": "address"
        },
        {
          "internalType": "uint256",
          "name": "tokenId",
          "type": "uint256"
        }
      ],
      "name": "transferFrom",
      "outputs": [],
      "stateMutability": "nonpayable",
      "type": "function"
    },
    {
      "inputs": [
        {
          "internalType": "address",
          "name": "newOwner",
          "type": "address"
        }
      ],
      "name": "transferOwnership",
      "outputs": [],
      "stateMutability": "nonpayable",
      "type": "function"
    },
    {
      "inputs": [],
      "name": "unpause",
      "outputs": [],
      "stateMutability": "nonpayable",
      "type": "function"
    }
  ],
  "bytecode": "0x6080604052348015600f57600080fd5b50612f208061001f6000396000f3fe608060405234801561001057600080fd5b506004361061028a5760003560e01c80636b8de4c91161015c578063b47cc556116100ce578063d6bc594211610087578063d6bc594214610573578063e4623c1b14610593578063e47d6060146105a6578063e985e9c5146105d2578063f16890fe146105e5578063f2fde38b1461060957600080fd5b8063b47cc5561461050a578063b88d4fde1461051d578063c87b56dd14610530578063caa0f92a14610543578063d53913931461054b578063d547741f1461056057600080fd5b80638da5cb5b116101205780638da5cb5b146104b957806391d14854146104c157806395d89b41146104d4578063a217fddf146104dc578063a22cb465146104e4578063abc8c7af146104f757600080fd5b80636b8de4c91461047b57806370a082311461048e578063715018a6146104a15780638129fc1c146104a95780638456cb59146104b157600080fd5b80633dd1eb61116102005780634972dead116101b95780634972dead146104045780634f6ccce714610417578063537df3b61461042a5780635c975abb1461043d5780636352211e1461045557806367b840a51461046857600080fd5b80633dd1eb611461039d5780633f4ba83a146103b057806341dbb53a146103b857806342842e0e146103cb57806342966c68146103de57806344337ea1146103f157600080fd5b806318160ddd1161025257806318160ddd1461031f57806323b872dd1461033e578063248a9ca3146103515780632f2ff15d146103645780632f745c591461037757806336568abe1461038a57600080fd5b806301ffc9a71461028f57806306fdde03146102b7578063081812fc146102cc578063095ea7b3146102f7578063162094c41461030c575b600080fd5b6102a261029d36600461269d565b61061c565b60405190151581526020015b60405180910390f35b6102bf61062d565b6040516102ae919061270a565b6102df6102da36600461271d565b6106d1565b6040516001600160a01b0390911681526020016102ae565b61030a610305366004612752565b6106e6565b005b61030a61031a36600461283d565b6106f5565b600080516020612e8b833981519152545b6040519081526020016102ae565b61030a61034c366004612883565b610720565b61033061035f36600461271d565b6107b0565b61030a6103723660046128c0565b6107d2565b610330610385366004612752565b6107ee565b61030a6103983660046128c0565b610862565b61030a6103ab3660046128ec565b61089a565b61030a6108ba565b61030a6103c6366004612917565b6108cc565b61030a6103d9366004612883565b610a1f565b61030a6103ec36600461271d565b610a3a565b61030a6103ff3660046128ec565b610abb565b61030a610412366004612992565b610b50565b61033061042536600461271d565b610c9a565b61030a6104383660046128ec565b610d12565b600080516020612ecb8339815191525460ff166102a2565b6102df61046336600461271d565b610da3565b61030a6104763660046128ec565b610dae565b6001546102df906001600160a01b031681565b61033061049c3660046128ec565b610dd8565b61030a610e34565b61030a610e46565b61030a611003565b6102df611013565b6102a26104cf3660046128c0565b611041565b6102bf611079565b610330600081565b61030a6104f23660046129fd565b6110b8565b6000546102df906001600160a01b031681565b61030a6105183660046128ec565b6110c3565b61030a61052b366004612a27565b6110ed565b6102bf61053e36600461271d565b611105565b600254610330565b610330600080516020612e6b83398151915281565b61030a61056e3660046128c0565b611110565b6105866105813660046128ec565b61112c565b6040516102ae9190612aa2565b61030a6105a1366004612ae5565b6111c3565b6102a26105b43660046128ec565b6001600160a01b031660009081526005602052604090205460ff1690565b6102a26105e0366004612b94565b611280565b6105f86105f336600461271d565b6112cd565b6040516102ae959493929190612bbe565b61030a6106173660046128ec565b611384565b6000610627826113c2565b92915050565b600080516020612e4b833981519152805460609190819061064d90612bf4565b80601f016020809104026020016040519081016040528092919081815260200182805461067990612bf4565b80156106c65780601f1061069b576101008083540402835291602001916106c6565b820191906000526020600020905b8154815290600101906020018083116106a957829003601f168201915b505050505091505090565b60006106dc826113e7565b506106278261141f565b6106f1828233611459565b5050565b61070d600080516020612e6b83398151915233611041565b61071657600080fd5b6106f18282611466565b6001600160a01b03821661074f57604051633250574960e11b8152600060048201526024015b60405180910390fd5b600061075c8383336114d9565b9050836001600160a01b0316816001600160a01b0316146107aa576040516364283d7b60e01b81526001600160a01b0380861660048301526024820184905282166044820152606401610746565b50505050565b6000908152600080516020612eab833981519152602052604090206001015490565b6107db826107b0565b6107e48161167f565b6107aa8383611689565b6000600080516020612e2b83398151915261080884610dd8565b83106108395760405163295f44f760e21b81526001600160a01b038516600482015260248101849052604401610746565b6001600160a01b0384166000908152602091825260408082208583529092522054905092915050565b6001600160a01b038116331461088b5760405163334bd91960e11b815260040160405180910390fd5b610895828261172e565b505050565b6108a26117aa565b6106f1600080516020612e6b83398151915282611689565b6108c26117aa565b6108ca6117dc565b565b60028054600091826108dd83612c44565b909155506000549091506108fa906001600160a01b031682611836565b600054604051638d5a29c560e01b815233600482015260248101839052604481018a905288151560648201526001600160a01b0390911690638d5a29c590608401600060405180830381600087803b15801561095557600080fd5b505af1158015610969573d6000803e3d6000fd5b50506040805160a08101825289815260208082018a81528284018a905260608301899052608083018890526000878152600490925292902081518155915190935090915060018201906109bc9082612ca4565b506040828101516002830155606083015160038301556080909201516004909101558051338152602081018390527f30385c845b448a36257a6a1716e6ad2e1bc2cbe333cde1e69fe849ad6511adfe910160405180910390a15050505050505050565b610895838383604051806020016040528060008152506110ed565b610a52600080516020612e6b83398151915233611041565b610a5b57600080fd5b6000610a6682610da3565b9050610a74600083836114d9565b50604080516001600160a01b0383168152602081018490527f696de425f79f4a40bc6d2122ca50507f0efbeabbff86a84871b7196ab8ea8df7910160405180910390a15050565b610ac36117aa565b6001600160a01b03811660009081526005602052604090205460ff1615610b2c5760405162461bcd60e51b815260206004820152601e60248201527f4164647265737320697320616c726561647920626c61636b6c697374656400006044820152606401610746565b6001600160a01b03166000908152600560205260409020805460ff19166001179055565b6003805460009182610b6183612c44565b90915550600154909150610b7e906001600160a01b031682611836565b60015460405163173afa1960e11b815233600482015260248101839052604481018990526001600160a01b0390911690632e75f43290606401600060405180830381600087803b158015610bd157600080fd5b505af1158015610be5573d6000803e3d6000fd5b50506040805160a08101825289815260208082018a81528284018a90526060830189905260808301889052600087815260049092529290208151815591519093509091506001820190610c389082612ca4565b506040828101516002830155606083015160038301556080909201516004909101558051338152602081018390527f30385c845b448a36257a6a1716e6ad2e1bc2cbe333cde1e69fe849ad6511adfe910160405180910390a150505050505050565b6000600080516020612e2b833981519152610cc1600080516020612e8b8339815191525490565b8310610cea5760405163295f44f760e21b81526000600482015260248101849052604401610746565b806002018381548110610cff57610cff612d62565b9060005260206000200154915050919050565b610d1a6117aa565b6001600160a01b03811660009081526005602052604090205460ff16610d825760405162461bcd60e51b815260206004820152601a60248201527f41646472657373206973206e6f7420626c61636b6c69737465640000000000006044820152606401610746565b6001600160a01b03166000908152600560205260409020805460ff19169055565b6000610627826113e7565b610db66117aa565b600180546001600160a01b0319166001600160a01b0392909216919091179055565b6000600080516020612e4b8339815191526001600160a01b038316610e13576040516322718ad960e21b815260006004820152602401610746565b6001600160a01b039092166000908152600390920160205250604090205490565b610e3c6117aa565b6108ca6000611850565b7ff0c57e16840df040f15088dc2f81fe391c3923bec73e23a9662efc9c229c6a008054600160401b810460ff1615906001600160401b0316600081158015610e8b5750825b90506000826001600160401b03166001148015610ea75750303b155b905081158015610eb5575080155b15610ed35760405163f92ee8a960e01b815260040160405180910390fd5b845467ffffffffffffffff191660011785558315610efd57845460ff60401b1916600160401b1785555b610f06336118c1565b610f5c604051806040016040528060148152602001735442573234205265616c4573746174652052574160601b8152506040518060400160405280600881526020016750524f504552545960c01b8152506118d2565b610f646118e4565b610f6c6118e4565b610f746118ec565b610f7c6118e4565b600160025562989681600355610f9a6000610f95611013565b611689565b50610fb5600080516020612e6b833981519152610f95611013565b508315610ffc57845460ff60401b19168555604051600181527fc7f505b2f371ae2175ee4913f4499e1f2633a7b5936321eed1cdaeb6115181d29060200160405180910390a15b5050505050565b61100b6117aa565b6108ca6118fc565b7f9016d09d72d40fdae2fd8ceac6b6234c7706214fd39c1cd1e609a0528c199300546001600160a01b031690565b6000918252600080516020612eab833981519152602090815260408084206001600160a01b0393909316845291905290205460ff1690565b7f80bb2b638cc20bc4d0a60d66940f3ab4a00c1d7b313497ca82fb0b4ab00793018054606091600080516020612e4b8339815191529161064d90612bf4565b6106f1338383611945565b6110cb6117aa565b600080546001600160a01b0319166001600160a01b0392909216919091179055565b6110f8848484610720565b6107aa33858585856119f6565b606061062782611b20565b611119826107b0565b6111228161167f565b6107aa838361172e565b6060600061113983610dd8565b90506000816001600160401b038111156111555761115561277c565b60405190808252806020026020018201604052801561117e578160200160208202803683370190505b50905060005b828110156111bb5761119685826107ee565b8282815181106111a8576111a8612d62565b6020908102919091010152600101611184565b509392505050565b6111db600080516020612e6b83398151915233611041565b6111e457600080fd5b60005b815181101561124557600061121483838151811061120757611207612d62565b6020026020010151610da3565b905061123b600084848151811061122d5761122d612d62565b6020026020010151836114d9565b50506001016111e7565b507f0e1c53559b41a9c289620f6f0f2a78f54c490fd5521704b4b4095fe4396988bc816040516112759190612aa2565b60405180910390a150565b6001600160a01b0391821660009081527f80bb2b638cc20bc4d0a60d66940f3ab4a00c1d7b313497ca82fb0b4ab00793056020908152604080832093909416825291909152205460ff1690565b600460205260009081526040902080546001820180549192916112ef90612bf4565b80601f016020809104026020016040519081016040528092919081815260200182805461131b90612bf4565b80156113685780601f1061133d57610100808354040283529160200191611368565b820191906000526020600020905b81548152906001019060200180831161134b57829003601f168201915b5050505050908060020154908060030154908060040154905085565b61138c6117aa565b6001600160a01b0381166113b657604051631e4fbdf760e01b815260006004820152602401610746565b6113bf81611850565b50565b60006001600160e01b03198216637965db0b60e01b1480610627575061062782611c55565b6000806113f383611c7a565b90506001600160a01b03811661062757604051637e27328960e01b815260048101849052602401610746565b60009081527f80bb2b638cc20bc4d0a60d66940f3ab4a00c1d7b313497ca82fb0b4ab007930460205260409020546001600160a01b031690565b6108958383836001611cb4565b60008281527f0542a41881ee128a365a727b282c86fa859579490b9bb45aab8503648c8e7900602081905260409091206114a08382612ca4565b506040518381527ff8e1a15aba9398e019f0b49df1a4fde98ee17ae345cb5f6b5e2c27f5033e8ce79060200160405180910390a1505050565b6001600160a01b03811660009081526005602052604081205460ff16156115425760405162461bcd60e51b815260206004820152601e60248201527f5f7570646174653a2053656e64657220697320626c61636b6c697374656400006044820152606401610746565b6001600160a01b03841660009081526005602052604090205460ff16156115b55760405162461bcd60e51b815260206004820152602160248201527f5f7570646174653a20526563697069656e7420697320626c61636b6c697374656044820152601960fa1b6064820152608401610746565b6000546001600160a01b03838116911614806115de57506000546001600160a01b038581169116145b806115f657506001546001600160a01b038381169116145b8061160e57506001546001600160a01b038581169116145b61166c5760405162461bcd60e51b815260206004820152602960248201527f5f7570646174653a204e6f7420616c6c6f77656420746f207472616e73666572604482015268081d1a1a5cc813919560ba1b6064820152608401610746565b611677848484611dca565b949350505050565b6113bf8133611ddf565b6000600080516020612eab8339815191526116a48484611041565b611724576000848152602082815260408083206001600160a01b03871684529091529020805460ff191660011790556116da3390565b6001600160a01b0316836001600160a01b0316857f2f8788117e7eff1d82e926ec794901d17c78024a50270940304540a733656f0d60405160405180910390a46001915050610627565b6000915050610627565b6000600080516020612eab8339815191526117498484611041565b15611724576000848152602082815260408083206001600160a01b0387168085529252808320805460ff1916905551339287917ff6391f5c32d9c69d2a47ea670b442974b53935d1edc7fd64eb21e047a839171b9190a46001915050610627565b336117b3611013565b6001600160a01b0316146108ca5760405163118cdaa760e01b8152336004820152602401610746565b6117e4611e18565b600080516020612ecb833981519152805460ff191681557f5db9ee0a495bf2e6ff9c91a7834c1ba4fdd244a5e8aa4e537bd38aeae4b073aa335b6040516001600160a01b039091168152602001611275565b6106f1828260405180602001604052806000815250611e48565b7f9016d09d72d40fdae2fd8ceac6b6234c7706214fd39c1cd1e609a0528c19930080546001600160a01b031981166001600160a01b03848116918217845560405192169182907f8be0079c531659141344cd1fd0a4f28419497f9722a3daafe3b4186f6b6457e090600090a3505050565b6118c9611e60565b6113bf81611ea9565b6118da611e60565b6106f18282611eb1565b6108ca611e60565b6118f4611e60565b6108ca611ee2565b611904611f03565b600080516020612ecb833981519152805460ff191660011781557f62e78cea01bee320cd4e420270b5ea74000d11b0c9f74754ebdbfc544b05a2583361181e565b600080516020612e4b8339815191526001600160a01b03831661198657604051630b61174360e31b81526001600160a01b0384166004820152602401610746565b6001600160a01b038481166000818152600584016020908152604080832094881680845294825291829020805460ff191687151590811790915591519182527f17307eab39ab6107e8899845ad3d59bd9653f200f220920489ca2b5937696c31910160405180910390a350505050565b6001600160a01b0383163b15610ffc57604051630a85bd0160e11b81526001600160a01b0384169063150b7a0290611a38908890889087908790600401612d78565b6020604051808303816000875af1925050508015611a73575060408051601f3d908101601f19168201909252611a7091810190612db5565b60015b611adc573d808015611aa1576040519150601f19603f3d011682016040523d82523d6000602084013e611aa6565b606091505b508051600003611ad457604051633250574960e11b81526001600160a01b0385166004820152602401610746565b805181602001fd5b6001600160e01b03198116630a85bd0160e11b14611b1857604051633250574960e11b81526001600160a01b0385166004820152602401610746565b505050505050565b60607f0542a41881ee128a365a727b282c86fa859579490b9bb45aab8503648c8e7900611b4c836113e7565b5060008381526020829052604081208054611b6690612bf4565b80601f0160208091040260200160405190810160405280929190818152602001828054611b9290612bf4565b8015611bdf5780601f10611bb457610100808354040283529160200191611bdf565b820191906000526020600020905b815481529060010190602001808311611bc257829003601f168201915b505050505090506000611bfd60408051602081019091526000815290565b90508051600003611c1057509392505050565b815115611c43578082604051602001611c2a929190612dd2565b6040516020818303038152906040529350505050919050565b611c4c85611f34565b95945050505050565b60006001600160e01b03198216632483248360e11b1480610627575061062782611fa9565b60009081527f80bb2b638cc20bc4d0a60d66940f3ab4a00c1d7b313497ca82fb0b4ab007930260205260409020546001600160a01b031690565b600080516020612e4b8339815191528180611cd757506001600160a01b03831615155b15611d99576000611ce7856113e7565b90506001600160a01b03841615801590611d135750836001600160a01b0316816001600160a01b031614155b8015611d265750611d248185611280565b155b15611d4f5760405163a9fbf51f60e01b81526001600160a01b0385166004820152602401610746565b8215611d975784866001600160a01b0316826001600160a01b03167f8c5be1e5ebec7d5bd14f71427d1e84f3dd0314c0f7b2291e5b200ac8c7c3b92560405160405180910390a45b505b600093845260040160205250506040902080546001600160a01b0319166001600160a01b0392909216919091179055565b6000611dd4611f03565b611677848484611fce565b611de98282611041565b6106f15760405163e2517d3f60e01b81526001600160a01b038216600482015260248101839052604401610746565b600080516020612ecb8339815191525460ff166108ca57604051638dfc202b60e01b815260040160405180910390fd5b611e5283836120c7565b6108953360008585856119f6565b7ff0c57e16840df040f15088dc2f81fe391c3923bec73e23a9662efc9c229c6a0054600160401b900460ff166108ca57604051631afcd79f60e31b815260040160405180910390fd5b61138c611e60565b611eb9611e60565b600080516020612e4b83398151915280611ed38482612ca4565b50600181016107aa8382612ca4565b611eea611e60565b600080516020612ecb833981519152805460ff19169055565b600080516020612ecb8339815191525460ff16156108ca5760405163d93c066560e01b815260040160405180910390fd5b6060611f3f826113e7565b506000611f5760408051602081019091526000815290565b90506000815111611f775760405180602001604052806000815250611fa2565b80611f818461212c565b604051602001611f92929190612dd2565b6040516020818303038152906040525b9392505050565b60006001600160e01b0319821663780e9d6360e01b14806106275750610627826121be565b600080611fdc85858561220e565b90506001600160a01b0381166120655761206084600080516020612e8b833981519152805460008381527f645e039705490088daad89bae25049a34f4a9072d398537b1ab2425f24cbed0360205260408120829055600182018355919091527fa42f15e5d656f8155fd7419d740a6073999f19cd6e061449ce4a257150545bf20155565b612088565b846001600160a01b0316816001600160a01b031614612088576120888185612318565b6001600160a01b0385166120a45761209f846123b4565b611677565b846001600160a01b0316816001600160a01b03161461167757611677858561248b565b6001600160a01b0382166120f157604051633250574960e11b815260006004820152602401610746565b60006120ff838360006114d9565b90506001600160a01b03811615610895576040516339e3563760e11b815260006004820152602401610746565b60606000612139836124e6565b60010190506000816001600160401b038111156121585761215861277c565b6040519080825280601f01601f191660200182016040528015612182576020820181803683370190505b5090508181016020015b600019016f181899199a1a9b1b9c1cb0b131b232b360811b600a86061a8153600a850494508461218c57509392505050565b60006001600160e01b031982166380ac58cd60e01b14806121ef57506001600160e01b03198216635b5e139f60e01b145b8061062757506301ffc9a760e01b6001600160e01b0319831614610627565b6000600080516020612e4b8339815191528161222985611c7a565b90506001600160a01b03841615612245576122458185876125be565b6001600160a01b0381161561228557612262600086600080611cb4565b6001600160a01b0381166000908152600383016020526040902080546000190190555b6001600160a01b038616156122b6576001600160a01b03861660009081526003830160205260409020805460010190555b600085815260028301602052604080822080546001600160a01b0319166001600160a01b038a811691821790925591518893918516917fddf252ad1be2c89b69c2b068fc378daa952ba7f163c4a11628f55a4df523b3ef91a495945050505050565b600080516020612e2b833981519152600061233284610dd8565b60008481526001840160209081526040808320546001600160a01b0389168452918690529091209192509081831461238c576000838152602082815260408083205485845281842081905583526001870190915290208290555b6000948552600190930160209081526040808620869055928552929092528220919091555050565b600080516020612e8b83398151915254600080516020612e2b833981519152906000906123e390600190612e01565b600084815260038401602052604081205460028501805493945090928490811061240f5761240f612d62565b906000526020600020015490508084600201838154811061243257612432612d62565b60009182526020808320909101929092558281526003860190915260408082208490558682528120556002840180548061246e5761246e612e14565b600190038181906000526020600020016000905590555050505050565b600080516020612e2b833981519152600060016124a785610dd8565b6124b19190612e01565b6001600160a01b0390941660009081526020838152604080832087845282528083208690559482526001909301909252502055565b60008072184f03e93ff9f4daa797ed6e38ed64bf6a1f0160401b83106125255772184f03e93ff9f4daa797ed6e38ed64bf6a1f0160401b830492506040015b6d04ee2d6d415b85acef81000000008310612551576d04ee2d6d415b85acef8100000000830492506020015b662386f26fc10000831061256f57662386f26fc10000830492506010015b6305f5e1008310612587576305f5e100830492506008015b612710831061259b57612710830492506004015b606483106125ad576064830492506002015b600a83106106275760010192915050565b6125c9838383612622565b610895576001600160a01b0383166125f757604051637e27328960e01b815260048101829052602401610746565b60405163177e802f60e01b81526001600160a01b038316600482015260248101829052604401610746565b60006001600160a01b038316158015906116775750826001600160a01b0316846001600160a01b0316148061265c575061265c8484611280565b806116775750826001600160a01b03166126758361141f565b6001600160a01b031614949350505050565b6001600160e01b0319811681146113bf57600080fd5b6000602082840312156126af57600080fd5b8135611fa281612687565b60005b838110156126d55781810151838201526020016126bd565b50506000910152565b600081518084526126f68160208601602086016126ba565b601f01601f19169290920160200192915050565b602081526000611fa260208301846126de565b60006020828403121561272f57600080fd5b5035919050565b80356001600160a01b038116811461274d57600080fd5b919050565b6000806040838503121561276557600080fd5b61276e83612736565b946020939093013593505050565b634e487b7160e01b600052604160045260246000fd5b604051601f8201601f191681016001600160401b03811182821017156127ba576127ba61277c565b604052919050565b6000806001600160401b038411156127dc576127dc61277c565b50601f8301601f19166020016127f181612792565b91505082815283838301111561280657600080fd5b828260208301376000602084830101529392505050565b600082601f83011261282e57600080fd5b611fa2838335602085016127c2565b6000806040838503121561285057600080fd5b8235915060208301356001600160401b0381111561286d57600080fd5b6128798582860161281d565b9150509250929050565b60008060006060848603121561289857600080fd5b6128a184612736565b92506128af60208501612736565b929592945050506040919091013590565b600080604083850312156128d357600080fd5b823591506128e360208401612736565b90509250929050565b6000602082840312156128fe57600080fd5b611fa282612736565b8035801515811461274d57600080fd5b600080600080600080600060e0888a03121561293257600080fd5b8735965061294260208901612907565b95506040880135945060608801356001600160401b0381111561296457600080fd5b6129708a828b0161281d565b979a969950949760808101359660a0820135965060c090910135945092505050565b60008060008060008060c087890312156129ab57600080fd5b863595506020870135945060408701356001600160401b038111156129cf57600080fd5b6129db89828a0161281d565b969995985095966060810135965060808101359560a090910135945092505050565b60008060408385031215612a1057600080fd5b612a1983612736565b91506128e360208401612907565b60008060008060808587031215612a3d57600080fd5b612a4685612736565b9350612a5460208601612736565b92506040850135915060608501356001600160401b03811115612a7657600080fd5b8501601f81018713612a8757600080fd5b612a96878235602084016127c2565b91505092959194509250565b602080825282518282018190526000918401906040840190835b81811015612ada578351835260209384019390920191600101612abc565b509095945050505050565b600060208284031215612af757600080fd5b81356001600160401b03811115612b0d57600080fd5b8201601f81018413612b1e57600080fd5b80356001600160401b03811115612b3757612b3761277c565b8060051b612b4760208201612792565b91825260208184018101929081019087841115612b6357600080fd5b6020850194505b83851015612b8957843580835260209586019590935090910190612b6a565b979650505050505050565b60008060408385031215612ba757600080fd5b612bb083612736565b91506128e360208401612736565b85815260a060208201526000612bd760a08301876126de565b604083019590955250606081019290925260809091015292915050565b600181811c90821680612c0857607f821691505b602082108103612c2857634e487b7160e01b600052602260045260246000fd5b50919050565b634e487b7160e01b600052601160045260246000fd5b600060018201612c5657612c56612c2e565b5060010190565b601f82111561089557806000526020600020601f840160051c81016020851015612c845750805b601f840160051c820191505b81811015610ffc5760008155600101612c90565b81516001600160401b03811115612cbd57612cbd61277c565b612cd181612ccb8454612bf4565b84612c5d565b6020601f821160018114612d055760008315612ced5750848201515b600019600385901b1c1916600184901b178455610ffc565b600084815260208120601f198516915b82811015612d355787850151825560209485019460019092019101612d15565b5084821015612d535786840151600019600387901b60f8161c191681555b50505050600190811b01905550565b634e487b7160e01b600052603260045260246000fd5b6001600160a01b0385811682528416602082015260408101839052608060608201819052600090612dab908301846126de565b9695505050505050565b600060208284031215612dc757600080fd5b8151611fa281612687565b60008351612de48184602088016126ba565b835190830190612df88183602088016126ba565b01949350505050565b8181038181111561062757610627612c2e565b634e487b7160e01b600052603160045260246000fdfe645e039705490088daad89bae25049a34f4a9072d398537b1ab2425f24cbed0080bb2b638cc20bc4d0a60d66940f3ab4a00c1d7b313497ca82fb0b4ab00793009f2df0fed2c77648de5860a4cc508cd0818c85b8b8a1ab4ceeef8d981c8956a6645e039705490088daad89bae25049a34f4a9072d398537b1ab2425f24cbed0202dd7bc7dec4dceedda775e58dd541e08a116c6c53815c0bd028192f7b626800cd5ed15c6e187e77e9aee88184c21f4f2182ab5827cb3b7e07fbedcd63f03300a2646970667358221220fa27d21ba318b70fbd07f3056f5adc0bdf69333a5071b13823c8c58e1d3af43c64736f6c634300081c0033",
  "linkReferences": {},
  "deployedLinkReferences": {}
}