{
  "_format": "hh-sol-artifact-1",
  "contractName": "Property_NFT",
  "sourceName": "contracts/Property_NFT.sol",
  "abi": [
    {
      "inputs": [],
      "stateMutability": "nonpayable",
      "type": "constructor"
    },
    {
      "inputs": [],
      "name": "AccessControlBadConfirmation",
      "type": "error"
    },
    {
      "inputs": [
        {
          "internalType": "address",
          "name": "account",
          "type": "address"
        },
        {
          "internalType": "bytes32",
          "name": "neededRole",
          "type": "bytes32"
        }
      ],
      "name": "AccessControlUnauthorizedAccount",
      "type": "error"
    },
    {
      "inputs": [],
      "name": "ERC721EnumerableForbiddenBatchMint",
      "type": "error"
    },
    {
      "inputs": [
        {
          "internalType": "address",
          "name": "sender",
          "type": "address"
        },
        {
          "internalType": "uint256",
          "name": "tokenId",
          "type": "uint256"
        },
        {
          "internalType": "address",
          "name": "owner",
          "type": "address"
        }
      ],
      "name": "ERC721IncorrectOwner",
      "type": "error"
    },
    {
      "inputs": [
        {
          "internalType": "address",
          "name": "operator",
          "type": "address"
        },
        {
          "internalType": "uint256",
          "name": "tokenId",
          "type": "uint256"
        }
      ],
      "name": "ERC721InsufficientApproval",
      "type": "error"
    },
    {
      "inputs": [
        {
          "internalType": "address",
          "name": "approver",
          "type": "address"
        }
      ],
      "name": "ERC721InvalidApprover",
      "type": "error"
    },
    {
      "inputs": [
        {
          "internalType": "address",
          "name": "operator",
          "type": "address"
        }
      ],
      "name": "ERC721InvalidOperator",
      "type": "error"
    },
    {
      "inputs": [
        {
          "internalType": "address",
          "name": "owner",
          "type": "address"
        }
      ],
      "name": "ERC721InvalidOwner",
      "type": "error"
    },
    {
      "inputs": [
        {
          "internalType": "address",
          "name": "receiver",
          "type": "address"
        }
      ],
      "name": "ERC721InvalidReceiver",
      "type": "error"
    },
    {
      "inputs": [
        {
          "internalType": "address",
          "name": "sender",
          "type": "address"
        }
      ],
      "name": "ERC721InvalidSender",
      "type": "error"
    },
    {
      "inputs": [
        {
          "internalType": "uint256",
          "name": "tokenId",
          "type": "uint256"
        }
      ],
      "name": "ERC721NonexistentToken",
      "type": "error"
    },
    {
      "inputs": [
        {
          "internalType": "address",
          "name": "owner",
          "type": "address"
        },
        {
          "internalType": "uint256",
          "name": "index",
          "type": "uint256"
        }
      ],
      "name": "ERC721OutOfBoundsIndex",
      "type": "error"
    },
    {
      "inputs": [],
      "name": "EnforcedPause",
      "type": "error"
    },
    {
      "inputs": [],
      "name": "ExpectedPause",
      "type": "error"
    },
    {
      "inputs": [],
      "name": "InvalidInitialization",
      "type": "error"
    },
    {
      "inputs": [],
      "name": "NotInitializing",
      "type": "error"
    },
    {
      "inputs": [
        {
          "internalType": "address",
          "name": "owner",
          "type": "address"
        }
      ],
      "name": "OwnableInvalidOwner",
      "type": "error"
    },
    {
      "inputs": [
        {
          "internalType": "address",
          "name": "account",
          "type": "address"
        }
      ],
      "name": "OwnableUnauthorizedAccount",
      "type": "error"
    },
    {
      "anonymous": false,
      "inputs": [
        {
          "indexed": true,
          "internalType": "address",
          "name": "owner",
          "type": "address"
        },
        {
          "indexed": true,
          "internalType": "address",
          "name": "approved",
          "type": "address"
        },
        {
          "indexed": true,
          "internalType": "uint256",
          "name": "tokenId",
          "type": "uint256"
        }
      ],
      "name": "Approval",
      "type": "event"
    },
    {
      "anonymous": false,
      "inputs": [
        {
          "indexed": true,
          "internalType": "address",
          "name": "owner",
          "type": "address"
        },
        {
          "indexed": true,
          "internalType": "address",
          "name": "operator",
          "type": "address"
        },
        {
          "indexed": false,
          "internalType": "bool",
          "name": "approved",
          "type": "bool"
        }
      ],
      "name": "ApprovalForAll",
      "type": "event"
    },
    {
      "anonymous": false,
      "inputs": [
        {
          "indexed": false,
          "internalType": "uint256[]",
          "name": "tokenId",
          "type": "uint256[]"
        }
      ],
      "name": "BatchBurned",
      "type": "event"
    },
    {
      "anonymous": false,
      "inputs": [
        {
          "indexed": false,
          "internalType": "uint256",
          "name": "_fromTokenId",
          "type": "uint256"
        },
        {
          "indexed": false,
          "internalType": "uint256",
          "name": "_toTokenId",
          "type": "uint256"
        }
      ],
      "name": "BatchMetadataUpdate",
      "type": "event"
    },
    {
      "anonymous": false,
      "inputs": [
        {
          "indexed": false,
          "internalType": "address",
          "name": "to",
          "type": "address"
        },
        {
          "indexed": false,
          "internalType": "uint256[]",
          "name": "tokenId",
          "type": "uint256[]"
        }
      ],
      "name": "BatchMinted",
      "type": "event"
    },
    {
      "anonymous": false,
      "inputs": [
        {
          "indexed": false,
          "internalType": "address",
          "name": "user",
          "type": "address"
        },
        {
          "indexed": false,
          "internalType": "uint256",
          "name": "tokenId",
          "type": "uint256"
        }
      ],
      "name": "Burned",
      "type": "event"
    },
    {
      "anonymous": false,
      "inputs": [
        {
          "indexed": false,
          "internalType": "uint64",
          "name": "version",
          "type": "uint64"
        }
      ],
      "name": "Initialized",
      "type": "event"
    },
    {
      "anonymous": false,
      "inputs": [
        {
          "indexed": false,
          "internalType": "uint256",
          "name": "_tokenId",
          "type": "uint256"
        }
      ],
      "name": "MetadataUpdate",
      "type": "event"
    },
    {
      "anonymous": false,
      "inputs": [
        {
          "indexed": false,
          "internalType": "address",
          "name": "to",
          "type": "address"
        },
        {
          "indexed": false,
          "internalType": "uint256",
          "name": "tokenId",
          "type": "uint256"
        }
      ],
      "name": "Minted",
      "type": "event"
    },
    {
      "anonymous": false,
      "inputs": [
        {
          "indexed": true,
          "internalType": "address",
          "name": "previousOwner",
          "type": "address"
        },
        {
          "indexed": true,
          "internalType": "address",
          "name": "newOwner",
          "type": "address"
        }
      ],
      "name": "OwnershipTransferred",
      "type": "event"
    },
    {
      "anonymous": false,
      "inputs": [
        {
          "indexed": false,
          "internalType": "address",
          "name": "account",
          "type": "address"
        }
      ],
      "name": "Paused",
      "type": "event"
    },
    {
      "anonymous": false,
      "inputs": [
        {
          "indexed": true,
          "internalType": "bytes32",
          "name": "role",
          "type": "bytes32"
        },
        {
          "indexed": true,
          "internalType": "bytes32",
          "name": "previousAdminRole",
          "type": "bytes32"
        },
        {
          "indexed": true,
          "internalType": "bytes32",
          "name": "newAdminRole",
          "type": "bytes32"
        }
      ],
      "name": "RoleAdminChanged",
      "type": "event"
    },
    {
      "anonymous": false,
      "inputs": [
        {
          "indexed": true,
          "internalType": "bytes32",
          "name": "role",
          "type": "bytes32"
        },
        {
          "indexed": true,
          "internalType": "address",
          "name": "account",
          "type": "address"
        },
        {
          "indexed": true,
          "internalType": "address",
          "name": "sender",
          "type": "address"
        }
      ],
      "name": "RoleGranted",
      "type": "event"
    },
    {
      "anonymous": false,
      "inputs": [
        {
          "indexed": true,
          "internalType": "bytes32",
          "name": "role",
          "type": "bytes32"
        },
        {
          "indexed": true,
          "internalType": "address",
          "name": "account",
          "type": "address"
        },
        {
          "indexed": true,
          "internalType": "address",
          "name": "sender",
          "type": "address"
        }
      ],
      "name": "RoleRevoked",
      "type": "event"
    },
    {
      "anonymous": false,
      "inputs": [
        {
          "indexed": true,
          "internalType": "address",
          "name": "from",
          "type": "address"
        },
        {
          "indexed": true,
          "internalType": "address",
          "name": "to",
          "type": "address"
        },
        {
          "indexed": true,
          "internalType": "uint256",
          "name": "tokenId",
          "type": "uint256"
        }
      ],
      "name": "Transfer",
      "type": "event"
    },
    {
      "anonymous": false,
      "inputs": [
        {
          "indexed": false,
          "internalType": "address",
          "name": "account",
          "type": "address"
        }
      ],
      "name": "Unpaused",
      "type": "event"
    },
    {
      "inputs": [],
      "name": "DEFAULT_ADMIN_ROLE",
      "outputs": [
        {
          "internalType": "bytes32",
          "name": "",
          "type": "bytes32"
        }
      ],
      "stateMutability": "view",
      "type": "function"
    },
    {
      "inputs": [],
      "name": "MINTER_ROLE",
      "outputs": [
        {
          "internalType": "bytes32",
          "name": "",
          "type": "bytes32"
        }
      ],
      "stateMutability": "view",
      "type": "function"
    },
    {
      "inputs": [
        {
          "internalType": "address",
          "name": "_account",
          "type": "address"
        }
      ],
      "name": "addToBlacklist",
      "outputs": [],
      "stateMutability": "nonpayable",
      "type": "function"
    },
    {
      "inputs": [
        {
          "internalType": "address",
          "name": "to",
          "type": "address"
        },
        {
          "internalType": "uint256",
          "name": "tokenId",
          "type": "uint256"
        }
      ],
      "name": "approve",
      "outputs": [],
      "stateMutability": "nonpayable",
      "type": "function"
    },
    {
      "inputs": [
        {
          "internalType": "address",
          "name": "owner",
          "type": "address"
        }
      ],
      "name": "balanceOf",
      "outputs": [
        {
          "internalType": "uint256",
          "name": "",
          "type": "uint256"
        }
      ],
      "stateMutability": "view",
      "type": "function"
    },
    {
      "inputs": [
        {
          "internalType": "uint256",
          "name": "tokenId",
          "type": "uint256"
        }
      ],
      "name": "burn",
      "outputs": [],
      "stateMutability": "nonpayable",
      "type": "function"
    },
    {
      "inputs": [
        {
          "internalType": "uint256[]",
          "name": "tokenIds",
          "type": "uint256[]"
        }
      ],
      "name": "burnBatch",
      "outputs": [],
      "stateMutability": "nonpayable",
      "type": "function"
    },
    {
      "inputs": [
        {
          "internalType": "uint256",
          "name": "tokenId",
          "type": "uint256"
        }
      ],
      "name": "getApproved",
      "outputs": [
        {
          "internalType": "address",
          "name": "",
          "type": "address"
        }
      ],
      "stateMutability": "view",
      "type": "function"
    },
    {
      "inputs": [],
      "name": "getNextTokenId",
      "outputs": [
        {
          "internalType": "uint256",
          "name": "",
          "type": "uint256"
        }
      ],
      "stateMutability": "view",
      "type": "function"
    },
    {
      "inputs": [
        {
          "internalType": "bytes32",
          "name": "role",
          "type": "bytes32"
        }
      ],
      "name": "getRoleAdmin",
      "outputs": [
        {
          "internalType": "bytes32",
          "name": "",
          "type": "bytes32"
        }
      ],
      "stateMutability": "view",
      "type": "function"
    },
    {
      "inputs": [
        {
          "internalType": "address",
          "name": "_minter",
          "type": "address"
        }
      ],
      "name": "grantMinterRole",
      "outputs": [],
      "stateMutability": "nonpayable",
      "type": "function"
    },
    {
      "inputs": [
        {
          "internalType": "bytes32",
          "name": "role",
          "type": "bytes32"
        },
        {
          "internalType": "address",
          "name": "account",
          "type": "address"
        }
      ],
      "name": "grantRole",
      "outputs": [],
      "stateMutability": "nonpayable",
      "type": "function"
    },
    {
      "inputs": [
        {
          "internalType": "bytes32",
          "name": "role",
          "type": "bytes32"
        },
        {
          "internalType": "address",
          "name": "account",
          "type": "address"
        }
      ],
      "name": "hasRole",
      "outputs": [
        {
          "internalType": "bool",
          "name": "",
          "type": "bool"
        }
      ],
      "stateMutability": "view",
      "type": "function"
    },
    {
      "inputs": [],
      "name": "initialize",
      "outputs": [],
      "stateMutability": "nonpayable",
      "type": "function"
    },
    {
      "inputs": [
        {
          "internalType": "address",
          "name": "owner",
          "type": "address"
        },
        {
          "internalType": "address",
          "name": "operator",
          "type": "address"
        }
      ],
      "name": "isApprovedForAll",
      "outputs": [
        {
          "internalType": "bool",
          "name": "",
          "type": "bool"
        }
      ],
      "stateMutability": "view",
      "type": "function"
    },
    {
      "inputs": [
        {
          "internalType": "address",
          "name": "_account",
          "type": "address"
        }
      ],
      "name": "isBlackListed",
      "outputs": [
        {
          "internalType": "bool",
          "name": "",
          "type": "bool"
        }
      ],
      "stateMutability": "view",
      "type": "function"
    },
    {
      "inputs": [],
      "name": "marketplace",
      "outputs": [
        {
          "internalType": "contract Imarketplace",
          "name": "",
          "type": "address"
        }
      ],
      "stateMutability": "view",
      "type": "function"
    },
    {
      "inputs": [
        {
          "internalType": "uint256",
          "name": "price",
          "type": "uint256"
        },
        {
          "internalType": "bool",
          "name": "canBid",
          "type": "bool"
        },
        {
          "internalType": "uint256",
          "name": "propertyType",
          "type": "uint256"
        },
        {
          "internalType": "string",
          "name": "physicalAddress",
          "type": "string"
        },
        {
          "internalType": "uint256",
          "name": "rooms",
          "type": "uint256"
        },
        {
          "internalType": "uint256",
          "name": "bathrooms",
          "type": "uint256"
        },
        {
          "internalType": "uint256",
          "name": "area",
          "type": "uint256"
        }
      ],
      "name": "mint",
      "outputs": [],
      "stateMutability": "nonpayable",
      "type": "function"
    },
    {
      "inputs": [],
      "name": "name",
      "outputs": [
        {
          "internalType": "string",
          "name": "",
          "type": "string"
        }
      ],
      "stateMutability": "view",
      "type": "function"
    },
    {
      "inputs": [],
      "name": "owner",
      "outputs": [
        {
          "internalType": "address",
          "name": "",
          "type": "address"
        }
      ],
      "stateMutability": "view",
      "type": "function"
    },
    {
      "inputs": [
        {
          "internalType": "uint256",
          "name": "tokenId",
          "type": "uint256"
        }
      ],
      "name": "ownerOf",
      "outputs": [
        {
          "internalType": "address",
          "name": "",
          "type": "address"
        }
      ],
      "stateMutability": "view",
      "type": "function"
    },
    {
      "inputs": [],
      "name": "pause",
      "outputs": [],
      "stateMutability": "nonpayable",
      "type": "function"
    },
    {
      "inputs": [],
      "name": "paused",
      "outputs": [
        {
          "internalType": "bool",
          "name": "",
          "type": "bool"
        }
      ],
      "stateMutability": "view",
      "type": "function"
    },
    {
      "inputs": [
        {
          "internalType": "uint256",
          "name": "",
          "type": "uint256"
        }
      ],
      "name": "propertyFeature",
      "outputs": [
        {
          "internalType": "uint256",
          "name": "propertyType",
          "type": "uint256"
        },
        {
          "internalType": "string",
          "name": "physicalAddress",
          "type": "string"
        },
        {
          "internalType": "uint256",
          "name": "rooms",
          "type": "uint256"
        },
        {
          "internalType": "uint256",
          "name": "bathrooms",
          "type": "uint256"
        },
        {
          "internalType": "uint256",
          "name": "area",
          "type": "uint256"
        }
      ],
      "stateMutability": "view",
      "type": "function"
    },
    {
      "inputs": [
        {
          "internalType": "address",
          "name": "_account",
          "type": "address"
        }
      ],
      "name": "removeFromBlacklist",
      "outputs": [],
      "stateMutability": "nonpayable",
      "type": "function"
    },
    {
      "inputs": [],
      "name": "renounceOwnership",
      "outputs": [],
      "stateMutability": "nonpayable",
      "type": "function"
    },
    {
      "inputs": [
        {
          "internalType": "bytes32",
          "name": "role",
          "type": "bytes32"
        },
        {
          "internalType": "address",
          "name": "callerConfirmation",
          "type": "address"
        }
      ],
      "name": "renounceRole",
      "outputs": [],
      "stateMutability": "nonpayable",
      "type": "function"
    },
    {
      "inputs": [
        {
          "internalType": "bytes32",
          "name": "role",
          "type": "bytes32"
        },
        {
          "internalType": "address",
          "name": "account",
          "type": "address"
        }
      ],
      "name": "revokeRole",
      "outputs": [],
      "stateMutability": "nonpayable",
      "type": "function"
    },
    {
      "inputs": [
        {
          "internalType": "address",
          "name": "from",
          "type": "address"
        },
        {
          "internalType": "address",
          "name": "to",
          "type": "address"
        },
        {
          "internalType": "uint256",
          "name": "tokenId",
          "type": "uint256"
        }
      ],
      "name": "safeTransferFrom",
      "outputs": [],
      "stateMutability": "nonpayable",
      "type": "function"
    },
    {
      "inputs": [
        {
          "internalType": "address",
          "name": "from",
          "type": "address"
        },
        {
          "internalType": "address",
          "name": "to",
          "type": "address"
        },
        {
          "internalType": "uint256",
          "name": "tokenId",
          "type": "uint256"
        },
        {
          "internalType": "bytes",
          "name": "data",
          "type": "bytes"
        }
      ],
      "name": "safeTransferFrom",
      "outputs": [],
      "stateMutability": "nonpayable",
      "type": "function"
    },
    {
      "inputs": [
        {
          "internalType": "address",
          "name": "operator",
          "type": "address"
        },
        {
          "internalType": "bool",
          "name": "approved",
          "type": "bool"
        }
      ],
      "name": "setApprovalForAll",
      "outputs": [],
      "stateMutability": "nonpayable",
      "type": "function"
    },
    {
      "inputs": [
        {
          "internalType": "address",
          "name": "_marketAddress",
          "type": "address"
        }
      ],
      "name": "setMarketplaceAddress",
      "outputs": [],
      "stateMutability": "nonpayable",
      "type": "function"
    },
    {
      "inputs": [
        {
          "internalType": "uint256",
          "name": "tokenId",
          "type": "uint256"
        },
        {
          "internalType": "string",
          "name": "_tokenURI",
          "type": "string"
        }
      ],
      "name": "setTokenURI",
      "outputs": [],
      "stateMutability": "nonpayable",
      "type": "function"
    },
    {
      "inputs": [
        {
          "internalType": "bytes4",
          "name": "interfaceId",
          "type": "bytes4"
        }
      ],
      "name": "supportsInterface",
      "outputs": [
        {
          "internalType": "bool",
          "name": "",
          "type": "bool"
        }
      ],
      "stateMutability": "view",
      "type": "function"
    },
    {
      "inputs": [],
      "name": "symbol",
      "outputs": [
        {
          "internalType": "string",
          "name": "",
          "type": "string"
        }
      ],
      "stateMutability": "view",
      "type": "function"
    },
    {
      "inputs": [
        {
          "internalType": "uint256",
          "name": "index",
          "type": "uint256"
        }
      ],
      "name": "tokenByIndex",
      "outputs": [
        {
          "internalType": "uint256",
          "name": "",
          "type": "uint256"
        }
      ],
      "stateMutability": "view",
      "type": "function"
    },
    {
      "inputs": [
        {
          "internalType": "address",
          "name": "owner",
          "type": "address"
        },
        {
          "internalType": "uint256",
          "name": "index",
          "type": "uint256"
        }
      ],
      "name": "tokenOfOwnerByIndex",
      "outputs": [
        {
          "internalType": "uint256",
          "name": "",
          "type": "uint256"
        }
      ],
      "stateMutability": "view",
      "type": "function"
    },
    {
      "inputs": [
        {
          "internalType": "uint256",
          "name": "tokenId",
          "type": "uint256"
        }
      ],
      "name": "tokenURI",
      "outputs": [
        {
          "internalType": "string",
          "name": "",
          "type": "string"
        }
      ],
      "stateMutability": "view",
      "type": "function"
    },
    {
      "inputs": [
        {
          "internalType": "address",
          "name": "_account",
          "type": "address"
        }
      ],
      "name": "tokensByAddress",
      "outputs": [
        {
          "internalType": "uint256[]",
          "name": "",
          "type": "uint256[]"
        }
      ],
      "stateMutability": "view",
      "type": "function"
    },
    {
      "inputs": [],
      "name": "totalSupply",
      "outputs": [
        {
          "internalType": "uint256",
          "name": "",
          "type": "uint256"
        }
      ],
      "stateMutability": "view",
      "type": "function"
    },
    {
      "inputs": [
        {
          "internalType": "address",
          "name": "from",
          "type": "address"
        },
        {
          "internalType": "address",
          "name": "to",
          "type": "address"
        },
        {
          "internalType": "uint256",
          "name": "tokenId",
          "type": "uint256"
        }
      ],
      "name": "transferFrom",
      "outputs": [],
      "stateMutability": "nonpayable",
      "type": "function"
    },
    {
      "inputs": [
        {
          "internalType": "address",
          "name": "newOwner",
          "type": "address"
        }
      ],
      "name": "transferOwnership",
      "outputs": [],
      "stateMutability": "nonpayable",
      "type": "function"
    },
    {
      "inputs": [],
      "name": "unpause",
      "outputs": [],
      "stateMutability": "nonpayable",
      "type": "function"
    }
  ],
  "bytecode": "0x608060405234801561001057600080fd5b50604080518082018252601481527f5442573234205265616c457374617465205257410000000000000000000000006020808301919091528251808401909352600883526750524f504552545960c01b9083015290338061008b57604051631e4fbdf760e01b81526000600482015260240160405180910390fd5b610094816100c0565b5060016100a183826101af565b5060026100ae82826101af565b5050600c805460ff191690555061026d565b600080546001600160a01b038381166001600160a01b0319831681178455604051919092169283917f8be0079c531659141344cd1fd0a4f28419497f9722a3daafe3b4186f6b6457e09190a35050565b634e487b7160e01b600052604160045260246000fd5b600181811c9082168061013a57607f821691505b60208210810361015a57634e487b7160e01b600052602260045260246000fd5b50919050565b601f8211156101aa57806000526020600020601f840160051c810160208510156101875750805b601f840160051c820191505b818110156101a75760008155600101610193565b50505b505050565b81516001600160401b038111156101c8576101c8610110565b6101dc816101d68454610126565b84610160565b6020601f82116001811461021057600083156101f85750848201515b600019600385901b1c1916600184901b1784556101a7565b600084815260208120601f198516915b828110156102405787850151825560209485019460019092019101610220565b508482101561025e5786840151600019600387901b60f8161c191681555b50505050600190811b01905550565b6128168061027c6000396000f3fe608060405234801561001057600080fd5b50600436106102695760003560e01c8063715018a611610151578063b88d4fde116100c3578063d6bc594211610087578063d6bc594214610518578063e4623c1b14610538578063e47d60601461054b578063e985e9c514610577578063f16890fe1461058a578063f2fde38b146105ae57600080fd5b8063b88d4fde146104c2578063c87b56dd146104d5578063caa0f92a146104e8578063d5391393146104f0578063d547741f1461050557600080fd5b806395d89b411161011557806395d89b4114610466578063a195322b1461046e578063a217fddf14610481578063a22cb46514610489578063abc8c7af1461049c578063b47cc556146104af57600080fd5b8063715018a61461042a5780638129fc1c146104325780638456cb591461043a5780638da5cb5b1461044257806391d148541461045357600080fd5b806336568abe116101ea57806344337ea1116101ae57806344337ea1146103c05780634f6ccce7146103d3578063537df3b6146103e65780635c975abb146103f95780636352211e1461040457806370a082311461041757600080fd5b806336568abe1461036c5780633dd1eb611461037f5780633f4ba83a1461039257806342842e0e1461039a57806342966c68146103ad57600080fd5b806318160ddd1161023157806318160ddd146102fe57806323b872dd14610310578063248a9ca3146103235780632f2ff15d146103465780632f745c591461035957600080fd5b806301ffc9a71461026e57806306fdde0314610296578063081812fc146102ab578063095ea7b3146102d6578063162094c4146102eb575b600080fd5b61028161027c366004612096565b6105c1565b60405190151581526020015b60405180910390f35b61029e6105d2565b60405161028d9190612103565b6102be6102b9366004612116565b610664565b6040516001600160a01b03909116815260200161028d565b6102e96102e436600461214b565b61068d565b005b6102e96102f9366004612238565b61069c565b6009545b60405190815260200161028d565b6102e961031e36600461227f565b6106c7565b610302610331366004612116565b6000908152600d602052604090206001015490565b6102e96103543660046122bc565b610757565b61030261036736600461214b565b61077c565b6102e961037a3660046122bc565b6107e1565b6102e961038d3660046122e8565b610819565b6102e9610839565b6102e96103a836600461227f565b61084b565b6102e96103bb366004612116565b610866565b6102e96103ce3660046122e8565b6108e8565b6103026103e1366004612116565b61097d565b6102e96103f43660046122e8565b6109d6565b600c5460ff16610281565b6102be610412366004612116565b610a67565b6103026104253660046122e8565b610a72565b6102e9610aba565b6102e9610acc565b6102e9610c22565b6000546001600160a01b03166102be565b6102816104613660046122bc565b610c32565b61029e610c5d565b6102e961047c366004612313565b610c6c565b610302600081565b6102e961049736600461238f565b610dbf565b600e546102be906001600160a01b031681565b6102e96104bd3660046122e8565b610dca565b6102e96104d03660046123b9565b610df4565b61029e6104e3366004612116565b610e0c565b600f54610302565b6103026000805160206127c183398151915281565b6102e96105133660046122bc565b610e17565b61052b6105263660046122e8565b610e3c565b60405161028d9190612435565b6102e9610546366004612478565b610ed4565b6102816105593660046122e8565b6001600160a01b031660009081526011602052604090205460ff1690565b610281610585366004612529565b610f91565b61059d610598366004612116565b610fbf565b60405161028d959493929190612553565b6102e96105bc3660046122e8565b611076565b60006105cc826110b4565b92915050565b6060600180546105e190612589565b80601f016020809104026020016040519081016040528092919081815260200182805461060d90612589565b801561065a5780601f1061062f5761010080835404028352916020019161065a565b820191906000526020600020905b81548152906001019060200180831161063d57829003601f168201915b5050505050905090565b600061066f826110d9565b506000828152600560205260409020546001600160a01b03166105cc565b610698828233611112565b5050565b6106b46000805160206127c183398151915233610c32565b6106bd57600080fd5b610698828261111f565b6001600160a01b0382166106f657604051633250574960e11b8152600060048201526024015b60405180910390fd5b6000610703838333611168565b9050836001600160a01b0316816001600160a01b031614610751576040516364283d7b60e01b81526001600160a01b03808616600483015260248201849052821660448201526064016106ed565b50505050565b6000828152600d6020526040902060010154610772816112de565b61075183836112e8565b600061078783610a72565b82106107b85760405163295f44f760e21b81526001600160a01b0384166004820152602481018390526044016106ed565b506001600160a01b03919091166000908152600760209081526040808320938352929052205490565b6001600160a01b038116331461080a5760405163334bd91960e11b815260040160405180910390fd5b610814828261137c565b505050565b6108216113e9565b6106986000805160206127c1833981519152826112e8565b6108416113e9565b610849611416565b565b61081483838360405180602001604052806000815250610df4565b61087e6000805160206127c183398151915233610c32565b61088757600080fd5b600061089282610a67565b90506108a060008383611168565b50604080516001600160a01b0383168152602081018490527f696de425f79f4a40bc6d2122ca50507f0efbeabbff86a84871b7196ab8ea8df791015b60405180910390a15050565b6108f06113e9565b6001600160a01b03811660009081526011602052604090205460ff16156109595760405162461bcd60e51b815260206004820152601e60248201527f4164647265737320697320616c726561647920626c61636b6c6973746564000060448201526064016106ed565b6001600160a01b03166000908152601160205260409020805460ff19166001179055565b600061098860095490565b82106109b15760405163295f44f760e21b815260006004820152602481018390526044016106ed565b600982815481106109c4576109c46125c3565b90600052602060002001549050919050565b6109de6113e9565b6001600160a01b03811660009081526011602052604090205460ff16610a465760405162461bcd60e51b815260206004820152601a60248201527f41646472657373206973206e6f7420626c61636b6c697374656400000000000060448201526064016106ed565b6001600160a01b03166000908152601160205260409020805460ff19169055565b60006105cc826110d9565b60006001600160a01b038216610a9e576040516322718ad960e21b8152600060048201526024016106ed565b506001600160a01b031660009081526004602052604090205490565b610ac26113e9565b6108496000611468565b7ff0c57e16840df040f15088dc2f81fe391c3923bec73e23a9662efc9c229c6a008054600160401b810460ff16159067ffffffffffffffff16600081158015610b125750825b905060008267ffffffffffffffff166001148015610b2f5750303b155b905081158015610b3d575080155b15610b5b5760405163f92ee8a960e01b815260040160405180910390fd5b845467ffffffffffffffff191660011785558315610b8557845460ff60401b1916600160401b1785555b610b8e33611468565b6001600f55610baf6000610baa6000546001600160a01b031690565b6112e8565b50610bd46000805160206127c1833981519152610baa6000546001600160a01b031690565b508315610c1b57845460ff60401b19168555604051600181527fc7f505b2f371ae2175ee4913f4499e1f2633a7b5936321eed1cdaeb6115181d29060200160405180910390a15b5050505050565b610c2a6113e9565b6108496114b8565b6000918252600d602090815260408084206001600160a01b0393909316845291905290205460ff1690565b6060600280546105e190612589565b600f805460009182610c7d836125ef565b90915550600e54909150610c9a906001600160a01b0316826114f5565b600e54604051638d5a29c560e01b815233600482015260248101839052604481018a905288151560648201526001600160a01b0390911690638d5a29c590608401600060405180830381600087803b158015610cf557600080fd5b505af1158015610d09573d6000803e3d6000fd5b50506040805160a08101825289815260208082018a81528284018a90526060830189905260808301889052600087815260109092529290208151815591519093509091506001820190610d5c908261264f565b506040828101516002830155606083015160038301556080909201516004909101558051338152602081018390527f30385c845b448a36257a6a1716e6ad2e1bc2cbe333cde1e69fe849ad6511adfe910160405180910390a15050505050505050565b61069833838361150f565b610dd26113e9565b600e80546001600160a01b0319166001600160a01b0392909216919091179055565b610dff8484846106c7565b61075133858585856115ae565b60606105cc826116d8565b6000828152600d6020526040902060010154610e32816112de565b610751838361137c565b60606000610e4983610a72565b905060008167ffffffffffffffff811115610e6657610e66612175565b604051908082528060200260200182016040528015610e8f578160200160208202803683370190505b50905060005b82811015610ecc57610ea7858261077c565b828281518110610eb957610eb96125c3565b6020908102919091010152600101610e95565b509392505050565b610eec6000805160206127c183398151915233610c32565b610ef557600080fd5b60005b8151811015610f56576000610f25838381518110610f1857610f186125c3565b6020026020010151610a67565b9050610f4c6000848481518110610f3e57610f3e6125c3565b602002602001015183611168565b5050600101610ef8565b507f0e1c53559b41a9c289620f6f0f2a78f54c490fd5521704b4b4095fe4396988bc81604051610f869190612435565b60405180910390a150565b6001600160a01b03918216600090815260066020908152604080832093909416825291909152205460ff1690565b60106020526000908152604090208054600182018054919291610fe190612589565b80601f016020809104026020016040519081016040528092919081815260200182805461100d90612589565b801561105a5780601f1061102f5761010080835404028352916020019161105a565b820191906000526020600020905b81548152906001019060200180831161103d57829003601f168201915b5050505050908060020154908060030154908060040154905085565b61107e6113e9565b6001600160a01b0381166110a857604051631e4fbdf760e01b8152600060048201526024016106ed565b6110b181611468565b50565b60006001600160e01b03198216637965db0b60e01b14806105cc57506105cc826117e1565b6000818152600360205260408120546001600160a01b0316806105cc57604051637e27328960e01b8152600481018490526024016106ed565b6108148383836001611806565b6000828152600b60205260409020611137828261264f565b506040518281527ff8e1a15aba9398e019f0b49df1a4fde98ee17ae345cb5f6b5e2c27f5033e8ce7906020016108dc565b6001600160a01b03811660009081526011602052604081205460ff16156111d15760405162461bcd60e51b815260206004820152601e60248201527f5f7570646174653a2053656e64657220697320626c61636b6c6973746564000060448201526064016106ed565b6001600160a01b03841660009081526011602052604090205460ff16156112445760405162461bcd60e51b815260206004820152602160248201527f5f7570646174653a20526563697069656e7420697320626c61636b6c697374656044820152601960fa1b60648201526084016106ed565b600e546001600160a01b038381169116148061126d5750600e546001600160a01b038581169116145b6112cb5760405162461bcd60e51b815260206004820152602960248201527f5f7570646174653a204e6f7420616c6c6f77656420746f207472616e73666572604482015268081d1a1a5cc813919560ba1b60648201526084016106ed565b6112d684848461190c565b949350505050565b6110b18133611921565b60006112f48383610c32565b611374576000838152600d602090815260408083206001600160a01b03861684529091529020805460ff1916600117905561132c3390565b6001600160a01b0316826001600160a01b0316847f2f8788117e7eff1d82e926ec794901d17c78024a50270940304540a733656f0d60405160405180910390a45060016105cc565b5060006105cc565b60006113888383610c32565b15611374576000838152600d602090815260408083206001600160a01b0386168085529252808320805460ff1916905551339286917ff6391f5c32d9c69d2a47ea670b442974b53935d1edc7fd64eb21e047a839171b9190a45060016105cc565b6000546001600160a01b031633146108495760405163118cdaa760e01b81523360048201526024016106ed565b61141e61195a565b600c805460ff191690557f5db9ee0a495bf2e6ff9c91a7834c1ba4fdd244a5e8aa4e537bd38aeae4b073aa335b6040516001600160a01b03909116815260200160405180910390a1565b600080546001600160a01b038381166001600160a01b0319831681178455604051919092169283917f8be0079c531659141344cd1fd0a4f28419497f9722a3daafe3b4186f6b6457e09190a35050565b6114c061197d565b600c805460ff191660011790557f62e78cea01bee320cd4e420270b5ea74000d11b0c9f74754ebdbfc544b05a25861144b3390565b6106988282604051806020016040528060008152506119a1565b6001600160a01b03821661154157604051630b61174360e31b81526001600160a01b03831660048201526024016106ed565b6001600160a01b03838116600081815260066020908152604080832094871680845294825291829020805460ff191686151590811790915591519182527f17307eab39ab6107e8899845ad3d59bd9653f200f220920489ca2b5937696c31910160405180910390a3505050565b6001600160a01b0383163b15610c1b57604051630a85bd0160e11b81526001600160a01b0384169063150b7a02906115f090889088908790879060040161270e565b6020604051808303816000875af192505050801561162b575060408051601f3d908101601f191682019092526116289181019061274b565b60015b611694573d808015611659576040519150601f19603f3d011682016040523d82523d6000602084013e61165e565b606091505b50805160000361168c57604051633250574960e11b81526001600160a01b03851660048201526024016106ed565b805181602001fd5b6001600160e01b03198116630a85bd0160e11b146116d057604051633250574960e11b81526001600160a01b03851660048201526024016106ed565b505050505050565b60606116e3826110d9565b506000828152600b6020526040812080546116fd90612589565b80601f016020809104026020016040519081016040528092919081815260200182805461172990612589565b80156117765780601f1061174b57610100808354040283529160200191611776565b820191906000526020600020905b81548152906001019060200180831161175957829003601f168201915b50505050509050600061179460408051602081019091526000815290565b905080516000036117a6575092915050565b8151156117d85780826040516020016117c0929190612768565b60405160208183030381529060405292505050919050565b6112d6846119b9565b60006001600160e01b03198216632483248360e11b14806105cc57506105cc82611a2e565b808061181a57506001600160a01b03821615155b156118dc57600061182a846110d9565b90506001600160a01b038316158015906118565750826001600160a01b0316816001600160a01b031614155b801561186957506118678184610f91565b155b156118925760405163a9fbf51f60e01b81526001600160a01b03841660048201526024016106ed565b81156118da5783856001600160a01b0316826001600160a01b03167f8c5be1e5ebec7d5bd14f71427d1e84f3dd0314c0f7b2291e5b200ac8c7c3b92560405160405180910390a45b505b5050600090815260056020526040902080546001600160a01b0319166001600160a01b0392909216919091179055565b600061191661197d565b6112d6848484611a53565b61192b8282610c32565b6106985760405163e2517d3f60e01b81526001600160a01b0382166004820152602481018390526044016106ed565b600c5460ff1661084957604051638dfc202b60e01b815260040160405180910390fd5b600c5460ff16156108495760405163d93c066560e01b815260040160405180910390fd5b6119ab8383611b20565b6108143360008585856115ae565b60606119c4826110d9565b5060006119dc60408051602081019091526000815290565b905060008151116119fc5760405180602001604052806000815250611a27565b80611a0684611b85565b604051602001611a17929190612768565b6040516020818303038152906040525b9392505050565b60006001600160e01b0319821663780e9d6360e01b14806105cc57506105cc82611c18565b600080611a61858585611c68565b90506001600160a01b038116611abe57611ab984600980546000838152600a60205260408120829055600182018355919091527f6e1540171b6c0c960b71a7020d9f60077f6af931a8bbf590da0223dacf75c7af0155565b611ae1565b846001600160a01b0316816001600160a01b031614611ae157611ae18185611d61565b6001600160a01b038516611afd57611af884611de2565b6112d6565b846001600160a01b0316816001600160a01b0316146112d6576112d68585611e91565b6001600160a01b038216611b4a57604051633250574960e11b8152600060048201526024016106ed565b6000611b5883836000611168565b90506001600160a01b03811615610814576040516339e3563760e11b8152600060048201526024016106ed565b60606000611b9283611ee1565b600101905060008167ffffffffffffffff811115611bb257611bb2612175565b6040519080825280601f01601f191660200182016040528015611bdc576020820181803683370190505b5090508181016020015b600019016f181899199a1a9b1b9c1cb0b131b232b360811b600a86061a8153600a8504945084611be657509392505050565b60006001600160e01b031982166380ac58cd60e01b1480611c4957506001600160e01b03198216635b5e139f60e01b145b806105cc57506301ffc9a760e01b6001600160e01b03198316146105cc565b6000828152600360205260408120546001600160a01b0390811690831615611c9557611c95818486611fb9565b6001600160a01b03811615611cd357611cb2600085600080611806565b6001600160a01b038116600090815260046020526040902080546000190190555b6001600160a01b03851615611d02576001600160a01b0385166000908152600460205260409020805460010190555b60008481526003602052604080822080546001600160a01b0319166001600160a01b0389811691821790925591518793918516917fddf252ad1be2c89b69c2b068fc378daa952ba7f163c4a11628f55a4df523b3ef91a4949350505050565b6000611d6c83610a72565b6000838152600860209081526040808320546001600160a01b0388168452600790925290912091925090818314611dc357600083815260208281526040808320548584528184208190558352600890915290208290555b6000938452600860209081526040808620869055938552525081205550565b600954600090611df490600190612797565b6000838152600a602052604081205460098054939450909284908110611e1c57611e1c6125c3565b906000526020600020015490508060098381548110611e3d57611e3d6125c3565b6000918252602080832090910192909255828152600a90915260408082208490558582528120556009805480611e7557611e756127aa565b6001900381819060005260206000200160009055905550505050565b60006001611e9e84610a72565b611ea89190612797565b6001600160a01b039093166000908152600760209081526040808320868452825280832085905593825260089052919091209190915550565b60008072184f03e93ff9f4daa797ed6e38ed64bf6a1f0160401b8310611f205772184f03e93ff9f4daa797ed6e38ed64bf6a1f0160401b830492506040015b6d04ee2d6d415b85acef81000000008310611f4c576d04ee2d6d415b85acef8100000000830492506020015b662386f26fc100008310611f6a57662386f26fc10000830492506010015b6305f5e1008310611f82576305f5e100830492506008015b6127108310611f9657612710830492506004015b60648310611fa8576064830492506002015b600a83106105cc5760010192915050565b611fc483838361201d565b610814576001600160a01b038316611ff257604051637e27328960e01b8152600481018290526024016106ed565b60405163177e802f60e01b81526001600160a01b0383166004820152602481018290526044016106ed565b60006001600160a01b038316158015906112d65750826001600160a01b0316846001600160a01b0316148061205757506120578484610f91565b806112d65750506000908152600560205260409020546001600160a01b03908116911614919050565b6001600160e01b0319811681146110b157600080fd5b6000602082840312156120a857600080fd5b8135611a2781612080565b60005b838110156120ce5781810151838201526020016120b6565b50506000910152565b600081518084526120ef8160208601602086016120b3565b601f01601f19169290920160200192915050565b602081526000611a2760208301846120d7565b60006020828403121561212857600080fd5b5035919050565b80356001600160a01b038116811461214657600080fd5b919050565b6000806040838503121561215e57600080fd5b6121678361212f565b946020939093013593505050565b634e487b7160e01b600052604160045260246000fd5b604051601f8201601f1916810167ffffffffffffffff811182821017156121b4576121b4612175565b604052919050565b60008067ffffffffffffffff8411156121d7576121d7612175565b50601f8301601f19166020016121ec8161218b565b91505082815283838301111561220157600080fd5b828260208301376000602084830101529392505050565b600082601f83011261222957600080fd5b611a27838335602085016121bc565b6000806040838503121561224b57600080fd5b82359150602083013567ffffffffffffffff81111561226957600080fd5b61227585828601612218565b9150509250929050565b60008060006060848603121561229457600080fd5b61229d8461212f565b92506122ab6020850161212f565b929592945050506040919091013590565b600080604083850312156122cf57600080fd5b823591506122df6020840161212f565b90509250929050565b6000602082840312156122fa57600080fd5b611a278261212f565b8035801515811461214657600080fd5b600080600080600080600060e0888a03121561232e57600080fd5b8735965061233e60208901612303565b955060408801359450606088013567ffffffffffffffff81111561236157600080fd5b61236d8a828b01612218565b979a969950949760808101359660a0820135965060c090910135945092505050565b600080604083850312156123a257600080fd5b6123ab8361212f565b91506122df60208401612303565b600080600080608085870312156123cf57600080fd5b6123d88561212f565b93506123e66020860161212f565b925060408501359150606085013567ffffffffffffffff81111561240957600080fd5b8501601f8101871361241a57600080fd5b612429878235602084016121bc565b91505092959194509250565b602080825282518282018190526000918401906040840190835b8181101561246d57835183526020938401939092019160010161244f565b509095945050505050565b60006020828403121561248a57600080fd5b813567ffffffffffffffff8111156124a157600080fd5b8201601f810184136124b257600080fd5b803567ffffffffffffffff8111156124cc576124cc612175565b8060051b6124dc6020820161218b565b918252602081840181019290810190878411156124f857600080fd5b6020850194505b8385101561251e578435808352602095860195909350909101906124ff565b979650505050505050565b6000806040838503121561253c57600080fd5b6125458361212f565b91506122df6020840161212f565b85815260a06020820152600061256c60a08301876120d7565b604083019590955250606081019290925260809091015292915050565b600181811c9082168061259d57607f821691505b6020821081036125bd57634e487b7160e01b600052602260045260246000fd5b50919050565b634e487b7160e01b600052603260045260246000fd5b634e487b7160e01b600052601160045260246000fd5b600060018201612601576126016125d9565b5060010190565b601f82111561081457806000526020600020601f840160051c8101602085101561262f5750805b601f840160051c820191505b81811015610c1b576000815560010161263b565b815167ffffffffffffffff81111561266957612669612175565b61267d816126778454612589565b84612608565b6020601f8211600181146126b157600083156126995750848201515b600019600385901b1c1916600184901b178455610c1b565b600084815260208120601f198516915b828110156126e157878501518255602094850194600190920191016126c1565b50848210156126ff5786840151600019600387901b60f8161c191681555b50505050600190811b01905550565b6001600160a01b0385811682528416602082015260408101839052608060608201819052600090612741908301846120d7565b9695505050505050565b60006020828403121561275d57600080fd5b8151611a2781612080565b6000835161277a8184602088016120b3565b83519083019061278e8183602088016120b3565b01949350505050565b818103818111156105cc576105cc6125d9565b634e487b7160e01b600052603160045260246000fdfe9f2df0fed2c77648de5860a4cc508cd0818c85b8b8a1ab4ceeef8d981c8956a6a2646970667358221220ad27b7932e604970e3380178e25a904955d4f9e855c426b5e77e0d939e16e0cb64736f6c634300081c0033",
  "linkReferences": {},
  "deployedLinkReferences": {}
}