{
  "_format": "hh-sol-artifact-1",
  "contractName": "tBUSD",
  "sourceName": "contracts/tBUSD.sol",
  "abi": [
    {
      "inputs": [],
      "stateMutability": "nonpayable",
      "type": "constructor"
    },
    {
      "inputs": [
        {
          "internalType": "address",
          "name": "spender",
          "type": "address"
        },
        {
          "internalType": "uint256",
          "name": "allowance",
          "type": "uint256"
        },
        {
          "internalType": "uint256",
          "name": "needed",
          "type": "uint256"
        }
      ],
      "name": "ERC20InsufficientAllowance",
      "type": "error"
    },
    {
      "inputs": [
        {
          "internalType": "address",
          "name": "sender",
          "type": "address"
        },
        {
          "internalType": "uint256",
          "name": "balance",
          "type": "uint256"
        },
        {
          "internalType": "uint256",
          "name": "needed",
          "type": "uint256"
        }
      ],
      "name": "ERC20InsufficientBalance",
      "type": "error"
    },
    {
      "inputs": [
        {
          "internalType": "address",
          "name": "approver",
          "type": "address"
        }
      ],
      "name": "ERC20InvalidApprover",
      "type": "error"
    },
    {
      "inputs": [
        {
          "internalType": "address",
          "name": "receiver",
          "type": "address"
        }
      ],
      "name": "ERC20InvalidReceiver",
      "type": "error"
    },
    {
      "inputs": [
        {
          "internalType": "address",
          "name": "sender",
          "type": "address"
        }
      ],
      "name": "ERC20InvalidSender",
      "type": "error"
    },
    {
      "inputs": [
        {
          "internalType": "address",
          "name": "spender",
          "type": "address"
        }
      ],
      "name": "ERC20InvalidSpender",
      "type": "error"
    },
    {
      "inputs": [],
      "name": "EnforcedPause",
      "type": "error"
    },
    {
      "inputs": [],
      "name": "ExpectedPause",
      "type": "error"
    },
    {
      "inputs": [],
      "name": "InvalidInitialization",
      "type": "error"
    },
    {
      "inputs": [],
      "name": "NotInitializing",
      "type": "error"
    },
    {
      "inputs": [
        {
          "internalType": "address",
          "name": "owner",
          "type": "address"
        }
      ],
      "name": "OwnableInvalidOwner",
      "type": "error"
    },
    {
      "inputs": [
        {
          "internalType": "address",
          "name": "account",
          "type": "address"
        }
      ],
      "name": "OwnableUnauthorizedAccount",
      "type": "error"
    },
    {
      "anonymous": false,
      "inputs": [
        {
          "indexed": true,
          "internalType": "address",
          "name": "owner",
          "type": "address"
        },
        {
          "indexed": true,
          "internalType": "address",
          "name": "spender",
          "type": "address"
        },
        {
          "indexed": false,
          "internalType": "uint256",
          "name": "value",
          "type": "uint256"
        }
      ],
      "name": "Approval",
      "type": "event"
    },
    {
      "anonymous": false,
      "inputs": [
        {
          "indexed": false,
          "internalType": "uint64",
          "name": "version",
          "type": "uint64"
        }
      ],
      "name": "Initialized",
      "type": "event"
    },
    {
      "anonymous": false,
      "inputs": [
        {
          "indexed": true,
          "internalType": "address",
          "name": "previousOwner",
          "type": "address"
        },
        {
          "indexed": true,
          "internalType": "address",
          "name": "newOwner",
          "type": "address"
        }
      ],
      "name": "OwnershipTransferred",
      "type": "event"
    },
    {
      "anonymous": false,
      "inputs": [
        {
          "indexed": false,
          "internalType": "address",
          "name": "account",
          "type": "address"
        }
      ],
      "name": "Paused",
      "type": "event"
    },
    {
      "anonymous": false,
      "inputs": [
        {
          "indexed": true,
          "internalType": "address",
          "name": "from",
          "type": "address"
        },
        {
          "indexed": true,
          "internalType": "address",
          "name": "to",
          "type": "address"
        },
        {
          "indexed": false,
          "internalType": "uint256",
          "name": "value",
          "type": "uint256"
        }
      ],
      "name": "Transfer",
      "type": "event"
    },
    {
      "anonymous": false,
      "inputs": [
        {
          "indexed": false,
          "internalType": "address",
          "name": "account",
          "type": "address"
        }
      ],
      "name": "Unpaused",
      "type": "event"
    },
    {
      "inputs": [
        {
          "internalType": "address",
          "name": "owner",
          "type": "address"
        },
        {
          "internalType": "address",
          "name": "spender",
          "type": "address"
        }
      ],
      "name": "allowance",
      "outputs": [
        {
          "internalType": "uint256",
          "name": "",
          "type": "uint256"
        }
      ],
      "stateMutability": "view",
      "type": "function"
    },
    {
      "inputs": [
        {
          "internalType": "address",
          "name": "spender",
          "type": "address"
        },
        {
          "internalType": "uint256",
          "name": "value",
          "type": "uint256"
        }
      ],
      "name": "approve",
      "outputs": [
        {
          "internalType": "bool",
          "name": "",
          "type": "bool"
        }
      ],
      "stateMutability": "nonpayable",
      "type": "function"
    },
    {
      "inputs": [
        {
          "internalType": "address",
          "name": "account",
          "type": "address"
        }
      ],
      "name": "balanceOf",
      "outputs": [
        {
          "internalType": "uint256",
          "name": "",
          "type": "uint256"
        }
      ],
      "stateMutability": "view",
      "type": "function"
    },
    {
      "inputs": [
        {
          "internalType": "uint256",
          "name": "value",
          "type": "uint256"
        }
      ],
      "name": "burn",
      "outputs": [],
      "stateMutability": "nonpayable",
      "type": "function"
    },
    {
      "inputs": [
        {
          "internalType": "address",
          "name": "account",
          "type": "address"
        },
        {
          "internalType": "uint256",
          "name": "value",
          "type": "uint256"
        }
      ],
      "name": "burnFrom",
      "outputs": [],
      "stateMutability": "nonpayable",
      "type": "function"
    },
    {
      "inputs": [],
      "name": "decimals",
      "outputs": [
        {
          "internalType": "uint8",
          "name": "",
          "type": "uint8"
        }
      ],
      "stateMutability": "view",
      "type": "function"
    },
    {
      "inputs": [],
      "name": "initialize",
      "outputs": [],
      "stateMutability": "nonpayable",
      "type": "function"
    },
    {
      "inputs": [
        {
          "internalType": "address",
          "name": "to",
          "type": "address"
        },
        {
          "internalType": "uint256",
          "name": "amount",
          "type": "uint256"
        }
      ],
      "name": "mint",
      "outputs": [],
      "stateMutability": "nonpayable",
      "type": "function"
    },
    {
      "inputs": [],
      "name": "name",
      "outputs": [
        {
          "internalType": "string",
          "name": "",
          "type": "string"
        }
      ],
      "stateMutability": "view",
      "type": "function"
    },
    {
      "inputs": [],
      "name": "owner",
      "outputs": [
        {
          "internalType": "address",
          "name": "",
          "type": "address"
        }
      ],
      "stateMutability": "view",
      "type": "function"
    },
    {
      "inputs": [],
      "name": "pause",
      "outputs": [],
      "stateMutability": "nonpayable",
      "type": "function"
    },
    {
      "inputs": [],
      "name": "paused",
      "outputs": [
        {
          "internalType": "bool",
          "name": "",
          "type": "bool"
        }
      ],
      "stateMutability": "view",
      "type": "function"
    },
    {
      "inputs": [],
      "name": "renounceOwnership",
      "outputs": [],
      "stateMutability": "nonpayable",
      "type": "function"
    },
    {
      "inputs": [],
      "name": "symbol",
      "outputs": [
        {
          "internalType": "string",
          "name": "",
          "type": "string"
        }
      ],
      "stateMutability": "view",
      "type": "function"
    },
    {
      "inputs": [],
      "name": "totalSupply",
      "outputs": [
        {
          "internalType": "uint256",
          "name": "",
          "type": "uint256"
        }
      ],
      "stateMutability": "view",
      "type": "function"
    },
    {
      "inputs": [
        {
          "internalType": "address",
          "name": "to",
          "type": "address"
        },
        {
          "internalType": "uint256",
          "name": "value",
          "type": "uint256"
        }
      ],
      "name": "transfer",
      "outputs": [
        {
          "internalType": "bool",
          "name": "",
          "type": "bool"
        }
      ],
      "stateMutability": "nonpayable",
      "type": "function"
    },
    {
      "inputs": [
        {
          "internalType": "address",
          "name": "from",
          "type": "address"
        },
        {
          "internalType": "address",
          "name": "to",
          "type": "address"
        },
        {
          "internalType": "uint256",
          "name": "value",
          "type": "uint256"
        }
      ],
      "name": "transferFrom",
      "outputs": [
        {
          "internalType": "bool",
          "name": "",
          "type": "bool"
        }
      ],
      "stateMutability": "nonpayable",
      "type": "function"
    },
    {
      "inputs": [
        {
          "internalType": "address",
          "name": "newOwner",
          "type": "address"
        }
      ],
      "name": "transferOwnership",
      "outputs": [],
      "stateMutability": "nonpayable",
      "type": "function"
    },
    {
      "inputs": [],
      "name": "unpause",
      "outputs": [],
      "stateMutability": "nonpayable",
      "type": "function"
    }
  ],
  "bytecode": "0x6080604052348015600f57600080fd5b506016601a565b60ca565b7ff0c57e16840df040f15088dc2f81fe391c3923bec73e23a9662efc9c229c6a00805468010000000000000000900460ff161560695760405163f92ee8a960e01b815260040160405180910390fd5b80546001600160401b039081161460c75780546001600160401b0319166001600160401b0390811782556040519081527fc7f505b2f371ae2175ee4913f4499e1f2633a7b5936321eed1cdaeb6115181d29060200160405180910390a15b50565b61100a806100d96000396000f3fe608060405234801561001057600080fd5b50600436106101215760003560e01c806370a08231116100ad5780638da5cb5b116100715780638da5cb5b1461026357806395d89b411461029d578063a9059cbb146102a5578063dd62ed3e146102b8578063f2fde38b146102cb57600080fd5b806370a0823114610202578063715018a61461023857806379cc6790146102405780638129fc1c146102535780638456cb591461025b57600080fd5b8063313ce567116100f4578063313ce567146101ab5780633f4ba83a146101ba57806340c10f19146101c457806342966c68146101d75780635c975abb146101ea57600080fd5b806306fdde0314610126578063095ea7b31461014457806318160ddd1461016757806323b872dd14610198575b600080fd5b61012e6102de565b60405161013b9190610cde565b60405180910390f35b610157610152366004610d48565b6103a1565b604051901515815260200161013b565b7f52c63247e1f47db19d5ce0460030c497f067ca4cebf71ba98eeadabe20bace02545b60405190815260200161013b565b6101576101a6366004610d72565b6103bb565b6040516012815260200161013b565b6101c26103df565b005b6101c26101d2366004610d48565b6103f1565b6101c26101e5366004610daf565b610407565b600080516020610fb58339815191525460ff16610157565b61018a610210366004610dc8565b6001600160a01b03166000908152600080516020610f95833981519152602052604090205490565b6101c2610414565b6101c261024e366004610d48565b610426565b6101c261043b565b6101c26105a2565b7f9016d09d72d40fdae2fd8ceac6b6234c7706214fd39c1cd1e609a0528c199300546040516001600160a01b03909116815260200161013b565b61012e6105b2565b6101576102b3366004610d48565b6105f1565b61018a6102c6366004610dea565b6105ff565b6101c26102d9366004610dc8565b610649565b7f52c63247e1f47db19d5ce0460030c497f067ca4cebf71ba98eeadabe20bace038054606091600080516020610f958339815191529161031d90610e1d565b80601f016020809104026020016040519081016040528092919081815260200182805461034990610e1d565b80156103965780601f1061036b57610100808354040283529160200191610396565b820191906000526020600020905b81548152906001019060200180831161037957829003601f168201915b505050505091505090565b6000336103af818585610689565b60019150505b92915050565b6000336103c985828561069b565b6103d4858585610701565b506001949350505050565b6103e7610760565b6103ef6107bb565b565b6103f9610760565b610403828261081b565b5050565b6104113382610851565b50565b61041c610760565b6103ef6000610887565b61043182338361069b565b6104038282610851565b7ff0c57e16840df040f15088dc2f81fe391c3923bec73e23a9662efc9c229c6a008054600160401b810460ff16159067ffffffffffffffff166000811580156104815750825b905060008267ffffffffffffffff16600114801561049e5750303b155b9050811580156104ac575080155b156104ca5760405163f92ee8a960e01b815260040160405180910390fd5b845467ffffffffffffffff1916600117855583156104f457845460ff60401b1916600160401b1785555b61053c6040518060400160405280600981526020016815195cdd08109554d160ba1b815250604051806040016040528060058152602001641d109554d160da1b8152506108f8565b61054461090a565b61054c610912565b61055533610922565b831561059b57845460ff60401b19168555604051600181527fc7f505b2f371ae2175ee4913f4499e1f2633a7b5936321eed1cdaeb6115181d29060200160405180910390a15b5050505050565b6105aa610760565b6103ef610933565b7f52c63247e1f47db19d5ce0460030c497f067ca4cebf71ba98eeadabe20bace048054606091600080516020610f958339815191529161031d90610e1d565b6000336103af818585610701565b6001600160a01b0391821660009081527f52c63247e1f47db19d5ce0460030c497f067ca4cebf71ba98eeadabe20bace016020908152604080832093909416825291909152205490565b610651610760565b6001600160a01b03811661068057604051631e4fbdf760e01b8152600060048201526024015b60405180910390fd5b61041181610887565b610696838383600161097c565b505050565b60006106a784846105ff565b905060001981146106fb57818110156106ec57604051637dc7a0d960e11b81526001600160a01b03841660048201526024810182905260448101839052606401610677565b6106fb8484848403600061097c565b50505050565b6001600160a01b03831661072b57604051634b637e8f60e11b815260006004820152602401610677565b6001600160a01b0382166107555760405163ec442f0560e01b815260006004820152602401610677565b610696838383610a63565b336107927f9016d09d72d40fdae2fd8ceac6b6234c7706214fd39c1cd1e609a0528c199300546001600160a01b031690565b6001600160a01b0316146103ef5760405163118cdaa760e01b8152336004820152602401610677565b6107c3610a6e565b600080516020610fb5833981519152805460ff191681557f5db9ee0a495bf2e6ff9c91a7834c1ba4fdd244a5e8aa4e537bd38aeae4b073aa335b6040516001600160a01b03909116815260200160405180910390a150565b6001600160a01b0382166108455760405163ec442f0560e01b815260006004820152602401610677565b61040360008383610a63565b6001600160a01b03821661087b57604051634b637e8f60e11b815260006004820152602401610677565b61040382600083610a63565b7f9016d09d72d40fdae2fd8ceac6b6234c7706214fd39c1cd1e609a0528c19930080546001600160a01b031981166001600160a01b03848116918217845560405192169182907f8be0079c531659141344cd1fd0a4f28419497f9722a3daafe3b4186f6b6457e090600090a3505050565b610900610a9e565b6104038282610ae7565b6103ef610a9e565b61091a610a9e565b6103ef610b38565b61092a610a9e565b61041181610b59565b61093b610b61565b600080516020610fb5833981519152805460ff191660011781557f62e78cea01bee320cd4e420270b5ea74000d11b0c9f74754ebdbfc544b05a258336107fd565b600080516020610f958339815191526001600160a01b0385166109b55760405163e602df0560e01b815260006004820152602401610677565b6001600160a01b0384166109df57604051634a1406b160e11b815260006004820152602401610677565b6001600160a01b0380861660009081526001830160209081526040808320938816835292905220839055811561059b57836001600160a01b0316856001600160a01b03167f8c5be1e5ebec7d5bd14f71427d1e84f3dd0314c0f7b2291e5b200ac8c7c3b92585604051610a5491815260200190565b60405180910390a35050505050565b610696838383610b92565b600080516020610fb58339815191525460ff166103ef57604051638dfc202b60e01b815260040160405180910390fd5b7ff0c57e16840df040f15088dc2f81fe391c3923bec73e23a9662efc9c229c6a0054600160401b900460ff166103ef57604051631afcd79f60e31b815260040160405180910390fd5b610aef610a9e565b600080516020610f958339815191527f52c63247e1f47db19d5ce0460030c497f067ca4cebf71ba98eeadabe20bace03610b298482610eb4565b50600481016106fb8382610eb4565b610b40610a9e565b600080516020610fb5833981519152805460ff19169055565b610651610a9e565b600080516020610fb58339815191525460ff16156103ef5760405163d93c066560e01b815260040160405180910390fd5b610b9a610b61565b610696838383600080516020610f958339815191526001600160a01b038416610bdc5781816002016000828254610bd19190610f73565b90915550610c4e9050565b6001600160a01b03841660009081526020829052604090205482811015610c2f5760405163391434e360e21b81526001600160a01b03861660048201526024810182905260448101849052606401610677565b6001600160a01b03851660009081526020839052604090209083900390555b6001600160a01b038316610c6c576002810180548390039055610c8b565b6001600160a01b03831660009081526020829052604090208054830190555b826001600160a01b0316846001600160a01b03167fddf252ad1be2c89b69c2b068fc378daa952ba7f163c4a11628f55a4df523b3ef84604051610cd091815260200190565b60405180910390a350505050565b602081526000825180602084015260005b81811015610d0c5760208186018101516040868401015201610cef565b506000604082850101526040601f19601f83011684010191505092915050565b80356001600160a01b0381168114610d4357600080fd5b919050565b60008060408385031215610d5b57600080fd5b610d6483610d2c565b946020939093013593505050565b600080600060608486031215610d8757600080fd5b610d9084610d2c565b9250610d9e60208501610d2c565b929592945050506040919091013590565b600060208284031215610dc157600080fd5b5035919050565b600060208284031215610dda57600080fd5b610de382610d2c565b9392505050565b60008060408385031215610dfd57600080fd5b610e0683610d2c565b9150610e1460208401610d2c565b90509250929050565b600181811c90821680610e3157607f821691505b602082108103610e5157634e487b7160e01b600052602260045260246000fd5b50919050565b634e487b7160e01b600052604160045260246000fd5b601f82111561069657806000526020600020601f840160051c81016020851015610e945750805b601f840160051c820191505b8181101561059b5760008155600101610ea0565b815167ffffffffffffffff811115610ece57610ece610e57565b610ee281610edc8454610e1d565b84610e6d565b6020601f821160018114610f165760008315610efe5750848201515b600019600385901b1c1916600184901b17845561059b565b600084815260208120601f198516915b82811015610f465787850151825560209485019460019092019101610f26565b5084821015610f645786840151600019600387901b60f8161c191681555b50505050600190811b01905550565b808201808211156103b557634e487b7160e01b600052601160045260246000fdfe52c63247e1f47db19d5ce0460030c497f067ca4cebf71ba98eeadabe20bace00cd5ed15c6e187e77e9aee88184c21f4f2182ab5827cb3b7e07fbedcd63f03300a26469706673582212209fc8662572f45a7c18661bc1d96772d695d5b8a42c7c56ee00889bc9acf6402964736f6c634300081c0033",
  "linkReferences": {},
  "deployedLinkReferences": {}
}