{
  "_format": "hh-sol-artifact-1",
  "contractName": "tBUSD",
  "sourceName": "contracts/tBUSD.sol",
  "abi": [
    {
      "inputs": [],
      "stateMutability": "nonpayable",
      "type": "constructor"
    },
    {
      "inputs": [
        {
          "internalType": "address",
          "name": "spender",
          "type": "address"
        },
        {
          "internalType": "uint256",
          "name": "allowance",
          "type": "uint256"
        },
        {
          "internalType": "uint256",
          "name": "needed",
          "type": "uint256"
        }
      ],
      "name": "ERC20InsufficientAllowance",
      "type": "error"
    },
    {
      "inputs": [
        {
          "internalType": "address",
          "name": "sender",
          "type": "address"
        },
        {
          "internalType": "uint256",
          "name": "balance",
          "type": "uint256"
        },
        {
          "internalType": "uint256",
          "name": "needed",
          "type": "uint256"
        }
      ],
      "name": "ERC20InsufficientBalance",
      "type": "error"
    },
    {
      "inputs": [
        {
          "internalType": "address",
          "name": "approver",
          "type": "address"
        }
      ],
      "name": "ERC20InvalidApprover",
      "type": "error"
    },
    {
      "inputs": [
        {
          "internalType": "address",
          "name": "receiver",
          "type": "address"
        }
      ],
      "name": "ERC20InvalidReceiver",
      "type": "error"
    },
    {
      "inputs": [
        {
          "internalType": "address",
          "name": "sender",
          "type": "address"
        }
      ],
      "name": "ERC20InvalidSender",
      "type": "error"
    },
    {
      "inputs": [
        {
          "internalType": "address",
          "name": "spender",
          "type": "address"
        }
      ],
      "name": "ERC20InvalidSpender",
      "type": "error"
    },
    {
      "inputs": [],
      "name": "EnforcedPause",
      "type": "error"
    },
    {
      "inputs": [],
      "name": "ExpectedPause",
      "type": "error"
    },
    {
      "inputs": [],
      "name": "InvalidInitialization",
      "type": "error"
    },
    {
      "inputs": [],
      "name": "NotInitializing",
      "type": "error"
    },
    {
      "inputs": [
        {
          "internalType": "address",
          "name": "owner",
          "type": "address"
        }
      ],
      "name": "OwnableInvalidOwner",
      "type": "error"
    },
    {
      "inputs": [
        {
          "internalType": "address",
          "name": "account",
          "type": "address"
        }
      ],
      "name": "OwnableUnauthorizedAccount",
      "type": "error"
    },
    {
      "anonymous": false,
      "inputs": [
        {
          "indexed": true,
          "internalType": "address",
          "name": "owner",
          "type": "address"
        },
        {
          "indexed": true,
          "internalType": "address",
          "name": "spender",
          "type": "address"
        },
        {
          "indexed": false,
          "internalType": "uint256",
          "name": "value",
          "type": "uint256"
        }
      ],
      "name": "Approval",
      "type": "event"
    },
    {
      "anonymous": false,
      "inputs": [
        {
          "indexed": false,
          "internalType": "uint64",
          "name": "version",
          "type": "uint64"
        }
      ],
      "name": "Initialized",
      "type": "event"
    },
    {
      "anonymous": false,
      "inputs": [
        {
          "indexed": true,
          "internalType": "address",
          "name": "previousOwner",
          "type": "address"
        },
        {
          "indexed": true,
          "internalType": "address",
          "name": "newOwner",
          "type": "address"
        }
      ],
      "name": "OwnershipTransferred",
      "type": "event"
    },
    {
      "anonymous": false,
      "inputs": [
        {
          "indexed": false,
          "internalType": "address",
          "name": "account",
          "type": "address"
        }
      ],
      "name": "Paused",
      "type": "event"
    },
    {
      "anonymous": false,
      "inputs": [
        {
          "indexed": true,
          "internalType": "address",
          "name": "from",
          "type": "address"
        },
        {
          "indexed": true,
          "internalType": "address",
          "name": "to",
          "type": "address"
        },
        {
          "indexed": false,
          "internalType": "uint256",
          "name": "value",
          "type": "uint256"
        }
      ],
      "name": "Transfer",
      "type": "event"
    },
    {
      "anonymous": false,
      "inputs": [
        {
          "indexed": false,
          "internalType": "address",
          "name": "account",
          "type": "address"
        }
      ],
      "name": "Unpaused",
      "type": "event"
    },
    {
      "inputs": [
        {
          "internalType": "address",
          "name": "owner",
          "type": "address"
        },
        {
          "internalType": "address",
          "name": "spender",
          "type": "address"
        }
      ],
      "name": "allowance",
      "outputs": [
        {
          "internalType": "uint256",
          "name": "",
          "type": "uint256"
        }
      ],
      "stateMutability": "view",
      "type": "function"
    },
    {
      "inputs": [
        {
          "internalType": "address",
          "name": "spender",
          "type": "address"
        },
        {
          "internalType": "uint256",
          "name": "value",
          "type": "uint256"
        }
      ],
      "name": "approve",
      "outputs": [
        {
          "internalType": "bool",
          "name": "",
          "type": "bool"
        }
      ],
      "stateMutability": "nonpayable",
      "type": "function"
    },
    {
      "inputs": [
        {
          "internalType": "address",
          "name": "account",
          "type": "address"
        }
      ],
      "name": "balanceOf",
      "outputs": [
        {
          "internalType": "uint256",
          "name": "",
          "type": "uint256"
        }
      ],
      "stateMutability": "view",
      "type": "function"
    },
    {
      "inputs": [
        {
          "internalType": "uint256",
          "name": "value",
          "type": "uint256"
        }
      ],
      "name": "burn",
      "outputs": [],
      "stateMutability": "nonpayable",
      "type": "function"
    },
    {
      "inputs": [
        {
          "internalType": "address",
          "name": "account",
          "type": "address"
        },
        {
          "internalType": "uint256",
          "name": "value",
          "type": "uint256"
        }
      ],
      "name": "burnFrom",
      "outputs": [],
      "stateMutability": "nonpayable",
      "type": "function"
    },
    {
      "inputs": [],
      "name": "decimals",
      "outputs": [
        {
          "internalType": "uint8",
          "name": "",
          "type": "uint8"
        }
      ],
      "stateMutability": "view",
      "type": "function"
    },
    {
      "inputs": [],
      "name": "initialize",
      "outputs": [],
      "stateMutability": "nonpayable",
      "type": "function"
    },
    {
      "inputs": [
        {
          "internalType": "address",
          "name": "to",
          "type": "address"
        },
        {
          "internalType": "uint256",
          "name": "amount",
          "type": "uint256"
        }
      ],
      "name": "mint",
      "outputs": [],
      "stateMutability": "nonpayable",
      "type": "function"
    },
    {
      "inputs": [],
      "name": "name",
      "outputs": [
        {
          "internalType": "string",
          "name": "",
          "type": "string"
        }
      ],
      "stateMutability": "view",
      "type": "function"
    },
    {
      "inputs": [],
      "name": "owner",
      "outputs": [
        {
          "internalType": "address",
          "name": "",
          "type": "address"
        }
      ],
      "stateMutability": "view",
      "type": "function"
    },
    {
      "inputs": [],
      "name": "pause",
      "outputs": [],
      "stateMutability": "nonpayable",
      "type": "function"
    },
    {
      "inputs": [],
      "name": "paused",
      "outputs": [
        {
          "internalType": "bool",
          "name": "",
          "type": "bool"
        }
      ],
      "stateMutability": "view",
      "type": "function"
    },
    {
      "inputs": [],
      "name": "renounceOwnership",
      "outputs": [],
      "stateMutability": "nonpayable",
      "type": "function"
    },
    {
      "inputs": [],
      "name": "symbol",
      "outputs": [
        {
          "internalType": "string",
          "name": "",
          "type": "string"
        }
      ],
      "stateMutability": "view",
      "type": "function"
    },
    {
      "inputs": [],
      "name": "totalSupply",
      "outputs": [
        {
          "internalType": "uint256",
          "name": "",
          "type": "uint256"
        }
      ],
      "stateMutability": "view",
      "type": "function"
    },
    {
      "inputs": [
        {
          "internalType": "address",
          "name": "to",
          "type": "address"
        },
        {
          "internalType": "uint256",
          "name": "value",
          "type": "uint256"
        }
      ],
      "name": "transfer",
      "outputs": [
        {
          "internalType": "bool",
          "name": "",
          "type": "bool"
        }
      ],
      "stateMutability": "nonpayable",
      "type": "function"
    },
    {
      "inputs": [
        {
          "internalType": "address",
          "name": "from",
          "type": "address"
        },
        {
          "internalType": "address",
          "name": "to",
          "type": "address"
        },
        {
          "internalType": "uint256",
          "name": "value",
          "type": "uint256"
        }
      ],
      "name": "transferFrom",
      "outputs": [
        {
          "internalType": "bool",
          "name": "",
          "type": "bool"
        }
      ],
      "stateMutability": "nonpayable",
      "type": "function"
    },
    {
      "inputs": [
        {
          "internalType": "address",
          "name": "newOwner",
          "type": "address"
        }
      ],
      "name": "transferOwnership",
      "outputs": [],
      "stateMutability": "nonpayable",
      "type": "function"
    },
    {
      "inputs": [],
      "name": "unpause",
      "outputs": [],
      "stateMutability": "nonpayable",
      "type": "function"
    }
  ],
  "bytecode": "0x6080604052348015600f57600080fd5b506016601a565b60ca565b7ff0c57e16840df040f15088dc2f81fe391c3923bec73e23a9662efc9c229c6a00805468010000000000000000900460ff161560695760405163f92ee8a960e01b815260040160405180910390fd5b80546001600160401b039081161460c75780546001600160401b0319166001600160401b0390811782556040519081527fc7f505b2f371ae2175ee4913f4499e1f2633a7b5936321eed1cdaeb6115181d29060200160405180910390a15b50565b611006806100d96000396000f3fe608060405234801561001057600080fd5b50600436106101215760003560e01c806370a08231116100ad5780638da5cb5b116100715780638da5cb5b1461026357806395d89b411461029d578063a9059cbb146102a5578063dd62ed3e146102b8578063f2fde38b146102cb57600080fd5b806370a0823114610202578063715018a61461023857806379cc6790146102405780638129fc1c146102535780638456cb591461025b57600080fd5b8063313ce567116100f4578063313ce567146101ab5780633f4ba83a146101ba57806340c10f19146101c457806342966c68146101d75780635c975abb146101ea57600080fd5b806306fdde0314610126578063095ea7b31461014457806318160ddd1461016757806323b872dd14610198575b600080fd5b61012e6102de565b60405161013b9190610cda565b60405180910390f35b610157610152366004610d44565b6103a1565b604051901515815260200161013b565b7f52c63247e1f47db19d5ce0460030c497f067ca4cebf71ba98eeadabe20bace02545b60405190815260200161013b565b6101576101a6366004610d6e565b6103bb565b6040516012815260200161013b565b6101c26103df565b005b6101c26101d2366004610d44565b6103f1565b6101c26101e5366004610dab565b610407565b600080516020610fb18339815191525460ff16610157565b61018a610210366004610dc4565b6001600160a01b03166000908152600080516020610f91833981519152602052604090205490565b6101c2610414565b6101c261024e366004610d44565b610426565b6101c261043b565b6101c261059e565b7f9016d09d72d40fdae2fd8ceac6b6234c7706214fd39c1cd1e609a0528c199300546040516001600160a01b03909116815260200161013b565b61012e6105ae565b6101576102b3366004610d44565b6105ed565b61018a6102c6366004610de6565b6105fb565b6101c26102d9366004610dc4565b610645565b7f52c63247e1f47db19d5ce0460030c497f067ca4cebf71ba98eeadabe20bace038054606091600080516020610f918339815191529161031d90610e19565b80601f016020809104026020016040519081016040528092919081815260200182805461034990610e19565b80156103965780601f1061036b57610100808354040283529160200191610396565b820191906000526020600020905b81548152906001019060200180831161037957829003601f168201915b505050505091505090565b6000336103af818585610685565b60019150505b92915050565b6000336103c9858285610697565b6103d48585856106fd565b506001949350505050565b6103e761075c565b6103ef6107b7565b565b6103f961075c565b6104038282610817565b5050565b610411338261084d565b50565b61041c61075c565b6103ef6000610883565b610431823383610697565b610403828261084d565b7ff0c57e16840df040f15088dc2f81fe391c3923bec73e23a9662efc9c229c6a008054600160401b810460ff16159067ffffffffffffffff166000811580156104815750825b905060008267ffffffffffffffff16600114801561049e5750303b155b9050811580156104ac575080155b156104ca5760405163f92ee8a960e01b815260040160405180910390fd5b845467ffffffffffffffff1916600117855583156104f457845460ff60401b1916600160401b1785555b6105386040518060400160405280600781526020016626bcaa37b5b2b760c91b815250604051806040016040528060038152602001624d544b60e81b8152506108f4565b610540610906565b61054861090e565b6105513361091e565b831561059757845460ff60401b19168555604051600181527fc7f505b2f371ae2175ee4913f4499e1f2633a7b5936321eed1cdaeb6115181d29060200160405180910390a15b5050505050565b6105a661075c565b6103ef61092f565b7f52c63247e1f47db19d5ce0460030c497f067ca4cebf71ba98eeadabe20bace048054606091600080516020610f918339815191529161031d90610e19565b6000336103af8185856106fd565b6001600160a01b0391821660009081527f52c63247e1f47db19d5ce0460030c497f067ca4cebf71ba98eeadabe20bace016020908152604080832093909416825291909152205490565b61064d61075c565b6001600160a01b03811661067c57604051631e4fbdf760e01b8152600060048201526024015b60405180910390fd5b61041181610883565b6106928383836001610978565b505050565b60006106a384846105fb565b905060001981146106f757818110156106e857604051637dc7a0d960e11b81526001600160a01b03841660048201526024810182905260448101839052606401610673565b6106f784848484036000610978565b50505050565b6001600160a01b03831661072757604051634b637e8f60e11b815260006004820152602401610673565b6001600160a01b0382166107515760405163ec442f0560e01b815260006004820152602401610673565b610692838383610a5f565b3361078e7f9016d09d72d40fdae2fd8ceac6b6234c7706214fd39c1cd1e609a0528c199300546001600160a01b031690565b6001600160a01b0316146103ef5760405163118cdaa760e01b8152336004820152602401610673565b6107bf610a6a565b600080516020610fb1833981519152805460ff191681557f5db9ee0a495bf2e6ff9c91a7834c1ba4fdd244a5e8aa4e537bd38aeae4b073aa335b6040516001600160a01b03909116815260200160405180910390a150565b6001600160a01b0382166108415760405163ec442f0560e01b815260006004820152602401610673565b61040360008383610a5f565b6001600160a01b03821661087757604051634b637e8f60e11b815260006004820152602401610673565b61040382600083610a5f565b7f9016d09d72d40fdae2fd8ceac6b6234c7706214fd39c1cd1e609a0528c19930080546001600160a01b031981166001600160a01b03848116918217845560405192169182907f8be0079c531659141344cd1fd0a4f28419497f9722a3daafe3b4186f6b6457e090600090a3505050565b6108fc610a9a565b6104038282610ae3565b6103ef610a9a565b610916610a9a565b6103ef610b34565b610926610a9a565b61041181610b55565b610937610b5d565b600080516020610fb1833981519152805460ff191660011781557f62e78cea01bee320cd4e420270b5ea74000d11b0c9f74754ebdbfc544b05a258336107f9565b600080516020610f918339815191526001600160a01b0385166109b15760405163e602df0560e01b815260006004820152602401610673565b6001600160a01b0384166109db57604051634a1406b160e11b815260006004820152602401610673565b6001600160a01b0380861660009081526001830160209081526040808320938816835292905220839055811561059757836001600160a01b0316856001600160a01b03167f8c5be1e5ebec7d5bd14f71427d1e84f3dd0314c0f7b2291e5b200ac8c7c3b92585604051610a5091815260200190565b60405180910390a35050505050565b610692838383610b8e565b600080516020610fb18339815191525460ff166103ef57604051638dfc202b60e01b815260040160405180910390fd5b7ff0c57e16840df040f15088dc2f81fe391c3923bec73e23a9662efc9c229c6a0054600160401b900460ff166103ef57604051631afcd79f60e31b815260040160405180910390fd5b610aeb610a9a565b600080516020610f918339815191527f52c63247e1f47db19d5ce0460030c497f067ca4cebf71ba98eeadabe20bace03610b258482610eb0565b50600481016106f78382610eb0565b610b3c610a9a565b600080516020610fb1833981519152805460ff19169055565b61064d610a9a565b600080516020610fb18339815191525460ff16156103ef5760405163d93c066560e01b815260040160405180910390fd5b610b96610b5d565b610692838383600080516020610f918339815191526001600160a01b038416610bd85781816002016000828254610bcd9190610f6f565b90915550610c4a9050565b6001600160a01b03841660009081526020829052604090205482811015610c2b5760405163391434e360e21b81526001600160a01b03861660048201526024810182905260448101849052606401610673565b6001600160a01b03851660009081526020839052604090209083900390555b6001600160a01b038316610c68576002810180548390039055610c87565b6001600160a01b03831660009081526020829052604090208054830190555b826001600160a01b0316846001600160a01b03167fddf252ad1be2c89b69c2b068fc378daa952ba7f163c4a11628f55a4df523b3ef84604051610ccc91815260200190565b60405180910390a350505050565b602081526000825180602084015260005b81811015610d085760208186018101516040868401015201610ceb565b506000604082850101526040601f19601f83011684010191505092915050565b80356001600160a01b0381168114610d3f57600080fd5b919050565b60008060408385031215610d5757600080fd5b610d6083610d28565b946020939093013593505050565b600080600060608486031215610d8357600080fd5b610d8c84610d28565b9250610d9a60208501610d28565b929592945050506040919091013590565b600060208284031215610dbd57600080fd5b5035919050565b600060208284031215610dd657600080fd5b610ddf82610d28565b9392505050565b60008060408385031215610df957600080fd5b610e0283610d28565b9150610e1060208401610d28565b90509250929050565b600181811c90821680610e2d57607f821691505b602082108103610e4d57634e487b7160e01b600052602260045260246000fd5b50919050565b634e487b7160e01b600052604160045260246000fd5b601f82111561069257806000526020600020601f840160051c81016020851015610e905750805b601f840160051c820191505b818110156105975760008155600101610e9c565b815167ffffffffffffffff811115610eca57610eca610e53565b610ede81610ed88454610e19565b84610e69565b6020601f821160018114610f125760008315610efa5750848201515b600019600385901b1c1916600184901b178455610597565b600084815260208120601f198516915b82811015610f425787850151825560209485019460019092019101610f22565b5084821015610f605786840151600019600387901b60f8161c191681555b50505050600190811b01905550565b808201808211156103b557634e487b7160e01b600052601160045260246000fdfe52c63247e1f47db19d5ce0460030c497f067ca4cebf71ba98eeadabe20bace00cd5ed15c6e187e77e9aee88184c21f4f2182ab5827cb3b7e07fbedcd63f03300a2646970667358221220e8b95e3b1cd101379ba288189fc24fc9fab1ae7797ff417925e222e624903b8264736f6c634300081c0033",
  "linkReferences": {},
  "deployedLinkReferences": {}
}